:020000040800F2
:10000000B807002079020008E3260008AB230008A7
:10001000E1260008E50500088D3100080000000019
:10002000000000000000000000000000E7260008BB
:10003000E705000800000000E5260008E9260008A2
:10004000930200089302000893020008930200083C
:10005000930200089302000893020008930200082C
:10006000930200089302000893020008930200081C
:10007000930200089302000893020008930200080C
:100080009302000800000000930200089302000899
:1000900093020008930200089302000893020008EC
:1000A00093020008930200089302000893020008DC
:1000B00065270008930200089302000893020008D5
:1000C00093020008930200089302000893020008BC
:1000D000930200089302000881310008930200088F
:1000E000930200089302000893020008930200089C
:1000F0009302000893020008930200080000000029
:1001000000000000930200080000000093020008B5
:100110009302000800000000930200089302000808
:10012000930200089302000893020008930200085B
:100130009302000800000000000000009302000885
:100140009302000893020008000000000000000075
:10015000000000000000000000000000000000009F
:1001600000000000000000000000000093020008F2
:1001700093020008000000000000000000000000E2
:1001800000000000930200080000000000000000D2
:10019000000000000000000000000000000000005F
:1001A0000000000000000000930200089302000815
:1001B0009302000893020008930200080000000068
:1001C0000000000093020008000000000000000092
:1001D000930200089302000800F002F800F03CF8D7
:1001E0000AA090E8000C82448344AAF10107DA4592
:1001F00001D100F031F8AFF2090EBAE80F0013F0A8
:10020000010F18BFFB1A43F001031847DC30000050
:10021000FC300000103A24BF78C878C1FAD85207E1
:1002200024BF30C830C144BF04680C607047000070
:100230000023002400250026103A28BF78C1FBD8EF
:10024000520728BF30C148BF0B6070471FB503F08D
:1002500013F81FBD10B510BD00F0CFF81146FFF721
:10026000F5FF02F0A5FF00F0EDF803B4FFF7F2FF91
:1002700003BC00F0F5F80000094880470948004732
:10028000FEE7FEE7FEE7FEE7FEE7FEE7FEE7FEE746
:10029000FEE7FEE704480549054A064B70470000A3
:1002A00055270008D9010008B8010020B807002030
:1002B000B8030020B803002053EA020C00F0698064
:1002C0002DE9F04B4FF00006002B1FBFB3FA83F56A
:1002D00003FA05F424FA05F65E4012BF1643B2FA9B
:1002E00082F502FA05F4C5F120051EBF22FA05FCCD
:1002F00044EA0C04203556EA044C4FEA144418BF73
:10030000641C4FF000084FF00009904271EB030CA1
:1003100039D3002919BFB1FA81F701FA07F6B0FA0B
:1003200080F700FA07F6C7F120071EBF20FA07FC86
:1003300046EA0C062037B6FBF4FCA7EB0507103F96
:1003400007F01F0BCBF120060CFA0BFB2CFA06F67C
:1003500044BFB3460026202FA4BF5E464FF0000BDB
:100360005BEA060C08BF4FF0010B19EB0B09ABFB66
:10037000027C48EB0608C01B06FB02CC0BFB03CC3F
:1003800071EB0C01C1E70B46024641464846BDE809
:10039000F08B13B54FF000004FF00001AFF3008079
:1003A000BDE81C4070474FF0000200B5134694466C
:1003B0009646203922BFA0E80C50A0E80C50B1F1BD
:1003C0002001BFF4F7AF090728BFA0E80C5048BFD1
:1003D0000CC05DF804EB890028BF40F8042B08BF6F
:1003E000704748BF20F8022B11F0804F18BF00F86B
:1003F000012B7047704770477047754600F02CF826
:10040000AE4605006946534620F00700854618B001
:1004100020B5FFF73FFFBDE820404FF000064FF04A
:1004200000074FF000084FF0000B21F00701AC4629
:10043000ACE8C009ACE8C009ACE8C009ACE8C00948
:100440008D46704710B50446AFF300802046BDE8E6
:100450001040FFF70ABF0000004870475401002019
:1004600001491820ABBEFEE72600020070470000DD
:1004700010B50F4CE068002818D0002101F0BCFC3A
:100480000421E06801F0B8FC0821E06801F0B4FC48
:100490000021E06801F0FCF80421E06801F0F8F8C0
:1004A000E068BDE81040082101F0F2B810BD00007E
:1004B00018000020084806220146037889784BB1CD
:1004C00011F10501B1FBF2F302FB13118170C8B207
:1004D00000F014B8491CF5E71800002000280AD0E5
:1004E000054900220A704A70C8608A703220C1E94A
:1004F0000102FFF7BDBF70471800002070B51A4C0D
:10050000E06800282ED0FFF7B3FFE1682A200A68D0
:1005100050630A6890630968C863144E0025A07888
:1005200000EB400006EB4000405DB8B1062D15D24F
:10053000DFE805F0030C050E0710002102E004219E
:1005400000E00821E06801F0D9FB07E0002102E0AB
:10055000042100E00821E06801F03EF86D1CEDB2D6
:10056000062DDCD370BD000018000020C232000848
:100570000149087070470000180000200349002856
:10058000487001D1FFF774BF7047000018000020C9
:1005900070B5134C617831B120460025806801297F
:1005A00005D0022911D0BDE87040FFF761BF08B93E
:1005B000FFF780FFA068401CA0606168884203D3F9
:1005C000A560FFF755FF657070BD401CA0606168B5
:1005D0008842F9D3A560BDE87040FFF76BBF00000B
:1005E00018000020FEE7704772B6FEE710B5002144
:1005F00040B190F825300122022B05D00421C163BF
:10060000012124E0012010BD03681C6824F00104CE
:100610001C6003681C6824F00E041C60836C1C685A
:1006200024F480741C6090F84430046C03F01F03C1
:1006300002FA03F36360D0E913345C60436D33B1B5
:100640001C6824F480741C60D0E916345C6080F867
:100650002520002280F82420084610BD70B590F8AF
:100660002520002401212346022A07D00422C26348
:1006700080F8251080F82430012429E002681568EC
:1006800025F0010515600268156825F00E05156056
:10069000826C156825F48075156090F84420056C0F
:1006A00002F01F0201FA02F26A60D0E913255560D8
:1006B000426D32B1156825F480751560D0E91625B4
:1006C000556080F8251080F82430816B01B188478F
:1006D000204670BD70B5044600F03AF90546601C2E
:1006E00002D004484068044400F032F9401BA042A4
:1006F000FAD370BD080000202DE9F04FDFF80C920E
:10070000002301260325A9F1040B85B00F2709F169
:10071000040AABF1040EF1E006FA03FC12EA0C0243
:100720007ED00C7904F00304012C01D0022C20D1DE
:10073000846800945C0005FA04F80494009C24EAA0
:1007400008040094D1F80C80049C08FA04F8009C7A
:1007500048EA0408C0F80880446824EA0C0491F8C8
:1007600004C0CCF3001C0CFA03FC4CEA040CC0F8E7
:1007700004C00C79E443A40702D18C68012C0ED08C
:10078000C4684FEA430805FA08FC24EA0C04D1F8CF
:1007900008C00CFA08FC4CEA040CC0F80CC00C7938
:1007A00004F00304022C16D1DC0800EB840CCDF815
:1007B00008C0DCF820C05C074FEAD46807FA08F4E8
:1007C0002CEA040C0C6904FA08F444EA0C04DDF881
:1007D00008C0CCF8204004684FEA430805FA08FC3A
:1007E00024EA0C0491F804C00CF0030C0CFA08FC89
:1007F0004CEA040CC0F800C04C6814F4403F7CD0B4
:10080000434CD4F860C04CF0010CC4F860C0246EB6
:1008100023F0030C04F0010400943E4C644400E017
:100820006BE00294A4684FEA837C4FEA1C7807FAD5
:1008300008FC24EA0C04B0F1904F06D0DFF8D8C0D1
:10084000604505D14FF0010C20E04FF0000C1DE099
:10085000DFF8C8C0604502D14FF0020C16E0DFF8A7
:10086000C0C0604502D14FF0030C0FE0DFF8B4C008
:10087000604502D14FF0040C08E0DFF8ACC06045E1
:1008800002D14FF0050C01E04FF0060C0CFA08FC09
:100890004CEA040C029CC4F808C0D9F80040CC46CD
:1008A000D1F8048094435FEAC82800D51443CCF8FB
:1008B0000040DAF80040D446D1F8048094435FEA5F
:1008C000882800D51443CCF80040DBF80040DC4613
:1008D000D1F8048094435FEA883800D51443CCF8FB
:1008E0000040DEF80040F446D1F8048094435FEA0B
:1008F000C83800D51443CCF800405B1C0C68224675
:10090000DC407FF409AF05B0BDE8F08F080401407A
:1009100000100240000001400004004800080048A8
:10092000000C00480010004800140048006908400E
:1009300000D001207047426921EA02030A4043EADD
:100940000241816170470AB18161704781627047DD
:100950000148806870470000080000200248816854
:1009600042681144816070470800002010B50024DF
:10097000032000F073F80F2000F008F808B10124FC
:1009800001E000F025F8204610BD000070B50E4EC5
:1009900005460024706898B14FF47A71B1FBF0F00D
:1009A0000A490968B1FBF0F000F05EFD40B9102D76
:1009B00006D200222946501E00F030F8356000E0D3
:1009C0000124204670BD0000080000201400002013
:1009D0000A4882B0016E41F001010166016E01F02A
:1009E00001010091816D41F080518165806D00F0C1
:1009F0008050009002B000F0A1B80000001002404A
:100A0000002809DB00F01F0201219140400980000D
:100A100000F1E020C0F8001170470000F0B40E4B68
:100A20001B680C46C3F30223C3F10705042D00D94C
:100A30000425191D072901D2002300E0DB1E012631
:100A400006FA05F1491E214099409E40761E164047
:100A50003143F0BC02F09BBB0CED00E0064900F016
:100A6000070208684FF6FF03184040EA0220034AD5
:100A700010430860704700000CED00E00000FA052C
:100A80002B492C4B0A6832214A432B4940B1B0F51F
:100A9000007F086829D020F4C06040F480602CE01A
:100AA0000868C0F34120022804D051F8800F20F4D8
:100AB000807022E0D1F8800020F48070C1F88000BE
:100AC000086820F4C06040F400700860B2FBF3F0E6
:100AD000401C00E0401E4A69520501D50028F9D1AA
:100AE000486940050AD503207047C0F34120022819
:100AF00006D051F8800F40F48070086000207047E5
:100B0000D1F8800040F48070C1F88000086820F4BB
:100B1000C06040F400700860B2FBF3F0401C00E0DD
:100B2000401E4A695205DBD50028F9D1D8E70000FC
:100B30001400002040420F0000700040024881680D
:100B400041F4804181607047007000402DE9F84316
:100B50000446006800269D4D00035ED5A86D002761
:100B6000C00008D4A86D40F08050A865A86D01278A
:100B700000F080500090DFF85892D9F8001041F44E
:100B80008071C9F80010FFF7E3FE804606E000BF61
:100B9000FFF7DEFEA0EB080002282BD8D9F80000F2
:100BA000C005F5D5D5F8900010F4407014D0216C34
:100BB000814211D0D5F89000D5F8901020F4407003
:100BC00041F48031C5F89010D5F8901021F48031AF
:100BD000C5F89010C5F89000C00711D0FFF7B8FE17
:100BE000804641F2883907E0FFF7B2FEA0EB08012A
:100BF000494501D903260BE0D5F890008007F3D5CD
:100C0000D5F89000216C20F440700843C5F890009E
:100C10001FB1A86D20F08050A8652078C00707D0CC
:100C2000D5F88800616820F003000843C5F8880003
:100C30002078800707D5D5F88800A16820F00C003F
:100C40000843C5F888002078400707D5D5F8880004
:100C5000E16820F030000843C5F8880020780007DC
:100C600007D5D5F88800216920F0C0000843C5F8F1
:100C700088002078800607D5D5F88800616920F4BF
:100C800040600843C5F888002078400607D5D5F8AD
:100C90008800A16920F440500843C5F888002078F6
:100CA000000607D5D5F88800E16920F440400843E4
:100CB000C5F888002088C00507D5D5F88800216AC6
:100CC00020F440300843C5F888002088800507D507
:100CD000D5F88800616A20F440200843C5F88800F0
:100CE000208840050FD5D5F88800A16A20F440106F
:100CF0000843C5F88800A06AB0F5801F03D1E868F2
:100D000040F48010E860208800050FD5D5F88800F1
:100D1000E16A20F440000843C5F88800E06AB0F5B5
:100D2000800F03D1E86840F48010E8602088C00498
:100D30000FD5D5F88800216B20F040700843C5F826
:100D40008800206BB0F1807F03D1E86840F4801008
:100D5000E86020884FF0006180040ED5D5F8880047
:100D6000626B20F040601043C5F88800606B8842D9
:100D700003D1E86840F48010E860208840040ED574
:100D8000D5F88800A26B20F040601043C5F88800B9
:100D9000A06B884203D1E86840F48010E8602088A6
:100DA00000040FD5D5F88800E16B20F040500843CF
:100DB000C5F88800E06BB0F1805F03D1E86840F4CB
:100DC0008030E8603046BDE8F88300000010024043
:100DD000007000402DE9F0470E4605004FF0000777
:100DE00025D0DFF8AC81D8F8000000F00F00B04249
:100DF0000CD2D8F8001021F00F013143C8F80010D0
:100E0000D8F8000000F00F00B04210D12968614C02
:100E1000C80741F2883A5AD06868DFF87C91032805
:100E200008D0022820682DD0400500282CDB0120A6
:100E3000BDE8F08720688001F9D5E06800F0030282
:100E4000E068C0F30310401C032A19D0534A00BFC6
:100E5000B2FBF0F0E268C2F306225043E268C2F34C
:100E60004162521C5200B0FBF2F0484517D9A0680D
:100E700010F0F00F0CD0880711D5A86840B10EE033
:100E8000474AE5E78003D0E700F0B6F8484506D9C1
:100E9000A06820F0F00040F08000A0608027A068EB
:100EA000696820F003000843A060FFF751FD814608
:100EB00006E000BFFFF74CFDA0EB090151453AD811
:100EC000A068696800F00C00B0EB810FF2D12868CF
:100ED000810714D5400703D5A06840F4E060A06006
:100EE0002878000705D5A06820F4605040F4E06041
:100EF000A060A068A96820F0F000084304E0802FFB
:100F000003D1A06820F0F000A060D8F8001040469F
:100F100001F00F01B14216D9016821F00F013143F0
:100F20000160FFF715FD074607E000BFFFF710FD62
:100F3000C11B514501D903207AE7D8F8000000F021
:100F40000F00B042F2D12878400705D5A068E968C3
:100F500020F4E0600843A0602878000706D5A06868
:100F6000296920F4605040EAC100A06000F044F814
:100F7000A1680C4AC1F30311515C01F01F01C84084
:100F80000949086009480068BDE8F047FFF7FEBC62
:100F9000002002400010024000B4C4040024F40009
:100FA00000127A00AA320008140000200800002075
:100FB0000548064900688968054AC1F30221515C69
:100FC00001F01F01C84070471400002000100240CB
:100FD000BA3200080548064900688968054AC1F325
:100FE000C221515C01F01F01C8407047140000206D
:100FF00000100240BA320008184910B58868C0F3E2
:1010000081021748012A0BD08A684310C2F381027B
:10101000022A06D08A68C2F38102032A03D0002084
:1010200010BD184610BDCA6802F00304CA68C2F3B6
:101030000312521C032C02D0B0FBF2F001E0B3FB10
:10104000F2F0CA68C968C2F306225043C1F3416195
:10105000491C4900B0FBF1F010BD00000010024037
:101060000024F4002DE9F84304007AD02078F84DEC
:10107000C00747D0A868E96800F00C0001F0030140
:101080000C2802D0082817D001E0032914D060688A
:10109000B0F5803F17D0B0F5A02F286817D020F406
:1010A00080302860286820F4802028606068E0B1E3
:1010B000FFF74EFC064614E02868800322D56068DE
:1010C0000028D2D01EE0286840F48030EDE740F4DC
:1010D00080202860F7E700BFFFF73AFC801B6428F8
:1010E00070D828688003F7D50CE0FFF731FC06467E
:1010F00005E000BFFFF72CFC801B6428F0D82868AF
:101100008003F7D4207880074CD5A868E96800F000
:101110000C0001F003010C2802D004280DD001E0DE
:1011200002290AD0E068002828682BD040F480709B
:101130002860FFF70DFC064619E02868400502D537
:10114000E068002891D06868217C20F0FE4040EAE9
:1011500001606860BF480068FFF718FC002800D1F4
:1011600020E072E1FFF7F4FB801B0228B8D8286862
:101170004005F7D56868217C20F0FE4040EA016018
:1011800068600FE020F480702860FFF7E1FB0646FE
:1011900005E000BFFFF7DCFB801B0228A0D8286811
:1011A0004005F7D42078000729D560690028D5F8D4
:1011B000940013D040F00100C5F89400FFF7C8FB7D
:1011C000064606E090E000BFFFF7C2FB801B022846
:1011D00086D8D5F894008007F6D510E020F00100FD
:1011E000C5F89400FFF7B4FB064604E0FFF7B0FB38
:1011F000801B022878D8D5F894008007F6D4207890
:10120000400761D5A86D0026C00008D4A86D40F045
:101210008050A865A86D012600F0805000908E488F
:101220000168C90511D40168804641F480710160EC
:10123000FFF78EFB074604E0FFF78AFBC01B02287E
:1012400052D8D8F80000C005F6D5A068012815D0FE
:101250000528D5F8900016D020F00100C5F89000C0
:10126000D5F8900020F00400C5F89000A06841F285
:101270008838B8B1FFF76CFB07460EE0D5F8900050
:1012800040F00100F0E740F00400C5F89000F5E7F9
:10129000FFF75EFBC11B414526D8D5F890008007BB
:1012A000F6D50CE0FFF754FB074604E0FFF750FBD0
:1012B000C11B414518D8D5F890008007F6D41EB15F
:1012C000A86D20F08050A8652078800629D5A069F7
:1012D0000028D5F8980013D040F00100C5F8980018
:1012E000FFF736FB064606E075E000BFFFF730FB70
:1012F000801B02286FD8D5F898008007F6D510E03B
:1013000020F00100C5F89800FFF722FB064604E034
:10131000FFF71EFB801B02285DD8D5F898008007D8
:10132000F6D4E069F0B3A968C1F3810103295DD067
:101330000228286820F08070286003D0FFF708FB9F
:1013400004464BE0FFF704FB064604E0FFF700FB12
:10135000801B02283FD828688001F7D4F4E90801EF
:101360006FF00F0202EB01110843218A5204490871
:1013700002EB4151A26841EA02210843217D4FF06E
:101380007E42490802EB41610843217B40EAC1608B
:10139000E968324A11400843E860286840F08070EC
:1013A000286000E05EE0E86840F08070E860FFF7E9
:1013B000CFFA044605E000BFFFF7CAFA001B022877
:1013C00009D828688001F7D54CE000BFFFF7C0FAC4
:1013D000001B022802D90320BDE8F8832868800199
:1013E000F4D4E8681E490840E8603BE00128F3D0E7
:1013F000E868226A00F00301914226D1616A00F098
:10140000F0020901103991421FD1A26A00F4FE4195
:10141000B1EB022F19D194F82C2000F07841B1EBF8
:10142000C26F12D1218E00F4C00249084905A1F50E
:101430000011914209D194F8341000F0C0604908BD
:101440004906A1F1007181420CD00120C4E70000DF
:101450000010024008000020007000400C809F0136
:10146000FCFFEEFE0020B7E710B5401EB0F1807F14
:1014700001D3012010BD4FF0E02460610F216017FF
:1014800001F085FE0020A06107202061002010BD32
:10149000704770477047000030B590F83C20012A33
:1014A00042D0012280F83C20CA688B6822F4407246
:1014B0001A434B6822F480621A430B6822F40062DC
:1014C0001A430B6922F480521A434B6922F40052EA
:1014D0001A430B6B22F480421A430B8B22F47022C6
:1014E00042EA0342CB6922F080521A430F4D03684F
:1014F0000024AB4202D00E4DAB4210D10D8D22F430
:10150000700242EA05520D6A22F080722A434D6A47
:1015100022F000722A43C96A22F000520A435A6438
:1015200080F83C40002030BD022030BD002C01403E
:10153000003401407047704770470000F0B590F8E4
:101540003C20012A3AD0012580F83C50022280F844
:101550003D2003685A689C68194E1A4FB34201D067
:10156000BB4204D122F4700C4A6842EA0C02DFF854
:1015700058C002EA0C02D1F800C04CEA020CC3F8D1
:1015800004C00268B2420DD0B2F1804F0AD00F4BB6
:101590009A4207D00E4B9A4204D0BA4202D00D4B69
:1015A0009A4204D1896824F080031943916080F83D
:1015B0003D50002180F83C100846F0BD0220F0BDEF
:1015C000002C0140003401408FFFFFFD000400406B
:1015D000000800400040014010B50446022249B115
:1015E00004290ED0082913D094F84700012816D0FA
:1015F000012010BD94F844000128F9D184F844205A
:101600000FE094F845000128F2D184F8452008E065
:1016100094F846000128EBD184F8462001E084F8D4
:1016200047200422206801F00CF92068416C41F445
:10163000004141641049206888420ED0B0F1804FCB
:101640000BD00E49884208D00D49884205D00D497B
:10165000884202D00C49884207D181680B4A114068
:10166000062906D0B1F5803F03D0016841F00101A1
:101670000160002010BD0000002C0140000400406B
:101680000008004000340140004001400700010014
:1016900070B504460D460068002201F0D2F82068BB
:1016A000036A154944F244420B4206D1036A1342CD
:1016B00003D1436C23F4004343642068036A0B4264
:1016C00006D1016A114203D1016821F001010160D4
:1016D00001203DB1042D08D0082D09D084F8470021
:1016E000002070BD84F84400FAE784F84500F7E76D
:1016F00084F84600F4E7000011111100704710B59E
:10170000040003D094F83D0010B107E0012010BDA3
:10171000002084F83C00204600F022F8022084F8E3
:101720003D00211D206801F023F8012084F84800C5
:1017300084F83E0084F83F0084F8400084F84100BB
:1017400084F8420084F8430084F8440084F845009B
:1017500084F8460084F8470084F83D00002010BD5E
:1017600008B50068B0F1804F12D10A48816D41F090
:1017700001018165806D002200F00100009011469A
:101780001C20FFF74BF9BDE808401C20FFF738B9D3
:1017900008BD00000010024090F83D10012901D062
:1017A00001207047022180F83D100168CA6842F0AC
:1017B0000102CA600068104988420ED0B0F1804F23
:1017C0000BD00E49884208D00D49884205D00D49FA
:1017D000884202D00C49884207D181680B4A1140E7
:1017E000062906D0B1F5803F03D0016841F0010120
:1017F0000160002070470000002C01400004004000
:101800000008004000340140004001400700010092
:1018100070B5044690F83C000025012814D001263C
:1018200084F83C60022084F83D0022689068364BC2
:10183000184020F47F409060086870282ED010DC9B
:1018400010F00F0F03D021E04FF0020070BD4FEAFF
:101850002012072A1AD2DFE802F0525252524A38B6
:1018600040002A4BC21A984249D009DCB0F5805F8B
:101870000DD0B0F5005F1CD0B0F1101F06D13EE0D6
:10188000102A3CD0202A3AD0502A38D0012584F89A
:101890003D60002084F83C00284670BDCB68D1E94B
:1018A0000121206800F0DAFF2068816841F07701AB
:1018B00009E0CB68D1E90121206800F0CFFF206862
:1018C000816841F480418160E1E7CA684968206825
:1018D00001F078F95021206806E0CA68496820685C
:1018E00001F09EF96021206800F0C2FFCFE7CA68CE
:1018F0004968206801F066F940212068F4E7226811
:1019000001461046F0E7000088FFCEFF20001000DF
:1019100070472DE9F04104460068C66805694FF03C
:101920000007A90713D5B10711D5F91E01610120E0
:101930002077206880698007204602D0FFF7E8FF03
:1019400004E000F001F9204600F0D6F92777680797
:1019500016D5700714D521686FF0040008610220C5
:1019600020772068806910F4407F204602D0FFF77E
:10197000CFFF04E000F0E8F8204600F0BDF927773B
:10198000280715D5300713D521686FF008000861C6
:10199000042020772068C0698007204602D0FFF726
:1019A000B7FF04E000F0D0F8204600F0A5F9277753
:1019B000E80616D5F00614D521686FF0100008610E
:1019C000082020772068C06910F4407F204602D0AC
:1019D000FFF79EFF04E000F0B7F8204600F08CF916
:1019E0002777E80708D0F00706D021686FF00100DC
:1019F0000861204600F058FA280601D4A80408D54A
:101A0000300606D521686FF4025008612046FFF7C2
:101A100040FDE80508D5300606D521686FF48070D2
:101A200008612046FFF734FD680608D5700606D524
:101A300021686FF040000861204600F03CFAA806DB
:101A400008D5B00606D521686FF020000861204651
:101A5000FFF720FDE80208D5F00206D521686FF4F3
:101A6000801008612046FFF766FDA80208D5B00285
:101A700006D521686FF4001008612046FFF75AFD73
:101A8000680208D5700206D521686FF480000861ED
:101A90002046FFF751FD28020AD5300208D52168FB
:101AA0006FF4000008612046BDE8F041FFF726BE54
:101AB000BDE8F081F0B587B0044614216846FEF712
:101AC00072FC1E492068884236D11D48C16C41F025
:101AD0000201C164C16C01F002010591C16C41F0C9
:101AE0000101C164C06C022500F0010005904FF4B3
:101AF000005000900024CDE901540626114FCDE995
:101B0000034669463846FEF7F7FDA8030090CDE985
:101B100001540420CDE9034069463846FEF7ECFD48
:101B20004FF4B8500090CDE90154CDE90346694621
:101B30004FF09040FEF7E0FD07B0F0BD002C0140F3
:101B40000010024000040048704770B5044690F849
:101B50003C0000260D4601280BD0012084F83C00F3
:101B60000C2A4AD007DC82B1042A20D0082A06D1E8
:101B700031E0022070BD102A53D0142A63D0012610
:101B8000002084F83C00304670BD206800F07AFEEA
:101B90002068816941F0080181612068816921F034
:101BA00004018161206881692A69114311E020687C
:101BB00000F0BAFE2068816941F40061816120680B
:101BC000816921F480618161206881692A6941EA23
:101BD00002218161D4E7206800F0F0FE2068C1692D
:101BE00041F00801C1612068C16921F00401C161AF
:101BF0002068C1692A69114311E0206800F028FFBC
:101C00002068C16941F40061C1612068C16921F4A3
:101C10008061C1612068C1692A6941EA0221C1610C
:101C2000AEE7206800F05EFF2068016D41F008011A
:101C300001652068016D21F0040101652068016DD6
:101C40002A69114311E0206800F084FF2068016DCB
:101C500041F4006101652068016D21F48061016536
:101C60002068016D2A6941EA0221016588E710B503
:101C7000040003D094F83D0010B107E0012010BD2E
:101C8000002084F83C00204600F022F8022084F86E
:101C90003D00211D206800F06BFD012084F8480004
:101CA00084F83E0084F83F0084F8400084F8410046
:101CB00084F8420084F8430084F8440084F8450026
:101CC00084F8460084F8470084F83D00002010BDE9
:101CD00008B500680649884208D10648016E41F4FB
:101CE00000610166006E00F40060009008BD000015
:101CF000002C0140001002407047000030B504463F
:101D0000022269B1042912D0082917D00C291CD04D
:101D1000102921D094F84300012824D0012030BD9F
:101D200094F83E000128F9D184F83E201DE094F893
:101D30003F000128F2D184F83F2016E094F84000DB
:101D40000128EBD184F840200FE094F841000128ED
:101D5000E4D184F8412008E094F842000128DDD164
:101D600084F8422001E084F843200122206800F03A
:101D70005BFD194B20681949194A984209D08842DD
:101D800007D0904205D0174DA84202D0164DA84268
:101D900003D1456C45F400454564206898420CD059
:101DA000B0F1804F09D0114B984206D0104B9842A9
:101DB00003D0884201D0904207D181680D4A11407A
:101DC000062906D0B1F5803F03D0016841F001013A
:101DD0000160002030BD0000002C014000340140B3
:101DE0000040014000440140004801400004004020
:101DF000000800400700010030B504460D460068A9
:101E0000002200F011FD2349214B20688A119842DD
:101E10000BD0214B984208D0204B984205D0204B44
:101E2000984202D01F4B984209D1036A0B4206D157
:101E3000036A134203D1436C23F4004343642068D4
:101E4000036A0B4206D1016A114203D1016821F0F5
:101E50000101016001205DB1042D0CD0082D0DD0D1
:101E60000C2D0ED0102D0FD084F84300002030BD73
:101E700084F83E00FAE784F83F00F7E784F8400072
:101E8000F4E784F84100F1E784F84200EEE700004F
:101E9000002C0140111111000034014000400140AC
:101EA00000440140004801400068B0F1804F01D17A
:101EB000FEF76EBB7047704790F88410012918D068
:101EC000012180F884102421C0F8881001680A6874
:101ED0000B6823F001030B6022F0005100224266E0
:101EE000036819602021C0F8881080F8842010460B
:101EF0007047022070477047704770B5044690F8ED
:101F0000840001281DD0012084F884002420C4F816
:101F1000880020680568026822F0010202602068DB
:101F2000826822F060620A438260204600F098FED8
:101F3000206805602020C4F88800002084F8840010
:101F400070BD022070BD70B5044690F88400012871
:101F50001DD0012084F884002420C4F88800206863
:101F60000568026822F0010202602068826822F09F
:101F700060420A438260204600F072FE20680560DD
:101F80002020C4F88800002084F8840070BD02205E
:101F900070BD7047704770472DE9F04103680446F3
:101FA000D86919689A6840F60F0528424FF0000575
:101FB0004FF002060AD187067ED501F0200702F015
:101FC000805C57EA0C0777D0616F42E1B64FDFF8CB
:101FD000DCC2174001EA0C0C57EA0C0C6CD05FEA2B
:101FE000C07C0CD05FEAC15C09D54FF0010CC3F88E
:101FF00020C0D4F8903043F00103C4F89030830738
:1020000009D5D30707D023681E62D4F8903043F077
:102010000403C4F8903043070AD5D30708D02668D4
:1020200004233362D4F8903043F00203C4F89030B4
:1020300003070CD501F020033B4308D02668082392
:102040003362D4F8903043F00803C4F890300305AD
:102050000BD54B0109D526684FF400633362D4F8E1
:10206000903043F02003C4F89030D4F89030002B27
:102070003DD0800609D501F0200002F080510843D0
:1020800003D0616F09B120468847D4F890002168D9
:102090008968490602D410F0280F2AD0204600F0A3
:1020A000C1FE2068806840061ED52068083050E8D0
:1020B000001F21F0400100E021E040E80012002A6A
:1020C000F3D1D4F8800078B179498163D4F88000E5
:1020D000FEF7C4FA00280AD0D4F88000816B00E033
:1020E0002046BDE8F04108472046FFF754FFBDE811
:1020F000F0812046FFF74FFFC4F89050F7E7D4F87F
:102100006CC02027BCF1010F7ED15FEAC06C7BD58B
:102110005FEAC16C78D5102018622068806840069C
:1021200051D5D4F880100A6850680004000C3ED0E5
:10213000B4F85C3083423AD9A4F85E0008680068BD
:1021400080062CD4216851E8000F20F4807041E80B
:102150000002002AF6D12068083050E8001F21F064
:10216000010140E80012002AF5D12068083050E84B
:10217000001F21F0400140E80012002AF5D1C4F808
:102180008C70E566216851E8000F20F0100041E8EE
:102190000002002AF6D1D4F88000FEF727FA26675D
:1021A000B4F85C00B4F85E10401A81B207E0B4F8ED
:1021B0005C1081429BD11068800698D52667204626
:1021C000FFF799FE93E7B4F85C00B4F85E10401A8C
:1021D00081B2B4F85E00002889D0002987D0226837
:1021E00052E8000F20F4907042E80003002BF6D173
:1021F0002D4BDB432068083050E8002F1A4040E8A0
:10220000002CBCF1000F00E00EE0F3D1C4F88C709C
:10221000E5666567206850E8002F22F0100240E86C
:102220000023002BF6D1C9E7C60209D5560207D50F
:102230004FF4801018622046BDE8F041FFF7AABEB7
:1022400003060AD501F0800302F40002134304D010
:10225000A16F00297FF444AF49E7420611D54A0631
:102260000FD52046016851E8002F22F0400241E8D6
:102270000023002BF6D1C0F88870856700F094F831
:1022800035E7020206D54A0004D52046BDE8F041F4
:10229000FFF77FBEC00195D5002993DA2046BDE83F
:1022A000F041FFF729BE00000100001020010004EA
:1022B000192E000810B5040003D0D4F8880010B11E
:1022C00007E0012010BD002084F88400204600F0C3
:1022D00027F82420C4F888002068016821F0010153
:1022E0000160A06A10B1204600F0DCFC204600F03E
:1022F000C3FD0128E6D02068416821F49041416087
:102300002068816821F02A0181602068016841F01D
:10231000010101602046BDE8104000F027BD00002B
:1023200030B597B00446142111A8FEF73CF84421BB
:102330006846FEF738F81A49206888422ED10225EF
:102340000024684600950294FEF700FC08B1FEF7F1
:102350004BF91448816D41F400318165816D01F4C0
:1023600000311691C16C41F00101C164C06CCDE92E
:10237000125400F0010016900C2011900720CDE9B6
:10238000144011A94FF09040FEF7B6F90022114613
:102390002620FEF743FB2620FEF732FB17B030BDA8
:1023A00000440040001002407047FEE770B5274C23
:1023B00004212046FEF7BAFA012808D11420FEF7BE
:1023C00089F904212046FEF7B1FA012807D0204CF4
:1023D00040212046FEF7AAFA012808D010E0042187
:1023E0002046FEF7A3FA0128F9D0012070BD142081
:1023F000FEF770F940212046FEF798FA012809D02F
:10240000144D4FF4007421462846FEF78FFA012838
:1024100008D010E040212046FEF788FA0128F9D0C4
:10242000022070BD1420FEF755F921462846FEF71C
:102430007DFA012801D0002070BD21462846FEF714
:1024400075FA0128F9D0032070BD0000000C004887
:102450000004004800080048F0B587B01421684621
:10246000FDF7A1FF3148C16C41F00401C164C16CAA
:1024700001F004010591C16C41F02001C164C16CFF
:1024800001F020010591C16C41F00101C164C16CF2
:1024900001F001010591C16C41F00201C164C16C00
:1024A00001F002010591C16C41F00801C164C06CEA
:1024B000012200F008001E4E94030590214630468C
:1024C000FEF741FA1B4F012220213846FEF73BFA66
:1024D0000125CDE900450024029469463046039465
:1024E000FEF70AF96802CDE9000469463046029415
:1024F000FEF702F90420CDE9000469460E48029473
:10250000FEF7FAF820200090CDE9015469463846DC
:102510000394FEF7F1F84020CDE9000469463846FF
:102520000294FEF7E9F807B0F0BD00000010024089
:102530000008004800040048000C004810B598B09E
:102540000024149415941C210DA81694FDF72BFF5C
:1025500034216846FDF727FF2C482B490160632191
:10256000C0E901145421C0E903148021C0E90541E8
:10257000FFF77DFB08B1FEF737F81494159414A902
:1025800022481694FEF7DAFF08B1FEF72DF8602016
:10259000CDE90D040F9410941194129400220DA90A
:1025A0001A481394FFF7D1FA08B1FEF71DF8042278
:1025B0000DA91648FFF7C9FA08B1FEF715F8082269
:1025C0000DA91248FFF7C1FA08B1FEF70DF8052072
:1025D000CDE9024000944FF40050CDE904400003DF
:1025E000CDE908400194069407940A940B94694637
:1025F00006480C94FEF750FF08B1FDF7F5FF0348BD
:10260000FFF758FA18B010BD002C01402800002038
:1026100010B588B0002417480094019402940394E4
:10262000049405944FF0804106940160A921C0E90B
:10263000011440F2E731C0E903148461FFF75FF849
:1026400008B1FDF7D1FF4FF480500090694609486A
:10265000FFF7DEF808B1FDF7C7FF049404A90548A9
:102660000694FEF76BFF002801D0FDF7BDFF08B010
:1026700010BD000074000020184810B51649016014
:102680004FF4E1314160002181600C22C160C0E95A
:1026900004128161C161016241628162FFF70AFE39
:1026A00008B1FDF7A1FF00210C48FFF74CFC08B171
:1026B000FDF79AFF00210948FFF71FFC08B1FDF75D
:1026C00093FF0648FFF7F8FB002803D0BDE8104051
:1026D000FDF78ABF10BD000000440040C00000208C
:1026E000FEE7FEE770477047FEF738B910B594B0C3
:1026F00038216846FDF757FE14210EA8FDF753FE5A
:102700000020FEF7BDF90120009000040190022096
:102710000324CDE907045521CDE909010B900C9064
:102720000D906846FEF79EFC08B172B6FEE70F20DA
:10273000CDE90E04002010904FF4806011901290AB
:1027400004210EA8FEF746FB002801D072B6FEE772
:1027500014B010BD0248016841F470010160704777
:1027600088ED00E00148FFF7D4B8000074000020B5
:102770002DE9F0430268254B254D264E264C4FF09F
:102780008049984207D0484505D0A84203D0B042BE
:1027900001D0A04203D122F070074A683A431F4F8C
:1027A000DFF87CC0DFF87C8098420DD048450BD024
:1027B000A84209D0B04207D0A04205D0B84203D009
:1027C000604501D0404503D122F44075CA682A43D0
:1027D0004D6922F080022A438D68C5620D688562CA
:1027E000984207D0A04205D0B84203D0604501D03E
:1027F000404501D109690163016841F004010160AC
:10280000012141610260BDE8F0830000002C01401D
:102810000004004000080040003401400040014036
:10282000004401400048014010B501F01F030121A0
:10283000046A99408C430462016A9A401143016220
:1028400010BD10B501F00F030421046A99408C43B8
:102850000462016A9A401143016210BD10B5846898
:1028600042EA032224F47F440A432243826010BDDB
:102870008268034B1A400A4342F0070181607047A7
:102880008FFFCFFF2DE9F043056A026A22F00102B3
:102890000262436882691E4C25F0020522400C68E2
:1028A00022F0030214438A681B4E2A43194D1B4F22
:1028B000DFF86CC0DFF86C90A84207D0B04205D0BA
:1028C000B84203D0604501D048450AD1D0F82080F5
:1028D00028F00408C0F8208022F00808CA6842EAFC
:1028E0000802A84207D0B04205D0B84203D06045E4
:1028F00001D0484505D14D6923F440731D438B69D0
:102900002B4343608461496841630262BDE8F08300
:102910008FFFFEFF002C01400034014000400140C9
:102920000044014000480140F0B5056A026A22F007
:1029300010020262426883691A4C1C4E23400C68E4
:1029400023F4407343EA042425F020038D6843EA0E
:102950000513154DA84201D0B04208D1076A27F0EF
:1029600040070762CF6823F0800343EA0713A842B9
:102970000AD0B04208D00E4DA84205D00D4DA84255
:1029800002D00D4DA84207D14D6922F4406242EABF
:1029900085028D6942EA85024260846149688163EB
:1029A0000362F0BDFF8FFFFE002C014000340140A8
:1029B000004001400044014000480140F0B5056A74
:1029C000026A22F4807202624268C3691A4C1C4E89
:1029D00023400C6823F003031C4325F400738D6827
:1029E00043EA0523154DA84201D0B04208D1076A39
:1029F00027F480670762CF6823F4006343EA072364
:102A0000A8420AD0B04208D00E4DA84205D00E4DC3
:102A1000A84202D00D4DA84207D14D6922F4405280
:102A200042EA05128D6942EA05124260C4614968B2
:102A3000C1630362F0BD00008FFFFEFF002C014068
:102A40000034014000400140004401400048014082
:102A5000F0B5056A026A22F4805202624268C369D4
:102A60001A4C1C4E23400C6823F4407343EA0424A0
:102A700025F400538D6843EA0533154DA84201D073
:102A8000B04208D1076A27F480470762CF6823F471
:102A9000004343EA0733A8420AD0B04208D00E4DA3
:102AA000A84205D00D4DA84202D00D4DA84207D135
:102AB0004D6922F4404242EA85128D6942EA85124C
:102AC0004260C461496801640362F0BDFF8FFFFE8C
:102AD000002C01400034014000400140004401400E
:102AE0000048014030B5056A026A22F48032026271
:102AF0004268036D114C23400C681C4325F40033DD
:102B00000D8943EA05430E4DA8420BD00D4DA84256
:102B100008D00D4DA84205D00C4DA84202D00C4D56
:102B2000A84204D14D6922F4803242EA0522426073
:102B3000046549688164036230BD00008FFFFEFFB9
:102B4000002C01400034014000400140004401409D
:102B50000048014030B5046A026A22F48012026221
:102B60004268036D114D24F400142B400D6843EAB4
:102B700005230D8944EA05540D4DA8420BD00D4D97
:102B8000A84208D00C4DA84205D00C4DA84202D056
:102B90000B4DA84204D14D6922F4802242EA8522DD
:102BA000426003654968C164046230BDFF8FFFFE67
:102BB000002C01400034014000400140004401402D
:102BC0000048014010B5036A046A24F0010404625D
:102BD0000E4CA0420BD00E4CA04208D00D4CA0428F
:102BE00005D00D4CA04202D00C4CA04203D1046A87
:102BF00024F004040462846924F0F00444EA02141A
:102C000023F00A020A438461026210BD002C0140D5
:102C100000340140004001400044014000480140B0
:102C200010B5036A046A24F0100404620A4CA0423E
:102C300002D00A4CA04203D1046A24F0400404628A
:102C4000846923F0A00324F4704444EA023243EA86
:102C500001118261016210BD002C0140003401406D
:102C600030B5416EB9B1026891689268C1F34261B2
:102C70000B4B520F9C5CE50003F10804A25CB5FB12
:102C8000F2F2A0F86A205A5C615CD200B2FBF1F16A
:102C9000A0F8681030BD0121A0F86A10F8E7000024
:102CA0009A32000890F82810090706D501684A688A
:102CB000836B22F400421A434A6090F82810C90737
:102CC00006D001684A68C36A22F400321A434A6097
:102CD00090F82810890706D501684A68036B22F42A
:102CE00080321A434A6090F82810490706D50168D7
:102CF0004A68436B22F480221A434A6090F82810F5
:102D0000C90606D501688A68C36B22F480521A434B
:102D10008A6090F82810890606D501688A68036CD5
:102D200022F400521A438A6090F82810490611D5FF
:102D300001684A68436C22F480121A434A60416C6D
:102D4000B1F5801F06D101684A68836C22F4C00285
:102D50001A434A6090F82810090606D501684A68A7
:102D6000C06C22F4002202434A6070472DE9F84308
:102D700000260446C0F89060FDF7EAFD8046206812
:102D800000684FF0200500076FF07E4713D54346DB
:102D9000002229042046009700F0A8F958B12168C4
:102DA00051E8000F20F0800041E80002002AF6D12F
:102DB000C4F8885021E020680068400722D54346C7
:102DC00000224FF480012046009700F08FF9C8B12F
:102DD000216851E8000F20F4907041E80002002AB9
:102DE000F6D12068083050E8001F21F0010140E8CA
:102DF0000012002AF5D1C4F88C5084F884600320B6
:102E0000BDE8F883C4F88850C4F88C5044F86C6F5F
:102E1000666026760020F3E710B5806AFFF7BBF8FE
:102E200010BD000010B5026852E8001F21F4907137
:102E300042E80013002BF6D10E4B0268083252E82C
:102E4000001F194042E80014002CF6D1C16E012980
:102E500008D1016851E8002F22F0100241E8002358
:102E6000002BF6D12021C0F88C100021C1664167EB
:102E700010BD0000FEFFFFEF2DE9F04104460168A0
:102E800080682269E3691043626900251A43104390
:102E9000DFF82CC20A688B4B1A4002430A60206894
:102EA0004168E26821F44051114341602168A06902
:102EB000614501D0226A10438A68834B1A4002435D
:102EC0008A602068C16A626A21F00F011143C16201
:102ED0007E4923687E488B420DD1D0F8880010F0DF
:102EE000030006D0012855D0022842D003283FD144
:102EF00052E001203DE077498B420BD1D0F88800A9
:102F000010F00C0035D0042833D0082840D00C280D
:102F10002ED141E070498B420BD1D0F8880010F0DF
:102F2000300026D0102835D0202831D030281FD1AD
:102F300032E06A498B420BD1D0F8880010F0C00013
:102F400017D0402826D0802822D0C02810D123E0D6
:102F500063450DD1D0F8880010F4406009D0B0F579
:102F6000806F17D0B0F5006F12D0B0F5406F13D05E
:102F700010205B495B4F00264FF4004263453BD174
:102F800060B1022813D004280BD0082872D10DE0BC
:102F90000220EEE70420ECE70820EAE7FEF708F855
:102FA00001E0FEF729F8010001D17CE01146606ADA
:102FB00037F810206768B1FBF2F007EB4703834254
:102FC00070D8B0EB073F6DD8002308461946FDF7CF
:102FD00073F9090241EA1061020278081018714180
:102FE0003A460023FDF768F93F4AA0F54071914247
:102FF00058D82168C86056E0E3694FF6EF789342ED
:103000002CD109284ED2DFE800F00508114D0D4DF6
:103010004D4D1000FDF7CCFF01E0FDF7DBFF010097
:1030200004D140E0FDF7E8FFF9E71146606A37F8A0
:103030001000B1FBF0F04100606801EB5001B1FB02
:10304000F0F0A0F1100141452CD84FF6F07101408D
:10305000C0F3420001432068C16024E0092821D266
:10306000DFE800F0050912200E2020201100FDF7F6
:103070009FFF02E016E0FDF7ADFF010004D112E072
:10308000FDF7BAFFF9E71146606A37F81000B1FBA7
:10309000F0F1606801EB5001B1FBF0F0A0F110011C
:1030A00041450AD901250120A4F86A0024F8680FD7
:1030B0002846E6602661BDE8F08180B299E700000D
:1030C00000800040F369FFCFFFF4FF11003801409A
:1030D000001002400044004000480040004C004006
:1030E0000024F40082320008FFFC0F002DE9F047B5
:1030F000994617460D4604464FF00008089E33E0F7
:10310000701C31D0FDF724FCA0EB0900B04218D8A8
:10311000BEB120680168490726D5802D24D0402DF6
:1031200022D0C169C94309070DD40825056220468C
:10313000FFF778FEC4F8905084F884800120BDE841
:10314000F0870320FBE7C069C04300050CD4216869
:103150004FF4006008622046FFF764FE2020C4F8A8
:10316000900084F88480ECE72068C06935EA0000AC
:1031700004D00020B842C3D00020E0E70120F9E7E6
:103180000148FEF709BF0000C0000020FEE7090764
:10319000090E002804DB00F1E02080F800147047DD
:1031A00000F00F0000F1E02080F8141D70470000CF
:1031B000FDF7DCFBFFF79AFAFFF74EF9FFF75CFA31
:1031C000FFF7BCF9FFF724FA2648FDF787F92648F0
:1031D000FEF7E2FA254D264F264C4FF4804600BFFD
:1031E000FFF7E4F8012804D0022808D0032811D101
:1031F00024E020212846FDF79EFB002004E0314614
:103200003846FDF798FB0120FDF7B2F95FF00100A9
:10321000FDF7B4F920780028E2D0FDF799FB61684A
:10322000411AB1F5FA7FDBD3606020212846FDF713
:1032300082FB31463846FDF77EFBD1E7207818B196
:103240000020207010B10BE00120FAE700222021BD
:103250002846FDF778FB002231463846FDF773FB20
:103260000220D5E728000020740000200004004858
:1032700000080048000000204FF04070E1EE100A06
:103280007047010002000400060008000A000C005C
:10329000100020004000800000010101010307012F
:1032A0000000080402040801010100000000000001
:1032B00000000102030406070809000000000102E3
:1032C00003040100000100000100000000010000F3
:1032D00001000001000101000000000100000100E8
:1032E0000000000101000000083300080000002079
:1032F00028000000140200083033000828000020D5
:1033000090070000300200080000000000000000EC
:103310001000000001000000000000000024F40084
:10332000000000003200000000000000000000006B
:04000005080001D915
:00000001FF
