:020000040800F2
:10000000C80700207902000877270008EB240008C1
:1000100075270008C1050008213200080000000013
:100020000000000000000000000000007B27000826
:10003000C305000800000000792700087D2700089C
:10004000930200089302000893020008930200083C
:10005000930200089302000893020008930200082C
:10006000930200089302000893020008930200081C
:10007000930200089302000893020008930200080C
:100080009302000800000000930200089302000899
:1000900093020008930200089302000893020008EC
:1000A00093020008930200089302000893020008DC
:1000B000F927000893020008930200089302000841
:1000C00093020008930200089302000893020008BC
:1000D00093020008930200081532000893020008FA
:1000E000930200089302000893020008930200089C
:1000F0009302000893020008930200080000000029
:1001000000000000930200080000000093020008B5
:100110009302000800000000930200089302000808
:10012000930200089302000893020008930200085B
:100130009302000800000000000000009302000885
:100140009302000893020008000000000000000075
:10015000000000000000000000000000000000009F
:1001600000000000000000000000000093020008F2
:1001700093020008000000000000000000000000E2
:1001800000000000930200080000000000000000D2
:10019000000000000000000000000000000000005F
:1001A0000000000000000000930200089302000815
:1001B0009302000893020008930200080000000068
:1001C0000000000093020008000000000000000092
:1001D000930200089302000800F002F800F03CF8D7
:1001E0000AA090E8000C82448344AAF10107DA4592
:1001F00001D100F031F8AFF2090EBAE80F0013F0A8
:10020000010F18BFFB1A43F0010318479C4B000075
:10021000BC4B0000103A24BF78C878C1FAD8520706
:1002200024BF30C830C144BF04680C607047000070
:100230000023002400250026103A28BF78C1FBD8EF
:10024000520728BF30C148BF0B6070471FB504F08C
:1002500062FC1FBD10B510BD00F0E2F81146FFF7BB
:10026000F5FF03F065FE00F000F903B4FFF7F2FFBD
:1002700003BC00F003F90000094880470948004723
:10028000FEE7FEE7FEE7FEE7FEE7FEE7FEE7FEE746
:10029000FEE7FEE704480549054A064B70470000A3
:1002A000E9270008D9010008C8010020C80700207C
:1002B000C8030020C803002053EA020C00F0698044
:1002C0002DE9F04B4FF00006002B1FBFB3FA83F56A
:1002D00003FA05F424FA05F65E4012BF1643B2FA9B
:1002E00082F502FA05F4C5F120051EBF22FA05FCCD
:1002F00044EA0C04203556EA044C4FEA144418BF73
:10030000641C4FF000084FF00009904271EB030CA1
:1003100039D3002919BFB1FA81F701FA07F6B0FA0B
:1003200080F700FA07F6C7F120071EBF20FA07FC86
:1003300046EA0C062037B6FBF4FCA7EB0507103F96
:1003400007F01F0BCBF120060CFA0BFB2CFA06F67C
:1003500044BFB3460026202FA4BF5E464FF0000BDB
:100360005BEA060C08BF4FF0010B19EB0B09ABFB66
:10037000027C48EB0608C01B06FB02CC0BFB03CC3F
:1003800071EB0C01C1E70B46024641464846BDE809
:10039000F08B13B54FF000004FF00001AFF3008079
:1003A000BDE81C4070474FF0000200B5134694466C
:1003B0009646203922BFA0E80C50A0E80C50B1F1BD
:1003C0002001BFF4F7AF090728BFA0E80C5048BFD1
:1003D0000CC05DF804EB890028BF40F8042B08BF6F
:1003E000704748BF20F8022B11F0804F18BF00F86B
:1003F000012B704770477047704710B500F008F840
:10040000006810BD10B5044600F002F8046010BD8D
:1004100000487047640100200048704764010020D4
:100420007546FFF7F9FFAE4605006946534620F0D2
:100430000700854618B020B5FFF72CFFBDE8204027
:100440004FF000064FF000074FF000084FF0000B90
:1004500021F00701AC46ACE8C009ACE8C009ACE843
:10046000C009ACE8C0098D46704710B50446AFF32B
:1004700000802046BDE81040FFF7F7BE0149182074
:10048000ABBEFEE7260002007047000010B50F4C1F
:10049000E068002818D0002101F04EFD0421E0683A
:1004A00001F04AFD0821E06801F046FD0021E06806
:1004B00001F0CAF90421E06801F0C6F9E068BDE87E
:1004C0001040082101F0C0B910BD00002800002034
:1004D000084806220146037889784BB111F10501DD
:1004E000B1FBF2F302FB13118170C8B200F004B843
:1004F000491CF5E72800002070B51A4CE068002878
:100500002ED0FFF7C3FFE16832200A6850630A6803
:1005100090630968C863144E0025A07800EB400082
:1005200006EB4000405DB8B1062D15D2DFE805F0BE
:10053000030C050E0710002102E0042100E0082151
:10054000E06801F07BFC07E0002102E0042100E00C
:100550000821E06801F01CF96D1CEDB2062DDCD31A
:1005600070BD0000280000205E4C000870B5134CE0
:10057000617831B1204600258068012905D0022923
:1005800011D0BDE87040FFF781BF08B9FFF7A0FFA9
:10059000A068401CA0606168884203D3A560FFF793
:1005A00075FF657070BD401CA06061688842F9D31A
:1005B000A560BDE87040FFF78BBF00002800002059
:1005C000FEE7704772B6FEE710B500210C4801F057
:1005D00035FC04210A4801F031FC0821084801F0EB
:1005E0002DFC0021064801F0D3F80421044801F055
:1005F000CFF8BDE810400821014801F0C9B800005B
:10060000380000202E484FF07E5190ED012AC0EEB8
:10061000021A80EE820A11EE900A8842C1EE020AA6
:100620009FED281A02DDF7EE001A06E0F5EEC01A7B
:10063000F1EE10FA01D2F0EE411A10EE100A8842E3
:1006400002DDB7EE000A06E0B5EEC00AF1EE10FAE0
:1006500001D2B0EE410A10EE900A884202DDF7EEB8
:10066000000A06E0F5EEC00AF1EE10FA01D2F0EE53
:10067000410A15490A68D06A01EE100AB8EE411A1B
:1006800021EE811ABCEEC11A11EE103A536301EE4D
:10069000100A0B68B8EE411A20EE010ABCEEC00A3F
:1006A00010EE102A9A6300EE100A0968B8EE400AAC
:1006B00020EE800ABCEEC00A10EE100AC863704734
:1006C0001C000020000000003800002000B52DEDC7
:1006D000028BB0EE408A85B0F0EE608AB0EE410A3F
:1006E00003F03AFCB0EE401A04A903A8F0EE480A61
:1006F000B0EE680A03F0ACFB02AA01A96846DDED82
:10070000040A9DED030A03F03FFB1048F6EE000AD1
:1007100090ED010A20EE200ADDED000A70EE801A4D
:10072000CDED001ADDED010A70EE800ACDED010A73
:100730009DED021A31EE001AB0EE610A8DED021A3B
:10074000FFF760FF05B0BDEC028B00BD1C00002070
:1007500010B52DED028BB0EE408A00F0D5F91D4C9E
:10076000A168411A00EE101AF8EE400A9FED1A0A2D
:1007700060EE800AF5EEC00AF1EE10FA04D910EE30
:10078000901AB1F17C5F01DDF0EE400AA06094EDBB
:10079000000A08EE200A84ED000A03F0DDFB0D4894
:1007A00084ED000A0C30D0ED000A20EE800A84EDC2
:1007B000010A03F0D1FB84ED010AB0EE401ABDEC52
:1007C000028BB0EE000ABDE81040DFED040AFFF72F
:1007D0007DBF0000100000206F12833A000000006F
:1007E00010B5002140B190F825300122022B05D030
:1007F0000421C163012124E0012010BD03681C68AD
:1008000024F001041C6003681C6824F00E041C60C2
:10081000836C1C6824F480741C6090F84430046C71
:1008200003F01F0302FA03F36360D0E913345C6042
:10083000436D33B11C6824F480741C60D0E9163415
:100840005C6080F82520002280F82420084610BD36
:1008500070B590F82520002401212346022A07D0F4
:100860000422C26380F8251080F82430012429E096
:100870000268156825F0010515600268156825F005
:100880000E051560826C156825F48075156090F86A
:100890004420056C02F01F0201FA02F26A60D0E9FE
:1008A00013255560426D32B1156825F480751560C9
:1008B000D0E91625556080F8251080F82430816B2A
:1008C00001B18847204670BD2DE9F04FDFF80C924A
:1008D000002301260325A9F1040B85B00F2709F198
:1008E000040AABF1040EF1E006FA03FC12EA0C0272
:1008F0007ED00C7904F00304012C01D0022C20D10D
:10090000846800945C0005FA04F80494009C24EACE
:1009100008040094D1F80C80049C08FA04F8009CA8
:1009200048EA0408C0F80880446824EA0C0491F8F6
:1009300004C0CCF3001C0CFA03FC4CEA040CC0F815
:1009400004C00C79E443A40702D18C68012C0ED0BA
:10095000C4684FEA430805FA08FC24EA0C04D1F8FD
:1009600008C00CFA08FC4CEA040CC0F80CC00C7966
:1009700004F00304022C16D1DC0800EB840CCDF843
:1009800008C0DCF820C05C074FEAD46807FA08F416
:100990002CEA040C0C6904FA08F444EA0C04DDF8AF
:1009A00008C0CCF8204004684FEA430805FA08FC68
:1009B00024EA0C0491F804C00CF0030C0CFA08FCB7
:1009C0004CEA040CC0F800C04C6814F4403F7CD0E2
:1009D000434CD4F860C04CF0010CC4F860C0246EE5
:1009E00023F0030C04F0010400943E4C644400E046
:1009F0006BE00294A4684FEA837C4FEA1C7807FA04
:100A000008FC24EA0C04B0F1904F06D0DFF8D8C0FF
:100A1000604505D14FF0010C20E04FF0000C1DE0C7
:100A2000DFF8C8C0604502D14FF0020C16E0DFF8D5
:100A3000C0C0604502D14FF0030C0FE0DFF8B4C036
:100A4000604502D14FF0040C08E0DFF8ACC060450F
:100A500002D14FF0050C01E04FF0060C0CFA08FC37
:100A60004CEA040C029CC4F808C0D9F80040CC46FB
:100A7000D1F8048094435FEAC82800D51443CCF829
:100A80000040DAF80040D446D1F8048094435FEA8D
:100A9000882800D51443CCF80040DBF80040DC4641
:100AA000D1F8048094435FEA883800D51443CCF829
:100AB0000040DEF80040F446D1F8048094435FEA39
:100AC000C83800D51443CCF800405B1C0C682246A3
:100AD000DC407FF409AF05B0BDE8F08F08040140A9
:100AE00000100240000001400004004800080048D7
:100AF000000C004800100048001400480AB1816151
:100B000070478162704700000148806870470000AC
:100B100000000020024881684268114481607047EB
:100B20000000002010B50024032000F073F80F200F
:100B300000F008F808B1012401E000F025F8204693
:100B400010BD000070B50E4E05460024706898B1C7
:100B50004FF47A71B1FBF0F00A490968B1FBF0F08B
:100B600000F05EFD40B9102D06D200222946501E2D
:100B700000F030F8356000E00124204670BD000030
:100B8000000000200C0000200A4882B0016E41F0F5
:100B900001010166016E01F001010091816D41F0DA
:100BA00080518165806D00F08050009002B000F0AF
:100BB000A1B8000000100240002809DB00F01F026D
:100BC000012191404009800000F1E020C0F80011AF
:100BD00070470000F0B40E4B1B680C46C3F30223B1
:100BE000C3F10705042D00D90425191D072901D2D9
:100BF000002300E0DB1E012606FA05F1491E214014
:100C000099409E40761E16403143F0BC02F021BB55
:100C10000CED00E0064900F0070208684FF6FF03FC
:100C2000184040EA0220034A104308607047000061
:100C30000CED00E00000FA052B492C4B0A6832212C
:100C40004A432B4940B1B0F5007F086829D020F411
:100C5000C06040F480602CE00868C0F341200228A6
:100C600004D051F8800F20F4807022E0D1F8800089
:100C700020F48070C1F88000086820F4C06040F45F
:100C800000700860B2FBF3F0401C00E0401E4A69AF
:100C9000520501D50028F9D1486940050AD503203D
:100CA0007047C0F34120022806D051F8800F40F46D
:100CB0008070086000207047D1F8800040F4807098
:100CC000C1F88000086820F4C06040F4007008603B
:100CD000B2FBF3F0401C00E0401E4A695205DBD530
:100CE0000028F9D1D8E700000C00002040420F0096
:100CF000007000400248816841F480418160704783
:100D0000007000402DE9F8430446006800269D4D20
:100D100000035ED5A86D0027C00008D4A86D40F080
:100D20008050A865A86D012700F080500090DFF882
:100D30005892D9F8001041F48071C9F80010FFF7FB
:100D4000E3FE804606E000BFFFF7DEFEA0EB0800F2
:100D500002282BD8D9F80000C005F5D5D5F89000A9
:100D600010F4407014D0216C814211D0D5F890005D
:100D7000D5F8901020F4407041F48031C5F89010FF
:100D8000D5F8901021F48031C5F89010C5F8900086
:100D9000C00711D0FFF7B8FE804641F2883907E05E
:100DA000FFF7B2FEA0EB0801494501D903260BE08D
:100DB000D5F890008007F3D5D5F89000216C20F489
:100DC00040700843C5F890001FB1A86D20F0805016
:100DD000A8652078C00707D0D5F88800616820F0A2
:100DE00003000843C5F888002078800707D5D5F8A8
:100DF0008800A16820F00C000843C5F8880020781E
:100E0000400707D5D5F88800E16820F03000084396
:100E1000C5F888002078000707D5D5F88800216933
:100E200020F0C0000843C5F888002078800607D568
:100E3000D5F88800616920F440600843C5F888004F
:100E40002078400607D5D5F88800A16920F44050E5
:100E50000843C5F888002078000607D5D5F8880033
:100E6000E16920F440400843C5F888002088C005A7
:100E700007D5D5F88800216A20F440300843C5F82A
:100E800088002088800507D5D5F88800616A20F49D
:100E900040200843C5F88800208840050FD5D5F8C4
:100EA0008800A16A20F440100843C5F88800A06AB1
:100EB000B0F5801F03D1E86840F48010E860208816
:100EC00000050FD5D5F88800E16A20F440000843FA
:100ED000C5F88800E06AB0F5800F03D1E86840F4F7
:100EE0008010E8602088C0040FD5D5F88800216BF9
:100EF00020F040700843C5F88800206BB0F1807F77
:100F000003D1E86840F48010E86020884FF0006169
:100F100080040ED5D5F88800626B20F04060104345
:100F2000C5F88800606B884203D1E86840F48010FF
:100F3000E860208840040ED5D5F88800A26B20F028
:100F400040601043C5F88800A06B884203D1E86870
:100F500040F48010E860208800040FD5D5F88800A0
:100F6000E16B20F040500843C5F88800E06BB0F119
:100F7000805F03D1E86840F48030E8603046BDE827
:100F8000F883000000100240007000402DE9F04797
:100F90000E4605004FF0000725D0DFF8AC81D8F8E9
:100FA000000000F00F00B0420CD2D8F8001021F081
:100FB0000F013143C8F80010D8F8000000F00F000E
:100FC000B04210D12968614CC80741F2883A5AD022
:100FD0006868DFF87C91032808D0022820682DD0AB
:100FE000400500282CDB0120BDE8F0872068800147
:100FF000F9D5E06800F00302E068C0F30310401C7C
:10100000032A19D0534A00BFB2FBF0F0E268C2F3E2
:1010100006225043E268C2F34162521C5200B0FB08
:10102000F2F0484517D9A06810F0F00F0CD08807EF
:1010300011D5A86840B10EE0474AE5E78003D0E744
:1010400000F0B6F8484506D9A06820F0F00040F05E
:101050008000A0608027A068696820F00300084332
:10106000A060FFF751FD814606E000BFFFF74CFD91
:10107000A0EB090151453AD8A068696800F00C005E
:10108000B0EB810FF2D12868810714D5400703D552
:10109000A06840F4E060A0602878000705D5A0684B
:1010A00020F4605040F4E060A060A068A96820F0DF
:1010B000F000084304E0802F03D1A06820F0F00086
:1010C000A060D8F80010404601F00F01B14216D9D7
:1010D000016821F00F0131430160FFF715FD07465C
:1010E00007E000BFFFF710FDC11B514501D90320E8
:1010F0007AE7D8F8000000F00F00B042F2D128786B
:10110000400705D5A068E96820F4E0600843A060C6
:101110002878000706D5A068296920F4605040EAC5
:10112000C100A06000F044F8A1680C4AC1F30311AB
:10113000515C01F01F01C840094908600948006876
:10114000BDE8F047FFF7FEBC00200240001002405F
:1011500000B4C4040024F40000127A00464C0008D5
:101160000C0000200000002005480649006889683E
:10117000054AC1F30221515C01F01F01C8407047CC
:101180000C00002000100240564C0008054806499B
:1011900000688968054AC1F3C221515C01F01F0152
:1011A000C84070470C00002000100240564C000858
:1011B000184910B58868C0F381021748012A0BD07E
:1011C0008A684310C2F38102022A06D08A68C2F3F9
:1011D0008102032A03D0002010BD184610BDCA6842
:1011E00002F00304CA68C2F30312521C032C02D09B
:1011F000B0FBF2F001E0B3FBF2F0CA68C968C2F3D9
:1012000006225043C1F34161491C4900B0FBF1F093
:1012100010BD0000001002400024F4002DE9F84346
:1012200004007AD02078F84DC00747D0A868E96854
:1012300000F00C0001F003010C2802D0082817D0A0
:1012400001E0032914D06068B0F5803F17D0B0F5F5
:10125000A02F286817D020F480302860286820F458
:10126000802028606068E0B1FFF74EFC064614E07D
:101270002868800322D560680028D2D01EE0286844
:1012800040F48030EDE740F480202860F7E700BFAD
:10129000FFF73AFC801B642870D828688003F7D5D4
:1012A0000CE0FFF731FC064605E000BFFFF72CFC21
:1012B000801B6428F0D828688003F7D42078800742
:1012C0004CD5A868E96800F00C0001F003010C2877
:1012D00002D004280DD001E002290AD0E0680028DD
:1012E00028682BD040F480702860FFF70DFC06467C
:1012F00019E02868400502D5E068002891D06868A8
:10130000217C20F0FE4040EA01606860BF48006830
:10131000FFF718FC002800D120E072E1FFF7F4FB92
:10132000801B0228B8D828684005F7D56868217C5A
:1013300020F0FE4040EA016068600FE020F4807019
:101340002860FFF7E1FB064605E000BFFFF7DCFB86
:10135000801B0228A0D828684005F7D42078000711
:1013600029D560690028D5F8940013D040F0010019
:10137000C5F89400FFF7C8FB064606E090E000BF02
:10138000FFF7C2FB801B022886D8D5F8940080079F
:10139000F6D510E020F00100C5F89400FFF7B4FB8B
:1013A000064604E0FFF7B0FB801B022878D8D5F88A
:1013B00094008007F6D42078400761D5A86D0026F8
:1013C000C00008D4A86D40F08050A865A86D012623
:1013D00000F0805000908E480168C90511D4016862
:1013E000804641F480710160FFF78EFB074604E000
:1013F000FFF78AFBC01B022852D8D8F80000C005AE
:10140000F6D5A068012815D00528D5F8900016D08B
:1014100020F00100C5F89000D5F8900020F00400FD
:10142000C5F89000A06841F28838B8B1FFF76CFBAE
:1014300007460EE0D5F8900040F00100F0E740F0DC
:101440000400C5F89000F5E7FFF75EFBC11B4145BE
:1014500026D8D5F890008007F6D50CE0FFF754FBAE
:10146000074604E0FFF750FBC11B414518D8D5F8EB
:1014700090008007F6D41EB1A86D20F08050A865BA
:101480002078800629D5A0690028D5F8980013D0C7
:1014900040F00100C5F89800FFF736FB064606E06D
:1014A00075E000BFFFF730FB801B02286FD8D5F82E
:1014B00098008007F6D510E020F00100C5F89800EC
:1014C000FFF722FB064604E0FFF71EFB801B022805
:1014D0005DD8D5F898008007F6D4E069F0B3A96824
:1014E000C1F3810103295DD00228286820F08070B3
:1014F000286003D0FFF708FB04464BE0FFF704FB2E
:10150000064604E0FFF700FB801B02283FD828684E
:101510008001F7D4F4E908016FF00F0202EB01112A
:101520000843218A5204490802EB4151A26841EA6A
:1015300002210843217D4FF07E42490802EB4161C0
:101540000843217B40EAC160E968324A1140084300
:10155000E860286840F08070286000E05EE0E8689D
:1015600040F08070E860FFF7CFFA044605E000BF66
:10157000FFF7CAFA001B022809D828688001F7D5AE
:101580004CE000BFFFF7C0FA001B022802D903207D
:10159000BDE8F88328688001F4D4E8681E49084053
:1015A000E8603BE00128F3D0E868226A00F003011C
:1015B000914226D1616A00F0F0020901103991428E
:1015C0001FD1A26A00F4FE41B1EB022F19D194F8A9
:1015D0002C2000F07841B1EBC26F12D1218E00F4C3
:1015E000C00249084905A1F50011914209D194F8BA
:1015F000341000F0C06049084906A1F10071814231
:101600000CD00120C4E700000010024000000020C0
:10161000007000400C809F01FCFFEEFE0020B7E749
:1016200010B5401EB0F1807F01D3012010BD4FF0F6
:10163000E02460610F21601701F00BFE0020A06123
:1016400007202061002010BD7047704770470000E0
:1016500030B590F83C20012A42D0012280F83C208D
:10166000CA688B6822F440721A434B6822F4806285
:101670001A430B6822F400621A430B6922F4805269
:101680001A434B6922F400521A430B6B22F4804236
:101690001A430B8B22F4702242EA0342CB6922F0F8
:1016A00080521A430F4D03680024AB4202D00E4D06
:1016B000AB4210D10D8D22F4700242EA05520D6A40
:1016C00022F080722A434D6A22F000722A43C96ACE
:1016D00022F000520A435A6480F83C40002030BD9A
:1016E000022030BD002C014000340140704770479B
:1016F00070470000F0B590F83C20012A3AD001254F
:1017000080F83C50022280F83D2003685A689C68AB
:10171000194E1A4FB34201D0BB4204D122F4700CCF
:101720004A6842EA0C02DFF858C002EA0C02D1F81B
:1017300000C04CEA020CC3F804C00268B2420DD0EB
:10174000B2F1804F0AD00F4B9A4207D00E4B9A420B
:1017500004D0BA4202D00D4B9A4204D1896824F0D9
:1017600080031943916080F83D50002180F83C10BF
:101770000846F0BD0220F0BD002C014000340140BD
:101780008FFFFFFD000400400008004000400140C2
:1017900010B50446022249B104290ED0082913D0FD
:1017A00094F84700012816D0012010BD94F8440099
:1017B0000128F9D184F844200FE094F8450001286D
:1017C000F2D184F8452008E094F846000128EBD1D6
:1017D00084F8462001E084F847200422206801F0C4
:1017E0007AF82068416C41F4004141641049206856
:1017F00088420ED0B0F1804F0BD00E49884208D0FD
:101800000D49884205D00D49884202D00C498842D2
:1018100007D181680B4A1140062906D0B1F5803FF7
:1018200003D0016841F001010160002010BD0000FB
:10183000002C01400004004000080040003401403A
:10184000004001400700010070B504460D460068E5
:10185000002201F040F82068036A154944F244422E
:101860000B4206D1036A134203D1436C23F40043B5
:1018700043642068036A0B4206D1016A114203D116
:10188000016821F00101016001203DB1042D08D063
:10189000082D09D084F84700002070BD84F844006A
:1018A000FAE784F84500F7E784F84600F4E700001B
:1018B00011111100704710B5040003D094F83D00D9
:1018C00010B107E0012010BD002084F83C00204644
:1018D00000F022F8022084F83D00211D206800F06D
:1018E00091FF012084F8480084F83E0084F83F000E
:1018F00084F8400084F8410084F8420084F84300F2
:1019000084F8440084F8450084F8460084F84700D1
:1019100084F83D00002010BD08B50068B0F1804F8C
:1019200012D10A48816D41F001018165806D00226C
:1019300000F00100009011461C20FFF74BF9BDE8B4
:1019400008401C20FFF738B908BD00000010024015
:1019500070B5044690F83C000025012814D00126FB
:1019600084F83C60022084F83D0022689068364B81
:10197000184020F47F409060086870282ED010DC5A
:1019800010F00F0F03D021E04FF0020070BD4FEABE
:101990002012072A1AD2DFE802F0525252524A3875
:1019A00040002A4BC21A984249D009DCB0F5805F4A
:1019B0000DD0B0F5005F1CD0B0F1101F06D13EE095
:1019C000102A3CD0202A3AD0502A38D0012584F859
:1019D0003D60002084F83C00284670BDCB68D1E90A
:1019E0000121206800F084FF2068816841F07701C0
:1019F00009E0CB68D1E90121206800F079FF206877
:101A0000816841F480418160E1E7CA6849682068E3
:101A100001F022F95021206806E0CA684968206870
:101A200001F048F96021206800F06CFFCFE7CA6838
:101A30004968206801F010F940212068F4E7226825
:101A400001461046F0E7000088FFCEFF200010009E
:101A500070472DE9F04104460068C66805694FF0FB
:101A60000007A90713D5B10711D5F91E016101209F
:101A70002077206880698007204602D0FFF7E8FFC2
:101A800004E000F001F9204600F0D6F92777680756
:101A900016D5700714D521686FF004000861022084
:101AA00020772068806910F4407F204602D0FFF73D
:101AB000CFFF04E000F0E8F8204600F0BDF92777FA
:101AC000280715D5300713D521686FF00800086185
:101AD000042020772068C0698007204602D0FFF7E5
:101AE000B7FF04E000F0D0F8204600F0A5F9277712
:101AF000E80616D5F00614D521686FF010000861CD
:101B0000082020772068C06910F4407F204602D06A
:101B1000FFF79EFF04E000F0B7F8204600F08CF9D4
:101B20002777E80708D0F00706D021686FF001009A
:101B30000861204600F058FA280601D4A80408D508
:101B4000300606D521686FF4025008612046FFF781
:101B50007CFDE80508D5300606D521686FF4807055
:101B600008612046FFF770FD680608D5700606D5A7
:101B700021686FF040000861204600F03CFAA8069A
:101B800008D5B00606D521686FF020000861204610
:101B9000FFF75CFDE80208D5F00206D521686FF476
:101BA000801008612046FFF7A2FDA80208D5B00208
:101BB00006D521686FF4001008612046FFF796FDF6
:101BC000680208D5700206D521686FF480000861AC
:101BD0002046FFF78DFD28020AD5300208D521687E
:101BE0006FF4000008612046BDE8F041FFF762BED7
:101BF000BDE8F081F0B587B0044614216846FEF7D1
:101C0000D2FB1E492068884236D11D48C16C41F084
:101C10000201C164C16C01F002010591C16C41F087
:101C20000101C164C06C022500F0010005904FF471
:101C3000005000900024CDE901540626114FCDE953
:101C4000034669463846FEF73FFEA8030090CDE9FB
:101C500001540420CDE9034069463846FEF734FEBE
:101C60004FF4B8500090CDE90154CDE903466946E0
:101C70004FF09040FEF728FE07B0F0BD002C014069
:101C80000010024000040048704770B5044690F808
:101C90003C0000260D4601280BD0012084F83C00B2
:101CA0000C2A4AD007DC82B1042A20D0082A06D1A7
:101CB00031E0022070BD102A53D0142A63D00126CF
:101CC000002084F83C00304670BD206800F024FEFF
:101CD0002068816941F0080181612068816921F0F3
:101CE00004018161206881692A69114311E020683B
:101CF00000F064FE2068816941F400618161206820
:101D0000816921F480618161206881692A6941EAE1
:101D100002218161D4E7206800F09AFE2068C16941
:101D200041F00801C1612068C16921F00401C1616D
:101D30002068C1692A69114311E0206800F0D2FED1
:101D40002068C16941F40061C1612068C16921F462
:101D50008061C1612068C1692A6941EA0221C161CB
:101D6000AEE7206800F008FF2068016D41F008012F
:101D700001652068016D21F0040101652068016D95
:101D80002A69114311E0206800F02EFF2068016DE0
:101D900041F4006101652068016D21F480610165F5
:101DA0002068016D2A6941EA0221016588E710B5C2
:101DB000040003D094F83D0010B107E0012010BDED
:101DC000002084F83C00204600F022F8022084F82D
:101DD0003D00211D206800F015FD012084F8480019
:101DE00084F83E0084F83F0084F8400084F8410005
:101DF00084F8420084F8430084F8440084F84500E5
:101E000084F8460084F8470084F83D00002010BDA7
:101E100008B500680649884208D10648016E41F4B9
:101E200000610166006E00F40060009008BD0000D3
:101E3000002C0140001002407047000030B50446FD
:101E4000022269B1042912D0082917D00C291CD00C
:101E5000102921D094F84300012824D0012030BD5E
:101E600094F83E000128F9D184F83E201DE094F852
:101E70003F000128F2D184F83F2016E094F840009A
:101E80000128EBD184F840200FE094F841000128AC
:101E9000E4D184F8412008E094F842000128DDD123
:101EA00084F8422001E084F843200122206800F0F9
:101EB00005FD194B20681949194A984209D08842F2
:101EC00007D0904205D0174DA84202D0164DA84227
:101ED00003D1456C45F400454564206898420CD018
:101EE000B0F1804F09D0114B984206D0104B984268
:101EF00003D0884201D0904207D181680D4A114039
:101F0000062906D0B1F5803F03D0016841F00101F8
:101F10000160002030BD0000002C01400034014071
:101F200000400140004401400048014000040040DE
:101F3000000800400700010030B504460D46006867
:101F4000002200F0BBFC2349214B20688A119842F3
:101F50000BD0214B984208D0204B984205D0204B03
:101F6000984202D01F4B984209D1036A0B4206D116
:101F7000036A134203D1436C23F400434364206893
:101F8000036A0B4206D1016A114203D1016821F0B4
:101F90000101016001205DB1042D0CD0082D0DD090
:101FA0000C2D0ED0102D0FD084F84300002030BD32
:101FB00084F83E00FAE784F83F00F7E784F8400031
:101FC000F4E784F84100F1E784F84200EEE700000E
:101FD000002C01401111110000340140004001406B
:101FE00000440140004801400068B0F1804F01D139
:101FF000FEF7BCBA7047704790F88410012918D0DA
:10200000012180F884102421C0F8881001680A6832
:102010000B6823F001030B6022F00051002242669E
:10202000036819602021C0F8881080F884201046C9
:102030007047022070477047704770B5044690F8AB
:10204000840001281DD0012084F884002420C4F8D5
:10205000880020680568026822F00102026020689A
:10206000826822F060620A438260204600F042FEED
:10207000206805602020C4F88800002084F88400CF
:1020800070BD022070BD70B5044690F88400012830
:102090001DD0012084F884002420C4F88800206822
:1020A0000568026822F0010202602068826822F05E
:1020B00060420A438260204600F01CFE20680560F2
:1020C0002020C4F88800002084F8840070BD02201D
:1020D00070BD7047704770472DE9F04103680446B2
:1020E000D86919689A6840F60F0528424FF0000534
:1020F0004FF002060AD187067ED501F0200702F0D4
:10210000805C57EA0C0777D0616F42E1B64FDFF889
:10211000DCC2174001EA0C0C57EA0C0C6CD05FEAE9
:10212000C07C0CD05FEAC15C09D54FF0010CC3F84C
:1021300020C0D4F8903043F00103C4F890308307F6
:1021400009D5D30707D023681E62D4F8903043F036
:102150000403C4F8903043070AD5D30708D0266893
:1021600004233362D4F8903043F00203C4F8903073
:1021700003070CD501F020033B4308D02668082351
:102180003362D4F8903043F00803C4F8903003056C
:102190000BD54B0109D526684FF400633362D4F8A0
:1021A000903043F02003C4F89030D4F89030002BE6
:1021B0003DD0800609D501F0200002F0805108438F
:1021C00003D0616F09B120468847D4F89000216898
:1021D0008968490602D410F0280F2AD0204600F062
:1021E0006BFE2068806840061ED52068083050E8E5
:1021F000001F21F0400100E021E040E80012002A29
:10220000F3D1D4F8800078B179498163D4F88000A3
:10221000FEF71EFB00280AD0D4F88000816B00E096
:102220002046BDE8F04108472046FFF754FFBDE8CF
:10223000F0812046FFF74FFFC4F89050F7E7D4F83D
:102240006CC02027BCF1010F7ED15FEAC06C7BD54A
:102250005FEAC16C78D5102018622068806840065B
:1022600051D5D4F880100A6850680004000C3ED0A4
:10227000B4F85C3083423AD9A4F85E00086800687C
:1022800080062CD4216851E8000F20F4807041E8CA
:102290000002002AF6D12068083050E8001F21F023
:1022A000010140E80012002AF5D12068083050E80A
:1022B000001F21F0400140E80012002AF5D1C4F8C7
:1022C0008C70E566216851E8000F20F0100041E8AD
:1022D0000002002AF6D1D4F88000FEF781FA2667C2
:1022E000B4F85C00B4F85E10401A81B207E0B4F8AC
:1022F0005C1081429BD11068800698D526672046E5
:10230000FFF799FE93E7B4F85C00B4F85E10401A4A
:1023100081B2B4F85E00002889D0002987D02268F5
:1023200052E8000F20F4907042E80003002BF6D131
:102330002D4BDB432068083050E8002F1A4040E85E
:10234000002CBCF1000F00E00EE0F3D1C4F88C705B
:10235000E5666567206850E8002F22F0100240E82B
:102360000023002BF6D1C9E7C60209D5560207D5CE
:102370004FF4801018622046BDE8F041FFF7AABE76
:1023800003060AD501F0800302F40002134304D0CF
:10239000A16F00297FF444AF49E7420611D54A06F0
:1023A0000FD52046016851E8002F22F0400241E895
:1023B0000023002BF6D1C0F88870856700F094F8F0
:1023C00035E7020206D54A0004D52046BDE8F041B3
:1023D000FFF77FBEC00195D5002993DA2046BDE8FE
:1023E000F041FFF729BE00000100001020010004A9
:1023F000AD2E000810B5040003D0D4F8880010B149
:1024000007E0012010BD002084F88400204600F081
:1024100027F82420C4F888002068016821F0010111
:102420000160A06A10B1204600F086FC204600F052
:102430006DFD0128E6D02068416821F4904141609B
:102440002068816821F02A0181602068016841F0DC
:10245000010101602046BDE8104000F0D1BC000041
:1024600030B597B00446142111A8FDF79CFF442114
:102470006846FDF798FF1A49206888422ED1022548
:102480000024684600950294FEF73CFC08B1FEF774
:1024900099F81448816D41F400318165816D01F432
:1024A00000311691C16C41F00101C164C06CCDE9ED
:1024B000125400F0010016900C2011900720CDE975
:1024C000144011A94FF09040FEF7FEF9002211468A
:1024D0002620FEF77FFB2620FEF76EFB17B030BDEF
:1024E00000440040001002407047FEE7F0B587B09E
:1024F00014216846FDF757FF3148C16C41F00401D3
:10250000C164C16C01F004010591C16C41F020016E
:10251000C164C16C01F020010591C16C41F0010161
:10252000C164C16C01F001010591C16C41F002016F
:10253000C164C16C01F002010591C16C41F0080158
:10254000C164C06C012200F008001E4E9403059087
:1025500021463046FEF7D2FA1B4F01222021384691
:10256000FEF7CCFA0125CDE9004500240294694626
:1025700030460394FEF7A8F96802CDE900046946E5
:1025800030460294FEF7A0F90420CDE90004694624
:102590000E480294FEF798F920200090CDE90154EE
:1025A000694638460394FEF78FF94020CDE90004D0
:1025B000694638460294FEF787F907B0F0BD00007F
:1025C000001002400008004800040048000C0048C9
:1025D00010B598B00024149415941C210DA81694DD
:1025E000FDF7E1FE34216846FDF7DDFE2C482B495E
:1025F000016021214160202181606321C0E9031431
:102600008021C0E90541FFF7D2FB08B1FDF7DAFFF1
:102610001494159414A922481694FFF76BF808B186
:10262000FDF7D0FF6020CDE90D040F9410941194B4
:10263000129400220DA91A481394FFF726FB08B143
:10264000FDF7C0FF04220DA91548FFF71EFB08B1D6
:10265000FDF7B8FF08220DA91148FFF716FB08B1D6
:10266000FDF7B0FF0120CDE9024000944003CDE921
:1026700004400003CDE908400194069407940A94AD
:102680000B94694606480C94FEF7E2FF08B1FDF78B
:1026900099FF0348FFF7AEFA18B010BD002C0140B7
:1026A0003800002010B588B0002417480094019429
:1026B00002940394049405944FF0804106940160C1
:1026C000A921C0E9011440F2E731C0E90314846193
:1026D000FFF7F1F808B1FDF775FF4FF48050009057
:1026E00069460948FFF734F908B1FDF76BFF049418
:1026F00004A905480694FEF7FDFF002801D0FDF768
:1027000061FF08B010BD000084000020184810B51B
:10271000164901604FF4E1314160002181600C22D3
:10272000C160C0E904128161C161016241628162DC
:10273000FFF760FE08B1FDF745FF00210C48FFF7E9
:10274000A2FC08B1FDF73EFF00210948FFF775FC28
:1027500008B1FDF737FF0648FFF74EFC002803D00D
:10276000BDE81040FDF72EBF10BD00000044004042
:10277000D0000020FEE7FEE770477047FEF7CAB9B9
:1027800010B594B038216846FDF70DFE14210EA84F
:10279000FDF709FE0020FEF74FFA0120009000042B
:1027A000019002200324CDE907045521CDE9090158
:1027B0000B900C900D906846FEF730FD08B172B694
:1027C000FEE70F20CDE90E04002010904FF480604A
:1027D0001190129004210EA8FEF7D8FB002801D01A
:1027E00072B6FEE714B010BD0248016841F47001F2
:1027F0000160704788ED00E00148FFF72AB900004A
:10280000840000202DE9F0430268254B254D264E1B
:10281000264C4FF08049984207D0484505D0A84241
:1028200003D0B04201D0A04203D122F070074A6821
:102830003A431F4FDFF87CC0DFF87C8098420DD010
:1028400048450BD0A84209D0B04207D0A04205D0DD
:10285000B84203D0604501D0404503D122F4407511
:10286000CA682A434D6922F080022A438D68C562F6
:102870000D688562984207D0A04205D0B84203D0C7
:10288000604501D0404501D109690163016841F00B
:1028900004010160012141610260BDE8F083000094
:1028A000002C0140000400400008004000340140BA
:1028B00000400140004401400048014010B501F0D3
:1028C0001F030121046A99408C430462016A9A4003
:1028D0001143016210BD10B501F00F030421046A19
:1028E00099408C430462016A9A401143016210BD11
:1028F00010B5846842EA032224F47F440A43224349
:10290000826010BD8268034B1A400A4342F00701FF
:10291000816070478FFFCFFF2DE9F043056A026A9F
:1029200022F001020262436882691E4C25F0020512
:1029300022400C6822F0030214438A681B4E2A438B
:10294000194D1B4FDFF86CC0DFF86C90A84207D020
:10295000B04205D0B84203D0604501D048450AD105
:10296000D0F8208028F00408C0F8208022F0080861
:10297000CA6842EA0802A84207D0B04205D0B8426D
:1029800003D0604501D0484505D14D6923F440731B
:102990001D438B692B434360846149684163026234
:1029A000BDE8F0838FFFFEFF002C014000340140A2
:1029B000004001400044014000480140F0B5056A74
:1029C000026A22F010020262426883691A4C1C4EAD
:1029D00023400C6823F4407343EA042425F02003C9
:1029E0008D6843EA0513154DA84201D0B04208D1C5
:1029F000076A27F040070762CF6823F0800343EAA5
:102A00000713A8420AD0B04208D00E4DA84205D004
:102A10000D4DA84202D00D4DA84207D14D6922F4B8
:102A2000406242EA85028D6942EA85024260846121
:102A3000496881630362F0BDFF8FFFFE002C0140F7
:102A40000034014000400140004401400048014082
:102A5000F0B5056A026A22F4807202624268C369B4
:102A60001A4C1C4E23400C6823F003031C4325F42E
:102A700000738D6843EA0523154DA84201D0B0428A
:102A800008D1076A27F480670762CF6823F40063E0
:102A900043EA0723A8420AD0B04208D00E4DA8420C
:102AA00005D00E4DA84202D00D4DA84207D14D6968
:102AB00022F4405242EA05128D6942EA0512426050
:102AC000C4614968C1630362F0BD00008FFFFEFF6F
:102AD000002C01400034014000400140004401400E
:102AE00000480140F0B5056A026A22F48052026291
:102AF0004268C3691A4C1C4E23400C6823F440738F
:102B000043EA042425F400538D6843EA0533154D48
:102B1000A84201D0B04208D1076A27F48047076273
:102B2000CF6823F4004343EA0733A8420AD0B042F7
:102B300008D00E4DA84205D00D4DA84202D00D4D33
:102B4000A84207D14D6922F4404242EA85128D69BC
:102B500042EA85124260C461496801640362F0BDC3
:102B6000FF8FFFFE002C0140003401400040014077
:102B7000004401400048014030B5056A026A22F471
:102B8000803202624268036D114C23400C681C4382
:102B900025F400330D8943EA05430E4DA8420BD0BE
:102BA0000D4DA84208D00D4DA84205D00C4DA842AD
:102BB00002D00C4DA84204D14D6922F4803242EA81
:102BC00005224260046549688164036230BD0000EB
:102BD0008FFFFEFF002C0140003401400040014007
:102BE000004401400048014030B5046A026A22F402
:102BF000801202624268036D114D24F400142B40D0
:102C00000D6843EA05230D8944EA05540D4DA84299
:102C10000BD00D4DA84208D00C4DA84205D00C4D4C
:102C2000A84202D00B4DA84204D14D6922F4802263
:102C300042EA8522426003654968C164046230BD8E
:102C4000FF8FFFFE002C0140003401400040014096
:102C5000004401400048014010B5036A046A24F0B2
:102C6000010404620E4CA0420BD00E4CA04208D0CE
:102C70000D4CA04205D00D4CA04202D00C4CA042FD
:102C800003D1046A24F004040462846924F0F0048B
:102C900044EA021423F00A020A438461026210BD6E
:102CA000002C01400034014000400140004401403C
:102CB0000048014010B5036A046A24F0100404625D
:102CC0000A4CA04202D00A4CA04203D1046A24F06C
:102CD00040040462846923F0A00324F4704444EAAD
:102CE000023243EA01118261016210BD002C0140F1
:102CF0000034014030B5416EB9B102689168926804
:102D0000C1F342610B4B520F9C5CE50003F10804D8
:102D1000A25CB5FBF2F2A0F86A205A5C615CD200BA
:102D2000B2FBF1F1A0F8681030BD0121A0F86A10E3
:102D3000F8E70000364C000890F82810090706D57F
:102D400001684A68836B22F400421A434A6090F893
:102D50002810C90706D001684A68C36A22F4003205
:102D60001A434A6090F82810890706D501684A6816
:102D7000036B22F480321A434A6090F82810490706
:102D800006D501684A68436B22F480221A434A60E0
:102D900090F82810C90606D501688A68C36B22F42A
:102DA00080521A438A6090F82810890606D5016877
:102DB0008A68036C22F400521A438A6090F8281043
:102DC000490611D501684A68436C22F480121A43FF
:102DD0004A60416CB1F5801F06D101684A68836C76
:102DE00022F4C0021A434A6090F82810090606D55A
:102DF00001684A68C06C22F4002202434A607047AE
:102E00002DE9F84300260446C0F89060FDF77CFEEB
:102E10008046206800684FF0200500076FF07E476D
:102E200013D54346002229042046009700F0A8F954
:102E300058B1216851E8000F20F0800041E80002FD
:102E4000002AF6D1C4F8885021E0206800684007C5
:102E500022D5434600224FF480012046009700F01F
:102E60008FF9C8B1216851E8000F20F4907041E853
:102E70000002002AF6D12068083050E8001F21F037
:102E8000010140E80012002AF5D1C4F88C5084F802
:102E900084600320BDE8F883C4F88850C4F88C50DF
:102EA00044F86C6F666026760020F3E710B5806A00
:102EB000FFF711F910BD000010B5026852E8001FBD
:102EC00021F4907142E80013002BF6D10E4B0268FA
:102ED000083252E8001F194042E80014002CF6D1D5
:102EE000C16E012908D1016851E8002F22F01002BB
:102EF00041E80023002BF6D12021C0F88C100021DE
:102F0000C166416710BD0000FEFFFFEF2DE9F041F3
:102F10000446016880682269E369104362690025FC
:102F20001A431043DFF82CC20A688B4B1A40024345
:102F30000A6020684168E26821F440511143416011
:102F40002168A069614501D0226A10438A68834BD9
:102F50001A4002438A602068C16A626A21F00F0148
:102F60001143C1627E4923687E488B420DD1D0F85F
:102F7000880010F0030006D0012855D0022842D066
:102F800003283FD152E001203DE077498B420BD12D
:102F9000D0F8880010F00C0035D0042833D0082871
:102FA00040D00C282ED141E070498B420BD1D0F893
:102FB000880010F0300026D0102835D0202831D0DD
:102FC00030281FD132E06A498B420BD1D0F88800FB
:102FD00010F0C00017D0402826D0802822D0C0286A
:102FE00010D123E063450DD1D0F8880010F4406083
:102FF00009D0B0F5806F17D0B0F5006F12D0B0F5E2
:10300000406F13D010205B495B4F00264FF4004205
:1030100063453BD160B1022813D004280BD00828A7
:1030200072D10DE00220EEE70420ECE70820EAE789
:10303000FEF79AF801E0FEF7BBF8010001D17CE051
:103040001146606A37F810206768B1FBF2F007EBB1
:103050004703834270D8B0EB073F6DD80023084682
:103060001946FDF729F9090241EA106102027808C0
:10307000101871413A460023FDF71EF93F4AA0F5AA
:103080004071914258D82168C86056E0E3694FF614
:10309000EF7893422CD109284ED2DFE800F00508E2
:1030A000114D0D4D4D4D1000FEF75EF801E0FEF79D
:1030B0006DF8010004D140E0FEF77AF8F9E7114617
:1030C000606A37F81000B1FBF0F04100606801EB76
:1030D0005001B1FBF0F0A0F1100141452CD84FF6A2
:1030E000F0710140C0F3420001432068C16024E058
:1030F000092821D2DFE800F0050912200E20202047
:103100001100FEF731F802E016E0FEF73FF801008B
:1031100004D112E0FEF74CF8F9E71146606A37F87F
:103120001000B1FBF0F1606801EB5001B1FBF0F071
:10313000A0F1100141450AD901250120A4F86A0037
:1031400024F8680F2846E6602661BDE8F08180B269
:1031500099E7000000800040F369FFCFFFF4FF1102
:103160000038014000100240004400400048004088
:10317000004C00400024F4001E4C0008FFFC0F002F
:103180002DE9F047994617460D4604464FF00008D2
:10319000089E33E0701C31D0FDF7B6FCA0EB0900AF
:1031A000B04218D8BEB120680168490726D5802DE5
:1031B00024D0402D22D0C169C94309070DD4082568
:1031C00005622046FFF778FEC4F8905084F88480AA
:1031D0000120BDE8F0870320FBE7C069C04300057C
:1031E0000CD421684FF4006008622046FFF764FEAB
:1031F0002020C4F8900084F88480ECE72068C0693F
:1032000035EA000004D00020B842C3D00020E0E737
:103210000120F9E70148FEF75FBF0000D000002061
:10322000FEE703B401984100009850EAC12018BF9E
:1032300004204A0D18BF40F0010040F2FF72B2EBCB
:10324000515F08BF40F00200012808BF052002B00E
:1032500070470907090E002804DB00F1E02080F820
:103260000014704700F00F0000F1E02080F8141DFA
:10327000704700000000000010B52F499FED2C1B87
:103280002DED020B84B0059820F000408842D8BF95
:103290009DED040B2DDD2949884209D1049840B9E0
:1032A0004FF00100FDF7AEF800F03AFD06B010BD9A
:1032B00005DB9DED040B00F027FD06B010BD684650
:1032C0009DED040B00F038F910F0030004BF9DEDF4
:1032D000021B9DED000B0CD001280ED09DED021BB2
:1032E0009DED000B022817D0012000F075FC06B000
:1032F00010BD00F03DFB06B010BD9DED021B9DED25
:10330000000B012000F068FC51EC100B00F03AFEBD
:1033100006B041EC100B10BD00F02AFB51EC100B75
:1033200000F030FE06B041EC100B10BD00000000B4
:103330000000000000000000FB21E93F0000F07FDA
:1033400010B52DED028BF0EE408A18EE900AB0EE2B
:10335000608A20F00040C0F1FF40C00F07D118EE96
:10336000100A20F00040C0F1FF40C00F2BD018EE33
:10337000101A18EE900A01F0D3FB00EE100A10EEBE
:10338000100A6FEAD05010F0FF0F04BFBDEC028BA3
:1033900010BD18EE900A00F0004110EE100A00F087
:1033A0000040814204BFBDEC028B10BD18EE101A24
:1033B00010EE100ABDEC028B61F31E0000EE900AC5
:1033C00030EE600A10BD18EE900A4FF07F41B1EB6D
:1033D000400F1CBF18EE100A5FEA4000C7D1012061
:1033E000FDF710F8BDEC028BBDE8104000F0B8BC52
:1033F00010B52F499FED2C1B2DED020B84B00598C5
:1034000020F000408842DCBF00209DED040B32DD3F
:103410002849884209D1049840B94FF00100FCF7CF
:10342000F1FF00F07DFC06B010BD05DB9DED040B47
:1034300000F06AFC06B010BD68469DED040B00F07C
:103440007BF810F0030011D0012818D09DED021B6D
:103450009DED000B02281AD000F08AFA51EC100BF7
:1034600000F090FD06B041EC100B10BD9DED021B6D
:103470009DED000B012000F0AFFB06B010BD9DEDEF
:10348000021B9DED000B00F073FA06B010BD012089
:1034900000F0A2FB51EC100B00F074FD06B041EC03
:1034A000100B10BD00000000000000000000000034
:1034B000FB21E93F0000F07F00B52DED048BB0EE5D
:1034C000409AF0EE609A83B051EC190B01F0FCF8D1
:1034D00041EC180B18EE100A18EE901A8DED008BC7
:1034E000002818BF0120084320F00040C0F17F6091
:1034F00000F1E040C00F14D019EE101A19EE900A36
:103500008DED009B002918BF0121084320F00040E9
:10351000C0F17F6000F1E040C00F04BF0120FCF764
:1035200071FFB0EE480A03B0F0EE680ABDEC048B00
:1035300000BD0000000000002DE9F14F04462DED14
:10354000020B2DED088B8AB09FEDE70B80ED020B8F
:10355000139EE74826F0004585420ADC9DED120BDC
:10356000002084ED000B0AB0BDEC088B03B0BDE871
:10357000F08FE0489FEDE0AB9FEDE1BBA84247DD57
:10358000E14F9FEDE39B9FEDE48B9DED120B53EC20
:103590001A2B51EC100B002E1CDD01F061F941ECEF
:1035A000100BBD4208D053EC1B2B51EC100B01F05B
:1035B00057F9C4E900010BE053EC192B51EC100B47
:1035C00001F04EF953EC182B01F04AF9C4E900015F
:1035D0000120C8E700F014FD41EC100BBD4208D0FB
:1035E00053EC1B2B51EC100B00F00AFDC4E9000159
:1035F0000BE053EC192B51EC100B00F001FD53ECD8
:10360000182B00F0FDFCC4E900014FF0FF30AAE7E1
:10361000C348A84279DB9DED120B51EC100B00F072
:10362000A7FB41EC180B9FEDC00B53EC102B00F0E7
:1036300041FF9FEDBF1B53EC112B00F0E1FC00F0AC
:10364000DFFE074600F00BFF41EC190B53EC1A2B81
:1036500000F030FF53EC182B01F02AF841EC180B66
:1036600053EC1B2B51EC190B00F024FFDFF8C8A220
:1036700041EC100B4FEA15580125FA4453EC102B7E
:1036800051EC180B01F0ECF8032DC4E900013DD01A
:10369000C1F30A5005EB4511A8EB00001139814236
:1036A00034DA0AEB051BB0EE48AA9BED000BF0EEF6
:1036B00068AA53EC102B51EC190B00F0FBFE41EC07
:1036C0001B0B51EC1A0B53EC1B2B01F0C9F841EC0E
:1036D000180B51EC1A0B53EC182B01F0C1F853ECFA
:1036E0001B2B01F0BDF89BED020B41EC1A0B53ECC8
:1036F000102B51EC190B00F0DDFE53EC1A2B01F0EE
:10370000AFF841EC100B6D1CB8E70EE0002EA8BF1F
:103710003846BFF628AF94ED000B51EC100B00F0CB
:1037200031FCC4E9000178421DE7C6F3130040F400
:10373000801EC6F30A50A0F2F530471100F01F05B5
:10374000C5F12000DDF848B00890002006900790F1
:103750000520EC467949002D07EB0002794408BFAB
:1037600051F8221009D051F8223001EB8201AB4010
:103770004A68089922FA01F11943A1FB0E26A1FB20
:103780000B131A449A4234BF0123002303EB0608AB
:103790000CEB8003D3E901A60E448E4234BF012115
:1037A000002192448A4411B1924502D903E0924526
:1037B00001D2012100E00021C3E901A641444CF8F7
:1037C0002010011EA0F10100C4DC029800F100509D
:1037D000850F0298DDE903678000DDF8148000F0B2
:1037E0003EFE41EC1A0B304600F050FE9FED541B9C
:1037F00053EC112B00F05EFE41EC1B0B384600F041
:1038000045FE9FED511B53EC112B00F053FE41EC94
:10381000180B404600F03AFE9FED4D1B53EC112B68
:1038200000F048FE41EC190B51EC180B53EC192B2E
:1038300000F0E6FB53EC1B2B00F0E2FB53EC1A2BE1
:1038400000F0DEFBCDE90801002008909DED080B9B
:1038500053EC1A2B51EC100B01F002F853EC1B2B1C
:1038600000F0FEFF53EC182B00F0FAFF53EC192B7D
:1038700000F01EFF9FED381B53EC112B00F01AFED9
:103880009FED370B41EC180B53EC102B9DED080B03
:1038900051EC100B00F00EFE53EC182B00F0B0FBB7
:1038A0009FED310B41EC180B53EC102B9DED080BE9
:1038B00051EC100B00F0FEFD53EC182B00F0A0FBB8
:1038C00041EC100B139810F0004F06D06D4251ECF4
:1038D000100B00F057FB41EC100B284684ED000B59
:1038E00041E60000000000000000000000000000B1
:1038F000FB21E93F7CD9024000004054FB21F93F05
:103900003163621A61B4D03DFB21F93F0000000031
:103910000000601A61B4D03D7370032E8A19A33B76
:10392000FB2139410000000083C8C96D305FE43FCE
:10393000000000000000E03F3A160000881500007B
:10394000000000000000103E000000000000103CDD
:10395000000000000000103A182D4454FB21F93DEE
:103960003326A611460B113C00000054FB21F93D03
:1039700010B52DED040B2DED088B82B0B0EE419A01
:10398000F0EE619A0B9820F000449FED4BABB4F140
:10399000795F11DA9DED0A0B51EC100B00F030FD50
:1039A000002801BFB0EE4A0AF0EE6A0A02B0BDEC90
:1039B000088B04BF04B010BD9DED0A0B53EC102B17
:1039C00051EC100B00F076FD41EC180B3C48062141
:1039D000B0EE480AF0EE680A784400F081F853EC43
:1039E000182B51EC100B00F065FD9DED0A0B41EC1E
:1039F0001B0B53EC192B51EC100B00F05BFD41EC51
:103A0000190B53EC1B2B51EC180B00F053FD53EC2E
:103A1000192B00F025FF9FED2C0B41EC190B53ECFB
:103A2000102B51EC180B00F045FD41EC100B284811
:103A3000844210DA53EC192B51EC100B00F010FFFC
:103A400053EC1A2B00F034FE41EC100B02B0BDEC2D
:103A5000088B04B010BD1F48A042BCBF9FED1E1BC9
:103A60008DED001B06DBA4F50010019000200090F6
:103A70009DED001B51EC100B53EC112B00F0F0FEF0
:103A80009DED000B41EC180B53EC102B51EC1A0B75
:103A900000F0E6FE41EC1A0B53EC192B51EC180B1D
:103AA00000F0DEFE53EC1A2B00F002FE41EC100B8E
:103AB000CCE7000000000000000000000000F03F24
:103AC000AC12000000000000000000000000E03F19
:103AD0003333D33F0000E93F000000000000D23F35
:103AE00070B504462DED028B4D1E00EBC500B0EE07
:103AF000408AF0EE608A90ED000B35F0060017D09A
:103B000053EC182B51EC100B00F0D4FC41EC100BD3
:103B10006D1E04EBC50090ED001B51EC100B53EC37
:103B2000112B00F06DFA41EC100B35F00600E7D1D7
:103B3000022D36D0042D1CD0062D1CBFBDEC028BEF
:103B400070BD53EC182B51EC100B00F0B3FC94ED4E
:103B50000A1B53EC112B00F053FA53EC182B00F016
:103B6000A9FC94ED081B53EC112B00F049FA41EC31
:103B7000100B53EC182B51EC100B00F09BFC94ED48
:103B8000061B53EC112B00F03BFA53EC182B00F002
:103B900091FC94ED040B53EC102B00F031FA41EC46
:103BA000100B53EC182B51EC100B00F083FC94ED30
:103BB000021B53EC112B00F023FA53EC182B00F0EE
:103BC00079FC94ED001B53EC112B00F019FABDECBD
:103BD000028B41EC100B70BD31B504462DED040B8A
:103BE0002DED0A8BB0EE41BAF0EE61BA0B989DED67
:103BF0000A0B20F00040B0F1795F0DDA51EC100BA8
:103C0000FFF70FFB042808BF00F09AF89DED0A0BA0
:103C1000BDEC0A8B05B030BD53EC102B51EC100BF2
:103C200000F048FC41EC180B9DED0A0B53EC182BEF
:103C300051EC100B00F03EFC41EC190B2C48B0EE9F
:103C4000480AF0EE680A05217844FFF749FF9FED26
:103C50002ACBB0EE40AAF0EE60AA9CB353EC1C2B2A
:103C600051EC190B00F026FC41EC1C0B53EC1A2B09
:103C700051EC190B00F01EFC9FED210B41EC190BD0
:103C800053EC102B51EC1B0B00F014FC53EC192BD4
:103C900000F0E6FD53EC182B00F00CFC53EC1B2B52
:103CA00000F0DEFD53EC1C2B00F0DAFD9DED0A1B4D
:103CB00053EC112B00F0FCFCBDEC0A8B05B041EC81
:103CC000100B30BDFFE753EC1A2B51EC180B00F032
:103CD000F1FB53EC1C2B00F093F953EC192B00F083
:103CE000E9FB9DED0A1B53EC112B00F089F9E3E78A
:103CF0003411000000000000495555555555C5BF09
:103D0000000000000000E03F10B553EC102B51EC18
:103D1000100B00F075F941EC100B10BD0000000015
:103D20009FED050B10B553EC102B51EC100B00F070
:103D30000FFA41EC100B10BD000000000000000065
:103D40009FED050B10B553EC102B51EC100B00F050
:103D5000B1FB41EC100B10BD000000000000001092
:103D6000DFED020A80EEA00A7047000000000000AC
:103D700082B0CDE9000121F0004001909DED000BE3
:103D800002B051EC100B704770B514462DED088B46
:103D9000B0EE408AF0EE608A0D4680ED008A18EEA3
:103DA000900A00F047FE9FED26BB41EC190BB0EEE8
:103DB0004B0AF0EE6B0AFFF77FFB9FED23AB51EC54
:103DC000100B53EC1A2B00F075FB53EC192B00F081
:103DD00071FBBEEE000A41EC190B28EE008A18EECA
:103DE000100A00F027FE53EC192B00F009F900F03F
:103DF000D5F8286018EE900A00F01CFE41EC190B73
:103E0000B0EE4B0AF0EE6B0AFFF756FB53EC1A2BA1
:103E100051EC100B00F04EFB53EC192B00F04AFB59
:103E200041EC190B18EE100A00F004FE53EC192BAC
:103E300000F016FD00F0B2F82060BDEC088B70BDFC
:103E40000000000000000840000000000000E03F0B
:103E500070B505462DED088BB0EE418A0C46F0EEAC
:103E6000608AB0EE409A18EE100A00F0E3FD41ECD3
:103E7000100BFFF7BDFAB0EE40AAF0EE60AA19EE03
:103E8000100A00F0D7FD53EC1A2B00F013FB41ECA5
:103E90001A0B18EE100A00F0CDFD41EC100BFFF7E5
:103EA000EBF9B0EE40BAF0EE60BA18EE900A00F00E
:103EB000C1FD53EC1B2B00F0FDFA53EC1A2B00F064
:103EC000CFFC00F06BF8286018EE100A00F0B2FD8D
:103ED00041EC100BFFF7D0F9B0EE40AAF0EE60AA6B
:103EE00019EE100A00F0A6FD53EC1A2B00F0E2FACE
:103EF00041EC190B18EE100A00F09CFD41EC100B80
:103F0000FFF776FAB0EE40AAF0EE60AA18EE900A3B
:103F100000F090FD53EC1A2B00F0CCFA53EC192B67
:103F200000F06EF800F03AF82060BDEC088B70BD30
:103F3000FCF7F8FDFEF724FCFEF7D8FAFEF7E6FBE7
:103F4000FEF746FBFEF7AEFBFCF73EFBB2EE080ABF
:103F5000FCF7FEFBFAE7000010B52DED028B9FED9C
:103F6000088AF0EE480AFFF7EBF9B5EEC00AF1EE69
:103F700010FA01D230EE080ABDEC028B10BD000031
:103F8000DB0FC94081F00041704780F0004070476E
:103F900021F00041704720F00040704721F00042BE
:103FA000A2F16052B2F5801F01F0004328BFD2F1A8
:103FB0007F6C0BD95FEA001C43EAC20242EB5070EF
:103FC00018BF704728BF20F001007047B2F5801F6E
:103FD000BCBF184670474FEA410C1CF5001F02D2C7
:103FE000084600F017BE70B500F00EFB0000008917
:103FF000FFF7F6BF4FF00040A0F5800070470000CB
:1040000010B591EA030F48BF83F0004300F13084FC
:10401000841A71EB030C05D2121943EB0C03001B3D
:1040200061EB0C01DFF824E14FEA1154A4EB135CBF
:104030001EEA430F18BF9EEA445F73D023EA0E03C3
:10404000DCF1200E21EA045143F4801332D322FA2A
:104050000CFE10EB0E0023FA0CFE41EB0E01CCF12E
:10406000200E03FA0EFE10EB0E0051F10001B1F527
:10407000801FCCF1200E32D201EB045112FA0EF265
:10408000BDE8104058BF7047401C38BF5FEA42028D
:1040900018BF7047002814BF20F0010041F1000153
:1040A0004FEA410313F5001F38BF7047A1F1C0412B
:1040B00000F0F8BA012A43EB0302ACF1200CDCF16A
:1040C0001F0E32BF4FF0000E23FA0CF310EB03006B
:1040D00041EB0451B4EB115FD0D0A1EB045101F5D9
:1040E000801149085FEA300001EB04510ED350F112
:1040F000000038BF12FA0EFE08D1BDE81040C9E733
:10410000401C38BF5FEA4202CAD1C3E7BDE8104095
:104110004FEA410313F5001F38BF7047A1F1C041BA
:1041200000F0C0BA9EEA445F08D011EA5E0FBDE815
:10413000104004BF01F0004100207047BDE810406E
:1041400070B500F061FA00BF64FBBE3E0000E0FF06
:104150002DE9C04130B4DFF8A0C23CEA111418BF09
:104160003CEA131400F0EC8081EA03051CEA111408
:1041700044EAD57418BF1CEA131500F0C780A4EBFD
:1041800005044FF0004545EAC12145EAC32341EA51
:10419000505143EA525304F17F74994204F50034BC
:1041A0004FEAC0204FEAC22208BF904200F09C8034
:1041B0004FEA13650FF24016765D4FEA134506FB92
:1041C00005F7C7F1807706FB07F74FEAD737A7FB5C
:1041D00003687642C8F58038A7FB06CE38BFA8F141
:1041E000010807FB08E64FF0000EA6FB028CE6FB79
:1041F00003CEDCF1000CCEF1004E38BFAEF1010E63
:10420000A6FB0C584FF000074FF00005E6FB0E87A9
:10421000A1FB08C6A0FB07CE16EB0E0645F1000574
:10422000E1FB076515F1E04E7EBFA4F580345FEA3F
:1042300046066D4116F1800745F100054FEA172744
:104240004FEA066647EA0567A6F1DE46B6F1805FEB
:104250004FEA15251FD9384624F0010C05EBC4712F
:10426000BCF1FE6F01EB0C1102D8F0BCBDE800817F
:1042700024425CBF01F5801E9EEAC47F02D4F0BCDC
:10428000BDE80081244238D4F0BCA1F1C041BDE8B2
:10429000004100F007BA4FEAD22242EA43524FEA05
:1042A000D323A7FB02864FEAD02040EA415007FB08
:1042B00003661EEA0E0F4FEAD12105FB026658BFC6
:1042C000A6EB0056B6EB00564FEA520E4EEAC37EFE
:1042D00018EB0E0E56EB530EBDD518EB02085E41DF
:1042E0007F1C55F10005B6E74FF480154FF000072D
:1042F0004FF000064FF00008ADE7F0BC4FF00000B3
:1043000001F1C04101F00041BDE8008111EA0C1F3C
:104310000CEA131500D00CE013EA0C1F00F0258006
:104320004FF00000F0BC81EA030101F00041BDE85C
:104330000081F0BCBDE8004181EA030100F0B2B9A0
:10434000F0BCBDE8004170B500F05EF9097EFC3EAE
:1043500000F007B881EA03014FF0000001F00041CE
:10436000704781EA030100F09DB9F0BCBDE800414F
:104370004FF0000021497047FFFDFBF9F7F5F4F21B
:10438000F0EEEDEBE9E8E6E4E3E1E0DEDDDBDAD8F0
:10439000D7D5D4D3D1D0CFCDCCCBCAC8C7C6C5C44E
:1043A000C2C1C0BFBEBDBCBBBAB9B8B7B6B5B4B365
:1043B000B2B1B0AFAEADACABAAA9A8A8A7A6A5A450
:1043C000A3A3A2A1A09F9F9E9D9C9C9B9A99999814
:1043D0009797969595949393929191908F8F8E8EB7
:1043E0008D8C8C8B8B8A8989888887878685858444
:1043F00084838382828181800000FF070000F87F30
:104400004FEA41034FEA5353A3F58063D3F11E03F0
:10441000C8BFD3F1210C0CDD4FF0004242EAC122AB
:1044200042EA505232FA03FC8CEAE17CACEBE170D8
:104430007047102BC4BF0020704703F5787CBCF197
:10444000FF3F04D06FF0004282EA2100704770B550
:1044500000F0DAF84992248000207047F2E710F06B
:10446000004248BF4042B0FA80F310FA03F10AD08C
:10447000C3F11D0303F580634FEA415002EB035281
:1044800002EBD12170474FF000007047B0FA80F383
:1044900010FA03F10AD0C3F11D0303F580634FEA5C
:1044A00041504FEA035202EBD12170474FF0000018
:1044B00070470000DFF848C170B51CEA111E1EBF2E
:1044C0001CEA13159EEA0C0F95EA0C0F00F06F80A2
:1044D00081EA030423EA4C134EEAD47E21EA4C110C
:1044E00041F4801143F48013AE44A1FB024CA0FBC5
:1044F0000365AEF17F7E361955EB0C05A1FB034C2D
:104500004CF10003A0FB021C16EB0C06654153F1B5
:104510000003094218BF46F0010613F4007F0BD1D7
:104520004FEA03314FEA0530340341EA155140EABE
:1045300016506FF003020AE04FEAC3214FEAC5208C
:10454000F40241EA555140EA56506FF0020202EB84
:104550002E4201EB025585EACE710AD05FEA440C87
:1045600018BF24F0004450F1000041F1000120EA9E
:10457000D47040F2FE7C624500D270BDA84214BFE8
:104580004FF080444FF04044002E08BF0024BEF19D
:10459000806FA8BFA1F1C041BDE8704080F2828069
:1045A0004FF0000001F1C04101F0004170479EEA68
:1045B0000C0F0CEA131518BF95EA0C0F06D04FF03C
:1045C000000081EA030E0EF0004170BD00F01CF8FF
:1045D0008900013E00F007B800F009B84FEA430C2B
:1045E0005FEA5C5C08D081EA030100F05BB84FEA47
:1045F000410C5FEA5C5CF6D14FF000000149704766
:104600000000FF070000F87F0EF1020E2EF0030EEF
:104610005EF8046B364205D4012A43EB030515F519
:10462000001F12D8012841EB010C1CF5001F0CD80B
:104630000ED14FEAD17C15F5001F0CEB4C0C0CF1A0
:10464000020C08BF4CEBD37C04E04FF0080C01E0F7
:104650004FEAD37C0CEB4C0526FA05F606F007066C
:10466000B6F1040C06D20EEB860CBDE870404CF09F
:10467000010C6047DFE80CF0090B02024FF000412B
:104680004FF00000A1F5002170BD19461046012829
:1046900051EB010418BFD4F5001484BF002001F0D1
:1046A000004170BD0808A0F500114FEA31017047C4
:1046B00091EA030F10B581F000413FF5A9AC83F0FA
:1046C000004300F0D5B800002DE9F04101F5801C51
:1046D000BCF5001FC0F2A9804FEA115C21EA0C5121
:1046E0000CF1FD0C41F480115FEA5C0C0CF5C07C10
:1046F00001D34000494130A4890241EA9051870228
:104700008E0E0A0CA45D04FB04F602FB06F6C6F14D
:104710004046A4FB0662F60D46EA422606FB06F476
:10472000A4FB01235242C3F1404338BF5B1EA6FBEA
:1047300002420024E6FB0324D20B42EA4446A6FBD5
:104740000623A1FB02E2A3FB07E4E3FB6142644210
:10475000C2F1404E38BFAEF1010EA6FB04234FF06C
:104760000002E6FB0E32A2FB03463400E2FB626469
:10477000A1FB06E6A4FB07E8E4FB61687642C8F10A
:10478000405838BFA8F10108A2FB06E4A3FB08E5E6
:10479000E2FB6854A1FB05E6A7FB04E8E1FB6486A5
:1047A00018F1200556F10006A809A8F11B08B10967
:1047B00008F03F08B8F10A0F40EA86601CD901EB07
:1047C0000C51BDE8F08100BFFCF5EEE8E2DDD8D386
:1047D000CFCBC7C3C0BDB9B6B4B1AEACA9A7A5A372
:1047E000A19F9D9B9A9896959392908F8D8C8B8983
:1047F0008887868584838281A0FB006800FB01F2A4
:1048000008EB4208B8EB872807D5341858EB0104A9
:10481000D5D5401C51F10001D1E7341A78EB0104E1
:10482000CDD4401E71F10001C9E75FEA4C0C5FEA8C
:104830009C5C0DD105D34FF0000001F00041BDE8B4
:10484000F081BDE8F04170B5FFF7DEFE6DDBFFBE25
:10485000BDE8F0414FF00000004970470000F87FCC
:1048600010B591EA030F48BF83F000433FF5D0AB8A
:10487000841A71EB030C07D212198CF0004C43EB35
:104880000C03001B61EB0C01DFF8A4E14FEA1154AB
:10489000A4EB135C1EEA430F18BF9EEA445F00F0CE
:1048A000B08023EA6E03524221EA0451C3EB6E0347
:1048B00038BF5B1EDCF1200E25D322FA0CFE10EB74
:1048C0000E0043FA0CFE41EB0E01CCF1200E03FA70
:1048D0000EFE10EB0E0051F10001CCF1200E29D498
:1048E00012FA0EF201EB0451BDE8104058BF7047B8
:1048F000401C1CBFB2F1004F704700280CBF491C80
:1049000020F00100704712EB020E43EB030218BFC8
:104910004FF0010E4EEA4202ACF1200CDCF11E0E0B
:1049200054D943FA0CFE10EB0E0051F1FF31CCF1DB
:104930001E0ED5D50EF1010E12FA0EFE404141EBCE
:10494000010101EB445C5FEA5C5C10D910EBDE70A6
:1049500001EB045138BFBEF1004FBDE8104018BF55
:10496000704700280CBF491C20F00100704730D26E
:104970004FEAD42C11F5001124F400641BD0B1FAD5
:1049800081F20B3AA41AA41ED2F12003914030FA0E
:1049900003F31943904001EBCC71002C01EB04515F
:1049A000BDE81040A8BF704701F1C0414FF00000C2
:1049B00001F000417047B0FA80F310FA03F100D122
:1049C00010BDE41A173C4805C90AE4E701EB04519D
:1049D00010BD491001EB0451BDE810404FEA300012
:1049E00002E04FF0000170474A0008BF0042F8D0D3
:1049F000B2F5001F28BF704701F000414FF00000E2
:104A000070479EEA445F07D011EA5E0FBDE8104090
:104A100004BF002100207047BDE8104070B5FFF7CB
:104A2000F3FD00BF40DFF63E83F0004110467047C3
:104A30000000E0FF43004FEAD30C4FEA3C0C434038
:104A40001FBF40070CF1605113F0FE4F70471CF080
:104A5000006F03D100200CF0004170470CF00043C0
:104A600043EA507010B540EACC0000F00EF800BFE9
:104A7000000000924FEA0001FFF714BE4FF0004122
:104A80004FF00000A1F5002170470EF1020E2EF04C
:104A9000030E5EF8044B244204D44FEA4102B2F103
:104AA0007F4F11D84FEA4003B3F17F4F0CD80ED19E
:104AB0004FEAD07CB2F17F4F0CEB4C0C0CF1020CA6
:104AC00008BF4CEBD17C04E04FF0080C01E04FEA4A
:104AD000D17C0CEB4C0324FA03F404F00704B4F18A
:104AE000040C06D20EEB840CBDE810404CF0010C17
:104AF0006047DFE80CF0070802024FF00040A0F525
:104B0000800010BD0846420018BFD2F1807288BFF5
:104B100000F0004010BD4FF04070E1EE100A704709
:104B20004FF07F4C3CEA410318BF3CEA400200F0E2
:104B300062804FF47F0C10F0004F0CEAD11318BFC5
:104B400043F005031CEAD01218BF13EA0C0F00F063
:104B500057804FF0004C4CEA00204CEA0121A3F5AD
:104B600080339A4210DDB0F1004F23F0020306D3E8
:104B7000401A43F00203BCBF404283F001034FEAF6
:104B80004000A2F58032ECE74FEA224CBCEB234F09
:104B900008DB884206D31CD0A0EB4100C0F1000026
:104BA00083F0010340001DD217D40DD0B0FA80FC71
:104BB0000CF1010C00FA0CF0A2EB0C42D2F1000C4B
:104BC00012DB4FEAC37070474FEA437000F00040B9
:104BD000704713F0020FE5D0DEE7B2F580324FEAFE
:104BE0004000EBDD002AE9DD4FEAC21242EA502024
:104BF00040EAC370704710B5FFF747FFEDFFFF3E77
:104C00001CEAD11F02D000F00040704700487047F6
:104C10000000C07FFF2141EAD050C005704701006D
:104C200002000400060008000A000C00100020002A
:104C30004000800000010101010307010000080499
:104C40000204080101010000000000000000010250
:104C50000304060708090000000001020304010024
:104C6000000100000100000000010000010000013F
:104C7000000101000000000100000100000000012F
:104C800001000000000000004C5555555555A53F4A
:104C90007751C1166CC156BF9015CB19A001FA3ED1
:104CA000AD529C804F7E92BEC4B1B4BD9EEE213EFB
:104CB000D43888BEE9FAA8BD00004054FB21F93F72
:104CC0003163621A61B4D03D0000601A61B4D03D16
:104CD0007370032E8A19A33B0000002E8A19A33B90
:104CE000C14920259A837B390000000000000000A4
:104CF0006E83F9A22915444ED15727FCC0DD34F547
:104D0000999562DB4190433CAB6351FE61C5BBDECC
:104D10003A6E24B7E0D24D42EA2E49061C92D109E0
:104D20001CEB1DFE3EA729B1F53582E88444BB2E5D
:104D300026709CE9417E5FB439D69139F4395383AA
:104D40008B5F849C3B28F9BDFF97F81F0F9805DE09
:104D50008B112FEF1F6D0A5ACF7E366DB709CB2707
:104D6000663F464F2DEA5F9EC7BA27757BF1E5EB9C
:104D7000F739073DEA92528AB15FFB6B085D8D1FE0
:104D8000A6F810111111813FD561C119A0012ABFE8
:104D90007DFEB157E31DC73EEB9C2B8AE6E55ABE6C
:104DA0007CD5CF5A3AD9E53DC84D00080000002017
:104DB0003800000014020008004E000838000020EF
:104DC0009007000030020008100000000100000001
:104DD000000000000024F4000000000000000000BB
:104DE000000000000000E0400000404100004040A2
:104DF0000000000032000000000000000000000081
:04000005080001D915
:00000001FF
