:020000040800F2
:10000000B0080020F10100085B4F000825450008FA
:10001000594F0008910C00086562000800000000BC
:100020000000000000000000000000005D5000081B
:100030008F0E0008000000000D5000085F500008FF
:100040000B0200080B0200080B0200080B0200085C
:100050000B0200080B0200080B0200080B0200084C
:100060000B0200080B0200080B020008C90D000873
:10007000D50D00080B0200080B0200080B02000857
:100080000B020008000000000B0200080B02000831
:100090000B0200080B0200080B0200080B0200080C
:1000A0000B020008DD5000080B0200080B020008DC
:1000B000E9500008F55000080B0200082945000827
:1000C0000B0200080B0200080B0200080B020008DC
:1000D0000B0200080B020008596200080B0200081E
:1000E0000B0200080B0200080B0200080B020008BC
:1000F0000B0200080B0200080B02000800000000C1
:10010000000000000B020008000000000B020008C5
:100110000B020008000000000B0200080B020008A0
:100120000B0200080B0200080B0200080B0200087B
:100130000B02000800000000000000000B02000895
:100140000B0200080B020008000000000000000085
:10015000000000000000000000000000000000009F
:100160000000000000000000000000000B0200087A
:100170000B0200080000000000000000000000006A
:10018000000000000B02000800000000000000005A
:10019000000000000000000000000000000000005F
:1001A00000000000000000000B0200080B02000825
:1001B0000B0200080B0200080B0200080000000000
:1001C000000000000B02000800000000000000001A
:1001D0000B0200080B020008DFF810D000F0DEFB75
:1001E00000480047DD7C0008AFF30080B008002025
:1001F0000648804706480047FEE7FEE7FEE7FEE7C1
:10020000FEE7FEE7FEE7FEE7FEE7FEE7CD5000086B
:10021000D90100082DE9F05F0546002092469B4673
:1002200088460646814640241BE02846414647460C
:10023000224600F0ACF953465A46C01A914110D3F9
:1002400011461846224600F093F92D1A67EB010873
:100250004F4622460120002100F08AF917EB0009E1
:100260004E41201EA4F10104DFDC484631462A46F7
:100270004346BDE8F09FD2B201E000F8012B491ED1
:10028000FBD270470022F6E710B513460A46044633
:100290001946FFF7F0FF204610BD70B5064606F080
:1002A0002FF8046805460A220021304600F091F933
:1002B0002C6070BD2DE9FE4F804681EA0300C00F1F
:1002C0000C46009021F0004123F00045B8EB0200FD
:1002D000A94105D24046214690461C460B4602469F
:1002E00023F00040104347D0270DC7F30A00C3F3A3
:1002F0000A510290401A019040286BDAC3F31300B0
:1003000040F4801B0098924620B10023D2EB030AF0
:1003100063EB0B0B01985946C0F14002504600F0C8
:1003200027F906460D4650465946019A00F03FF916
:1003300010EB08006141002487EA115284EAE77358
:100340001A4340D0009A62B3019A012A4FEA075239
:1003500015DC001B61EB02014FF0004202EA07527C
:10036000CDE90042001C41F5801132462B4600F0D9
:10037000D7F903B0BDE8F08F40462146F9E7001BEE
:1003800061EB0201001C41F5801300185B4120184D
:10039000A2F5001747EB030140EAD570B6196D418D
:1003A00011E06D084FEA360645EAC0754FEA07527C
:1003B000001B61EB0201001C41F5801149084FEA66
:1003C00030000019514132462B4603B0BDE8F04FD2
:1003D00000F097B90098012240000023D0EB020200
:1003E00063EBE073009821464FEAE074B8EB00003D
:1003F00061EB0401E9E783F000435BE781F0004132
:1004000058E72DE9FE4F81EA030404F0004421F08F
:10041000004100944FF0000B23F0004350EA010428
:100420005ED052EA03045BD0C3F30A54C1F30A5509
:100430002C44A4F2F3340194A0FB0254C1F3130141
:1004400041F48011C3F3130343F4801301FB02440E
:1004500000FB034E840A970A44EA815447EA835713
:10046000A4FB076802958D0A05FB07854FEA932CCC
:1004700004FB0C542705029D4FEA065847EA16373D
:10048000B5EB08056EEB070C870E920E47EA811755
:1004900042EA8312A7FB0201B6EB0B0164EB0004F6
:1004A0002B0D43EA0C335E1844EB1C50DA465146E0
:1004B000E7FB0201C5F313044FEA0B3343EA14537D
:1004C0004FEA0432019C43EA0603A4F10C040294AF
:1004D000009CCDE900B400F023F903B0BDE8F08F33
:1004E00000200146F9E700F0004230F000400AD059
:1004F000C10D01F56071C0F3160042EA0151C20856
:1005000040071143704700200146704701F0004347
:1005100030B421F0004150EA010206D00A0DA2F5E4
:100520006072C1F31301002A02DC30BC0020704766
:10053000440F44EAC104C100E01830BC00EBC250D3
:1005400000F07FB830B50B46014600202022012480
:1005500009E021FA02F59D4205D303FA02F5491B91
:1005600004FA02F52844151EA2F10102F1DC30BDA7
:10057000202A04DB203A00FA02F100207047914063
:10058000C2F1200320FA03F3194390407047202A58
:1005900004DB203A21FA02F00021704721FA02F32D
:1005A000D040C2F120029140084319467047202AEA
:1005B00006DBCB17203A41FA02F043EAE07306E08B
:1005C00041FA02F3D040C2F120029140084319469B
:1005D00070472DE9F04791460F46804604460026B5
:1005E00014F8015B2DB100F0EBF90068405DC00725
:1005F000F6D12B2D02D02D2D18D0641E4A46394637
:10060000204600F0E1F927B13968A14201D1C7F8CD
:10061000008071054FF002040BD54042002803DD35
:1006200005F06EFE0460A007BDE8F08746F4806622
:10063000E4E70028F8DA05F063FE04606FF000409C
:10064000F2E70029A8BF7047401C490008BF20F00E
:100650000100704710B4B0FA80FC00FA0CF050EAC8
:10066000010404BF10BC704749B1CCF1200421FA49
:1006700004F411FA0CF118BF012121430843A3EB44
:100680000C01CB1D4FEA00614FEA102042BF002051
:1006900010BC704700EBC35010440029A4BF10BC2D
:1006A0007047401C490008BF20F0010010BC704793
:1006B000F0B400F0004221F0004120F00040CE0DE7
:1006C000C30DC1F3160141F40001C0F316004C4202
:1006D000154640F40000761E09E010EB440002D5F8
:1006E00082F0004240428842F7D840005B1EB3428D
:1006F000F9DA18B1F0BC0021FFF7ACBF2846F0BC16
:10070000704710B5141E73F1000408DA401C41F163
:10071000000192185B411A4301D120F0010010BD85
:100720002DE9F04D92469B4611B1B1FA81F202E0FB
:10073000B0FA80F220329046FFF71AFF04460F46C7
:1007400040EA0A0041EA0B0153465A46084313D0D7
:10075000114653EA010019D0C8F140025046FFF794
:1007600016FF05460E46504659464246FFF700FF23
:10077000084305D0012004E020463946BDE8F08D4D
:100780000020054346EAE0762C4337430A98630588
:10079000E40AA0EB08000022FD0A44EA47540A30AC
:1007A00002D500200146E9E7010510196941DDE99C
:1007B000084500196941BDE8F04DA2E72DE9F04D6B
:1007C00081EA030404F0004B21F0004514464FF089
:1007D000000A23F0004150EA050220D054EA010249
:1007E0001DD0C5F30A570246C5F31303C1F3130026
:1007F000C1F30A5640F4801543F48013A7EB0608B2
:10080000101BD64608F2FD3873EB050002D308F141
:10081000010801E092185B41B8F1000F03DA0020F3
:100820000146BDE8F08D00204FF480110646844655
:100830000EE0171B73EB050705D3121B63EB0503D3
:1008400006434CEA010C49084FEA300092185B411C
:1008500050EA0107EDD152EA030012D082EA040007
:1008600083EA0501084305D0101BAB4106D20122E3
:10087000002306E000224FF0004302E06FF0010287
:1008800053101AEB06004CEB085110EB0A0041EB39
:100890000B01BDE8F04DFFF734BF2DE9F04D00230B
:1008A0001A461B1A8A4103DB00200146BDE8F08D81
:1008B000C1F30A52C1F3130141F480154FF0000B4C
:1008C000D10702D100186D41521E0027044640F2A4
:1008D000FF11384601EB620A3E4680460246002080
:1008E0004FF48011FFF753FEC2197141BB1846EB5C
:1008F0000100B4EB030C75EB000C04D3E41A65EBB8
:10090000000517460E46241908F101006D41804686
:100910003428E3DDF91946EB0600091BA84103D290
:100920004FF0FF32134601E0002213461BEB070095
:1009300046EB0A51BDE8F04DFFF7E3BEC1F30A52A2
:10094000C1F3130140F2FF3341F480119A4202DAFD
:1009500000200146704740F233439A42A2F23342EC
:1009600002DC5242FFF713BEFFF702BE30B5041E91
:1009700071F1000404DB4FF00044404264EB0101DC
:10098000141E73F1000405DB1C464FF00043524275
:1009900063EB0403994208BF904230BD064C074DFB
:1009A00006E0E06840F0010394E80700984710343F
:1009B000AC42F6D3FFF714FCC07F0008E07F0008CC
:1009C00000487047BC7F00082DE9F05F8246007840
:1009D000002715468B460AF10104B946302801D09C
:1009E0009DB113E014F8010B0127782803D0582893
:1009F00001D045B10AE00DB1102D07D10027102517
:100A000014F8010B02E0082500E00A250026B04694
:100A10000EE005FB080005FB06F1012701EB10467F
:100A20001FFA80F8B6F5803F00D3B94614F8010BE1
:100A3000294600F055F80028EBDABBF1000F05D08D
:100A40000FB1641E00E05446CBF80040B9F1000F2E
:100A500006D005F055FC02210160C81EBDE8F09FDC
:100A600048EA0640FAE70EB5C10F80EAE070084494
:100A7000CA07002140F233438DE80E000A460B46B8
:100A8000FFF74EFE03B000BD0EB540F233410291B8
:100A90000021CDE900110A460B46FFF741FE03B0E5
:100AA00000BD70B5C1F30A5201F000450024C1F346
:100AB000130140F2FF3341F480119A4201DA002021
:100AC00070BD40F233439A42A2F2334203DC5242F9
:100AD000FFF75DFD00E090402C43F1D0404270BD37
:100AE0003A2800D2303820F02002412A01D3A2F166
:100AF0003700884201D34FF0FF30704710B5846A49
:100B0000E16D11F0500F06D0E16DC90625D52046E4
:100B100000F012FE10BDE06D40F40070E06520684A
:100B20000168090716D503F021FF78B12068C06875
:100B3000800400280ADBE06D20F48070E065E06D41
:100B4000C00403D4E06D40F00100E065204600F0F1
:100B5000F1FD10BDC0688007EBE7616D496BBDE832
:100B60001040084710B5806AC16D41F04001C16571
:100B7000016E41F00401016600F0DEFD10BD10B50C
:100B8000806A00F0D8FD10BDF8B504460020009042
:100B90002068816811F0010F41D18168214A11421A
:100BA0002ED18168D5432940491C81601E48806848
:100BB00000F0E07000020DD51C481D490068B0FB34
:100BC000F1F0401C00EB4000800000E0401E00906F
:100BD0000028FBD101F086FA06461BE0816811F07F
:100BE000010F03D181682940491C816001F07AFA24
:100BF000801B02280ED920680068C043C00709D0B6
:100C0000E06D40F01000E065206E40F001002066CD
:100C10000120F8BD20680168C943C907DED1002062
:100C2000F8BD00003F0000800003005014000020C9
:100C3000400D03001CB5FE2003F016FE0146A0F592
:100C4000A840493804D00CA005F00EFB00201CBDC4
:100C500000208DF8040045208DF8050027208DF830
:100C600006000A200090032301AA8021074801F012
:100C70008BFB01201CBD0000494E413232362065FD
:100C800072723A3078253034580D0A00F80100208D
:100C9000FEE700002DE9F047002425462E461420EB
:100CA00001F0EAF8DFF88C800027A8F1020900BF04
:100CB000B8F8001000EE104A00EE901AB9F80010D3
:100CC000B8F80200F8EE600A30EE200A00EE901A42
:100CD00010EE104AF8EE600A00EE105A30EE200ACC
:100CE00000EE900A012010EE105AF8EE600A00EEB5
:100CF000106A30EE200A10EE106A01F0BDF87F1C79
:100D0000642FD5DB00EE904A9FED0B0A094880EE78
:100D1000801A801D00EE905A80ED001A80EE801A35
:100D200000EE906A80ED011A80EE801A80ED021AC2
:100D3000BDE8F0873E0000200000C84210B50B4817
:100D400001F066FD0A4801F063FD0A4801F060FD0C
:100D500002220949094800F09DFE07490122BDE829
:100D60001040891E064800F095BE00004C0200208D
:100D700088020020C40200203E0000206000002005
:100D8000CC0000202DE9F0410E4C0746A51F9046EF
:100D90000E4694ED000A288804F03AF987ED000A1F
:100DA000A81E94ED010A008804F032F986ED000ACD
:100DB00094ED020A688804F02BF988ED000ABDE87A
:100DC000F081000044000020014800F04FBF000007
:100DD00038010020014800F049BF000098010020C0
:100DE00010B501680E4CCAB21423083AA14203D2CE
:100DF000B2FBF3F20B4904E0B2FBF3F209492031F4
:100E0000921D436C02F01F0223F003031944816416
:100E100004498031C16401219140016510BD000089
:100E200008040240000802400179084A01F07F01ED
:100E300002EB81024265054A4432491E826501F097
:100E40001F0201219140C16570470000FC0802406B
:100E500030B5D0E913456560446D14B1D0E916454D
:100E6000656090F8444004F01F050124AC40056C17
:100E70006C60046863608368102B036803D099601A
:100E80000068C26030BD9A600068C16030BD7047C4
:100E900010B501F027F906494A68801AC82803D915
:100EA0009FED040A81ED000A91ED000A10BD0000DB
:100EB000500000200000000010B50068406B0028C2
:100EC0000DD000EE100ADFED060A064CB8EE400A1F
:100ED00080EE801A84ED001A01F004F9606010BD04
:100EE0008096984A5000002010B5074C9FED050AE7
:100EF00084ED000A01F0F6F86060BDE81040034898
:100F000002F068BA000000005000002098030020A2
:100F100072B6FEE770B5B0EE001A2DED048BB0EEA0
:100F2000408A00EE810ADFED110AF0EE619A0C466C
:100F3000054660EE208AB0EE690A05F0ADFBF0EEE2
:100F4000400AB0EE690AB0EE609A05F041FA68EE28
:100F5000000A28EE800A48EE890A08EE490AC5ED23
:100F6000000A84ED000ABDEC048B70BD3ACD133F3E
:100F700010B52DED028B86B0F0EE408A9FED278AEA
:100F800002AA01A96846FFF7FDFE254C04A99DECC5
:100F9000030A03A8D4ED021AFFF7BCFF94ED030A7D
:100FA0009FED201AC0EE010A9FED1F0A60EE800A35
:100FB00094ED010A00EE880A84ED010A06F0E4FED1
:100FC00004F1140084ED010AD0ED000A20EE800A3D
:100FD00084ED020A06F0D8FE84ED020A9DED030AB4
:100FE000F0EE480A1148B1EE400A03F0C7FFF0EEF8
:100FF000403A9DED040A0D48F0EE480A38EEC00A6A
:10100000143003F0BBFF94ED021AF0EE630A00F017
:10101000D1F806B0BDEC028B10BD00006F12833A10
:101020001800002000007042DB0FC9408804002037
:1010300010B50021174802F011FE0421154802F0F6
:101040000DFE0821134802F009FE0021114802F0AC
:1010500065FA04210F4802F061FA08210D4802F0F8
:101060005DFADFED0D1AF2EE040AB6EE000AB0EEFC
:10107000611A0A4803F072FF0A48B0EE611ADFED08
:10108000080A90ED040A0548BDE81040143003F04A
:1010900065BF0000000300206666B640880400209B
:1010A00000000000180000200C49087898B10020CA
:1010B000087000280ED10A490A6850630A689063D4
:1010C0000968C86308489FED070A80ED020A1430DA
:1010D00080ED020A70470120EAE7000018000020B6
:1010E0000003002000000000880400202E484FF07C
:1010F0007E5190ED012AC0EE021A80EE820A11EEB6
:10110000900A8842C1EE020A9FED281A02DDF7EE2E
:10111000001A06E0F5EEC01AF1EE10FA01D2F0EE78
:10112000411A10EE100A884202DDB7EE000A06E00E
:10113000B5EEC00AF1EE10FA01D2B0EE410A10EE9F
:10114000900A884202DDF7EE000A06E0F5EEC00ADA
:10115000F1EE10FA01D2F0EE410A15490A68D06AA0
:1011600001EE100AB8EE411A21EE811ABCEEC11A46
:1011700011EE103A536301EE100A0B68B8EE411AF3
:1011800020EE010ABCEEC00A10EE102A9A6300EEAF
:10119000100A0968B8EE400A20EE800ABCEEC00AC8
:1011A00010EE100AC86370472C00002000000000F9
:1011B0000003002000B52DED028BF0EE408A85B0D3
:1011C000B0EE608AB0EE410A06F0DEFDB0EE401AE5
:1011D00004A903A8F0EE480AB0EE680A06F00EFD76
:1011E00002AA01A96846DDED040A9DED030A06F096
:1011F000A1FC1048F6EE000A90ED010A20EE200A4C
:10120000DDED000A70EE801ACDED001ADDED010A69
:1012100070EE800ACDED010A9DED021A31EE001A42
:10122000B0EE610A8DED021AFFF760FF05B0BDEC6C
:10123000028B00BD2C0000202DE9F047044690F8F9
:1012400058009CB00E464FF00009012815D001202F
:1012500084F8580000251795189520684FF0A0488D
:1012600040450ED1284F0097384603F07BFB82465D
:10127000206803F077FB60B10EE002201CB0BDE8EF
:10128000F087E06D40F02000E06584F858500120C0
:10129000F4E7BAF1000F09D0E06D40F02000E065FE
:1012A0004FF0010984F858504846E7E7174832687C
:1012B00040F61F71002A826822F4604216D094F82A
:1012C000383042EA433273681A438260D8F8082003
:1012D000BB6802F0010203F001031A43E2D1B368D4
:1012E00032681A4383688B431A430BE08260D8F854
:1012F0000820BB6802F0010203F001031A43D1D1B8
:1013000082688A438260CDE70001005000030050EC
:101310002DE9F84F00270446009790F85800DFF8B1
:10132000E0930D46B846012811D0012684F8586094
:10133000206803F013FB60B1E06D40F02000E06531
:101340005FF0010784F858803846BDE8F88F022026
:10135000FBE7D5E900210C23206803EA9113184428
:10136000036B01F01F014FF01F0C0CFA01FCC2F3DC
:10137000846223EA0C038A4013430363206803F06A
:10138000EDFA8246206803F0E5FA5AEA00003CD103
:10139000AA6829682068B2F1004F37D003F0EEFA4E
:1013A0002068416921F00041416120686969C26893
:1013B000C2F3C102520091402A69042A31D000EBE5
:1013C00082002B68026EDFF83CC303F0F84302EAA8
:1013D0000C020B431A4342F00041016620682A695F
:1013E000A96900EB8200026E22F080720A43026655
:1013F000297F22682869012910D0002102EB800092
:10140000026E22F000720A4302667DE0002203F0C1
:10141000B5FA2068416941F00041C5E74FF000711D
:10142000ECE7002103F090FA400320684FF0000140
:1014300072D003F089FA90FAA0F0B0FA80F128682F
:1014400042036ED090FAA0F0B0FA80F0814204D14D
:1014500000221146206803F0A0FA0121206803F061
:1014600073FA400320684FF001015DD003F06CFA7D
:1014700090FAA0F0B0FA80F12868420359D090FAAF
:10148000A0F0B0FA80F0814204D10022012120684E
:1014900003F083FA0221206803F056FA4003206823
:1014A0004FF0020148D003F04FFA90FAA0F0B0FAE2
:1014B00080F12868420344D090FAA0F0B0FA80F09E
:1014C000814204D100220221206803F066FA032140
:1014D000206803F039FA400320684FF0030133D04D
:1014E00003F032FA90FAA0F0B0FA80F128684203D3
:1014F0002FD090FAA0F0B0FA80F0814204D10022FF
:101500000321206803F049FA2068816811F0010F77
:1015100022D0ACE000E004E003F016FAC0F38461EE
:101520008DE7C0F3846091E703F00EFAC0F38461A5
:10153000A2E7C0F38460A6E703F006FAC0F3846173
:10154000B7E7C0F38460BBE703F0FEF9C0F3846142
:10155000CCE7C0F38460D0E72A7B296850F8B03F1D
:10156000C1F3120C23EA0C0302F0180C664A22FAAB
:101570000CF20A4013430360E968494577D12868B3
:1015800041031CD090FAA0F1B1FA81F1491C01F09D
:101590001F0109294FEA403132D8002912D000BF7B
:1015A00090FAA0F1B1FA81F101F1010101F01F01FE
:1015B00006FA01F609D100BFC0F3846109E0C0F367
:1015C0008461E3E7C0F38461EEE790FAA0F1B1FA39
:1015D00081F101F1010101F01F0146EA816102D1AF
:1015E000C0F3846003E090FAA0F0B0FA80F000F15C
:1015F000010000F01F0000EB400041EA005132E022
:1016000000290ED090FAA0F1B1FA81F101F10101A7
:1016100001F01F0106FA01F606D100BFC0F3846194
:1016200006E0C0F38461F1E790FAA0F1B1FA81F12C
:1016300001F1010101F01F0146EA816102D1C0F30D
:10164000846003E090FAA0F0B0FA80F000F10100AD
:1016500000F01F002D4A00EB400002EB005041EA71
:10166000000141F00071AA68206803F087F928485A
:101670002A6802423FF466AE26488168264B01F094
:10168000E0719A4202D0254B9A421CD10B021AD427
:101690002268B2F1A04F7FF455AE826841F4000198
:1016A00022F0E0720A4382601D481E490068B0FBC8
:1016B000F1F0401C00EB4000800000E0401E009074
:1016C0000028FBD13EE6184D184BAA4207D1CD01A8
:1016D00005D422689A42F5D041F0807109E0144D9A
:1016E000AA42EFD14A02EDD422689A42EAD041F4EC
:1016F0008001826822F0E0720A43826022E60000E4
:1017000000007F4000F0FF03FFFF0700000020FE05
:101710000000088000030050000021C31000C090AA
:1017200014000020400D0300000052C700010050CB
:10173000000084CB7047704770470000F8B54FF049
:10174000000504002E46009502D0E06D10B107E0C0
:101750000120F8BD204600F0EBF8266684F85860BA
:1017600020688168C1F3407119B18168684A1140ED
:10177000816020688168C1F3007189B98168654A18
:10178000114041F080518160634864490068B0FBBA
:10179000F1F04000801C00E0401E00900028FBD1CA
:1017A00020688168C1F3007141B9E16D41F0100119
:1017B000E165216E41F001012166012503F0CEF8BB
:1017C000E16DC90600D430B1E06D40F01000E06575
:1017D00001252846F8BDE06D20F4807040F002003D
:1017E000E0652068806810F0010F11D14FF0A04033
:1017F00080684B4900F00100896801F0010108434D
:1018000006D148486168826822F47C120A438260EB
:10181000E168E06B627F0843A16841EA4231084316
:1018200094F8241040EA0140012904D1218D3E4A58
:1018300002EB41410843E16A29B101F47871226B5E
:10184000014342EA01002268D168384B1940014344
:10185000D16020680169626B21F040611143016130
:10186000206803F077F870BB207F94F8381080036D
:1018700040EA41022168C86844F2020398431043D9
:10188000C86020690028206801690AD041F48031CD
:101890000161206850F8C01F22696FF30D011143E8
:1018A00007E021F480310161206850F8C01F6FF318
:1018B0000D01016094F8400001280CD020680169F6
:1018C00021F001010161606901282068016B21F0AC
:1018D0000F0111D013E0D4E911010843D4E9131228
:1018E0001143084321680A6940F2FC739A4310438C
:1018F00040F001000861E6E7226A521E11430163CD
:10190000E06D20F0020040F00100E06561E70000BA
:10191000C0FFFF5FC0FFFF7F14000020400D0300E9
:1019200000010050000300500000FEFF0740F0FFE0
:101930002DE9F04F97B00646142111A8FEF7A2FC3E
:1019400044216846FEF79EFC4FF4004031680025B4
:1019500082034A4F4A4C4FF003084FF080094FF47E
:10196000807A4FF4806BB1F1A04F10D0454B994273
:1019700051D10F920090684600F0C6FF08B1FFF702
:10198000C7FA3868401C3860012847D04EE00F92F3
:101990000090684600F0B8FF08B1FFF7B9FA386860
:1019A000401C3860012807D1E06C40F40050E0642E
:1019B000E06C00F400501690E06C40F00100E06430
:1019C000E06C00F001001690E06C40F00200E06472
:1019D000E06C11A900F0020016900420444681E852
:1019E00031004FF0904000F059FA11A9022081E82F
:1019F0003100254800F052FA254C244801C4052046
:101A0000E4E802052020A4E8200E64E80705204849
:101A10002CE07465A66217B0BDE8F08FE06C40F46E
:101A20000050E064E06C00F400501690E06C40F070
:101A30000100E064E06C139500F001001690402076
:101A4000CDE9110811A94FF0904000F027FA104C91
:101A50000E486034143001C42420E4E8020520203C
:101A6000A4E8200E64E807050948603000F05CF93E
:101A70000028CED0FFF74CFACBE700000000002092
:101A8000001002400001005000040048080002401D
:101A9000380100202DE9F0410446344817468846B5
:101AA000806800F01F05206802F058FF00285AD116
:101AB00094F85800012856D0012084F858000026D8
:101AC00025B1052D02D0092D00D003E02046FFF7F7
:101AD0005BF818B184F85860BDE8F081E06D40F61D
:101AE0000161884340F48070E065214920688842A4
:101AF00002D14FF0A04100E00146814200D01DB963
:101B0000E06D20F48010E065E06DC00404D5206E27
:101B100020F00600206600E02666616D1548C86268
:101B2000616D15480863616D1448486321681C2085
:101B3000086084F858602068416841F010014160F5
:101B40002068C16841F00101C16021683B464246FE
:101B50004031606D00F04AF921688A68084B1A40EC
:101B6000121D8A60B8E70220B6E7000000030050AB
:101B700000010050FD0A00087F0B0008650B0008FB
:101B8000C0FFFF7F10B5002140B190F82530012241
:101B9000022B05D00421C163012124E0012010BDE6
:101BA00003681C6824F001041C6003681C6824F0AE
:101BB0000E041C60836C1C6824F480741C6090F814
:101BC0004430046C03F01F0302FA03F36360D0E9AE
:101BD00013345C60436D33B11C6824F480741C6062
:101BE000D0E916345C6080F82520002280F824209B
:101BF000084610BD70B590F8252000240121234629
:101C0000022A07D00422C26380F8251080F824300D
:101C1000012429E00268156825F0010515600268B5
:101C2000156825F00E051560826C156825F4807521
:101C3000156090F84420056C02F01F0201FA02F2D0
:101C40006A60D0E913255560426D32B1156825F4FC
:101C500080751560D0E91625556080F8251080F84C
:101C60002430816B01B18847204670BDF0B4016C0F
:101C70000C6801680D6890F8442002F01F060422E9
:101C800002FA06F3234211D06B070FD50B689B06AF
:101C900003D40B6823F004030B6090F8441001F0A8
:101CA0001F018A40016C4A60016B1DE0022303FAA8
:101CB00006F727424FF0000C4FF0010218D0AF0793
:101CC00016D50C68A40605D40C6824F00A040C6030
:101CD00080F8252090F8441001F01F018B40016C22
:101CE0004B6080F824C0C16A00291AD0F0BC0847B4
:101CF0000823B340234214D02B0712D50B6823F0DE
:101D00000E030B6090F84410036C01F01F0102FAFF
:101D100001F15960C26380F8252080F824C0416B2E
:101D2000E2E7F0BC7047000070B504000CD02C4A0C
:101D300021681420914209D22A4A0A44B2FBF0F0E9
:101D40008000606428480AE0012070BD244A5242A5
:101D50000A44B2FBF0F08000606421480838206437
:101D6000022084F825000A6847F6F0708243D4E91F
:101D700002031843D4E904352B431843A3691843DD
:101D8000E3691843236A1843104308602046FFF7AD
:101D900027F8A0680025B0F5804F00D16560207954
:101DA000A16C00F07F000860D4E913014160606815
:101DB000401E032808D82046FFF736F8606D0560FE
:101DC000D4E91601416002E06565A565E565E56356
:101DD000012084F8250084F82450002070BD000004
:101DE00008040240F8FFFDBF0000024070B5044641
:101DF00090F82400002501280CD0012084F824004C
:101E000094F825600020012E06D084F824000225D5
:101E1000284670BD022070BD022684F82560E0636C
:101E20002068066826F0010606602046FFF710F8D5
:101E3000206B00282068016802D041F00E0106E006
:101E400021F0040101602068016841F00A0101608D
:101E5000A06C0168C90303D5016841F48071016079
:101E6000606D18B1016841F48071016020680168FB
:101E700041F001010160CBE770B5044600F032F992
:101E80000546601C02D004484068044400F02AF96A
:101E9000401BA042FAD370BD080000202DE9F04F8E
:101EA000DFF80C92002301260325A9F1040B85B06D
:101EB0000F2709F1040AABF1040EF1E006FA03FC66
:101EC00012EA0C027ED00C7904F00304012C01D03C
:101ED000022C20D1846800945C0005FA04F8049474
:101EE000009C24EA08040094D1F80C80049C08FAB1
:101EF00004F8009C48EA0408C0F80880446824EA12
:101F00000C0491F804C0CCF3001C0CFA03FC4CEA5E
:101F1000040CC0F804C00C79E443A40702D18C6817
:101F2000012C0ED0C4684FEA430805FA08FC24EAE5
:101F30000C04D1F808C00CFA08FC4CEA040CC0F8F8
:101F40000CC00C7904F00304022C16D1DC0800EB61
:101F5000840CCDF808C0DCF820C05C074FEAD468D8
:101F600007FA08F42CEA040C0C6904FA08F444EAB1
:101F70000C04DDF808C0CCF8204004684FEA4308A0
:101F800005FA08FC24EA0C0491F804C00CF0030CD8
:101F90000CFA08FC4CEA040CC0F800C04C6814F4BD
:101FA000403F7CD0434CD4F860C04CF0010CC4F8E6
:101FB00060C0246E23F0030C04F0010400943E4C36
:101FC000644400E06BE00294A4684FEA837C4FEA2B
:101FD0001C7807FA08FC24EA0C04B0F1904F06D0F4
:101FE000DFF8D8C0604505D14FF0010C20E04FF07C
:101FF000000C1DE0DFF8C8C0604502D14FF0020CB4
:1020000016E0DFF8C0C0604502D14FF0030C0FE0CE
:10201000DFF8B4C0604502D14FF0040C08E0DFF8EF
:10202000ACC0604502D14FF0050C01E04FF0060C4A
:102030000CFA08FC4CEA040C029CC4F808C0D9F85D
:102040000040CC46D1F8048094435FEAC82800D50C
:102050001443CCF80040DAF80040D446D1F80480AC
:1020600094435FEA882800D51443CCF80040DBF89D
:102070000040DC46D1F8048094435FEA883800D5FC
:102080001443CCF80040DEF80040F446D1F8048058
:1020900094435FEAC83800D51443CCF800405B1C79
:1020A0000C682246DC407FF409AF05B0BDE8F08F34
:1020B00008040140001002400000014000040048F4
:1020C00000080048000C00480010004800140048B8
:1020D0000069084000D0012070470AB18161704753
:1020E0008162704701488068704700000800002046
:1020F00090F84120202A24D190F84020012A20D0B5
:10210000012280F84020242280F8412002681368D0
:1021100023F0010313600268136823F480531360F3
:10212000026813680B43136001680A6842F00102F9
:102130000A60202180F84110002180F840100846F4
:1021400070470220704790F84120202A22D190F851
:102150004020012A1ED0012280F84020242280F84D
:1021600041200268136823F00103136002681368BA
:1021700023F4706343EA0121116001680A6842F0A8
:1021800001020A60202180F84110002180F84010EF
:102190000846704702207047026891691268436BD5
:1021A000002B00D01847704770B5040004D094F895
:1021B0004100002510B106E0012070BD84F84050B8
:1021C000204600F087F9242084F841002068016847
:1021D00021F0010101606068216820F070600861F1
:1021E0002068816821F400418160E0680128A068CE
:1021F00030D040F4044021688860E06802282068FC
:1022000041682AD021F40061416020684168144A85
:10221000114341602068C16821F40041C160D4E9E4
:1022200004010843A16940EA01202168C860D4E99B
:1022300007010843216808602068016841F0010136
:1022400001606564202084F84100256384F84250D1
:10225000002070BD40F40040CDE741F40061D3E7B9
:10226000008000022DE9F84F044690F84100DDF8A7
:1022700028A01F4690468B4620287ED194F8400027
:1022800001287AD0012084F84000FFF72BFF064692
:10229000012200901923D103204602F0FBF9E0BB94
:1022A000222084F84100102084F842000025656453
:1022B000C4F8248067856563618D3148FF274FF03E
:1022C00080784FF00079FF2903D927853A4600909E
:1022D00039E0618D218500903AE05946204602F0B0
:1022E000C1F913E002F014FAB8B92068406A616AD3
:1022F0000870606A401C6062208D401E80B220859C
:10230000618D491E6185618D01B168B1608D324674
:10231000002851462046E5D100E002E002F04CFAE8
:10232000D0B10120BDE8F88F53460022802120461D
:10233000009602F0AFF90028F3D1608DFF2804D990
:1023400027853A4600954346C7E7608D208500956E
:1023500094F828204B46C0E721682020C8612168F6
:102360004A68084B1A404A6084F8410084F8425099
:1023700084F840500020D5E7FFE70220D2E70000B4
:102380000024008000E800FE2DE9FF4F81B00446E4
:1023900090F84100DDF838B01F46904620287BD1E8
:1023A00094F84000012877D0012084F84000FFF71E
:1023B00099FE0646012200901923D103204602F01F
:1023C00069F9002853D1212084F84100102084F8B5
:1023D000420000256564C4F8248067856563608DCC
:1023E0003A49FF274FF080794FF0007AFF2802D951
:1023F00027854B4605E0608D208500045346000C80
:1024000010D0226898F800009062606A401C6062F8
:10241000608D401E6085208D401E2085401CC2B20C
:10242000009101E0002200912046029902F01AF981
:1024300014E000BF02F0EBF9C8B9606A21680078C7
:102440008862606A401C6062608D401E6085208DDD
:10245000401E80B22085618D01B160B1608D324631
:10246000002859462046E5D102F0A6F9E0B1012046
:1024700005B0BDE8F08F5B46002280212046009623
:1024800002F008F90028F2D1608DFF2805D92785D0
:102490003A464B460095C7E716E0608D20850095CB
:1024A00094F828205346BFE721682020C86121689E
:1024B0004A68074B1A404A6084F8410084F8425049
:1024C00084F840500020D3E70220D1E700200080AC
:1024D00000E800FE30B597B00446142111A8FDF7BE
:1024E000D1FE44216846FDF7CDFE1B492068884295
:1024F0002FD14020002500900695684600F004FA90
:1025000008B1FEF705FD154CE06C40F00200E064F8
:10251000E06C11A900F0020016904FF4C070119009
:102520001220CDE912050420CDE914500C48FFF724
:10253000B5FCA06D40F40010A065A06D002200F471
:102540000010169011461F2000F06CF81F2000F0BC
:102550005BF817B030BD000000540040001002408E
:102560000004004802488168426811448160704755
:102570000800002010B50024032000F073F80F209D
:1025800000F008F808B1012401E000F025F8204629
:1025900010BD000070B50E4E05460024706898B15D
:1025A0004FF47A71B1FBF0F00A490968B1FBF0F021
:1025B00000F038FE40B9102D06D200222946501EE8
:1025C00000F030F8356000E00124204670BD0000C6
:1025D00008000020140000200A4882B0016E41F07B
:1025E00001010166016E01F001010091816D41F070
:1025F00080518165806D00F08050009002B000F045
:102600007BB9000000100240002809DB00F01F0227
:10261000012191404009800000F1E020C0F8001144
:1026200070470000F0B40E4B1B680C46C3F3022346
:10263000C3F10705042D00D90425191D072901D26E
:10264000002300E0DB1E012606FA05F1491E2140A9
:1026500099409E40761E16403143F0BC03F03FBEC9
:102660000CED00E0064900F0070208684FF6FF0392
:10267000184040EA0220034A1043086070470000F7
:102680000CED00E00000FA05F8B504004FF000057D
:1026900014D094F83A00052810D094F83A00022893
:1026A0000CD03448016E41F001010166006E00F06B
:1026B0000100009094F83A0010B104E00120F8BD48
:1026C000002084F83900204600F058F8A0682A4A13
:1026D0004FF48071402836D0602834D020680368D9
:1026E000E66A23F0100333430360D4E9010318437F
:1026F000D4E9033633431843237D012B00D0002156
:102700000843616A0843A16A0843218E40EAC14038
:1027100094F8341040EA01612068036813401943BB
:10272000016020688169002909DBD4E906121143A0
:10273000226A836923F03F031A431143816194F8AD
:102740003A0090B114E020680368E66A23F01003B1
:1027500033430360D4E901031843267D2369012E26
:1027600000D000210B431843CBE7012084F83A0046
:102770002846F8BD00100240113E00E030B587B099
:10278000044614216846FDF77DFD24681D4D002296
:102790001D4903234FF09040AC4209D1CC6C44F06A
:1027A0000104CC64C96C01F0010105910E210CE01B
:1027B000144D2D1DAC4211D1CC6C44F00104CC64FD
:1027C000C96C01F001010591E021CDE900130292ED
:1027D0004FEA0D01FFF762FB07B030BD0948083032
:1027E0008442F9D1C86C40F00200C864C86C6946E4
:1027F00000F0020005900720CDE900030292034893
:10280000E8E7000000030140001002400004004817
:10281000002138B190F83A20052A03D090F83A20E8
:10282000012A02D00121084670470268136843F06C
:1028300001031360042280F83A20F4E72B492C4B63
:102840000A6832214A432B4940B1B0F5007F08683D
:1028500029D020F4C06040F480602CE00868C0F308
:102860004120022804D051F8800F20F4807022E02B
:10287000D1F8800020F48070C1F88000086820F44E
:10288000C06040F400700860B2FBF3F0401C00E050
:10289000401E4A69520501D50028F9D14869400512
:1028A0000AD503207047C0F34120022806D051F812
:1028B000800F40F48070086000207047D1F88000DD
:1028C00040F48070C1F88000086820F4C06040F4D3
:1028D00000700860B2FBF3F0401C00E0401E4A6943
:1028E0005205DBD50028F9D1D8E7000014000020FC
:1028F00040420F00007000400248816841F480416E
:1029000081607047007000402DE9F843044600687C
:1029100000269D4D00035ED5A86D0027C00008D499
:10292000A86D40F08050A865A86D012700F0805088
:102930000090DFF85892D9F8001041F48071C9F87E
:102940000010FFF7CFFB804606E000BFFFF7CAFB91
:10295000A0EB080002282BD8D9F80000C005F5D557
:10296000D5F8900010F4407014D0216C814211D041
:10297000D5F89000D5F8901020F4407041F48031E3
:10298000C5F89010D5F8901021F48031C5F890105A
:10299000C5F89000C00711D0FFF7A4FB804641F2B4
:1029A000883907E0FFF79EFBA0EB0801494501D9F4
:1029B00003260BE0D5F890008007F3D5D5F89000FA
:1029C000216C20F440700843C5F890001FB1A86D39
:1029D00020F08050A8652078C00707D0D5F888007F
:1029E000616820F003000843C5F88800207880075C
:1029F00007D5D5F88800A16820F00C000843C5F879
:102A000088002078400707D5D5F88800E16820F0D5
:102A100030000843C5F888002078000707D5D5F8AE
:102A20008800216920F0C0000843C5F8880020789C
:102A3000800607D5D5F88800616920F44060084316
:102A4000C5F888002078400607D5D5F88800A16928
:102A500020F440500843C5F888002078000607D5C8
:102A6000D5F88800E16920F440400843C5F88800A3
:102A70002088C00507D5D5F88800216A20F44030A9
:102A80000843C5F888002088800507D5D5F8880058
:102A9000616A20F440200843C5F88800208840057A
:102AA0000FD5D5F88800A16A20F440100843C5F876
:102AB0008800A06AB0F5801F03D1E86840F4801058
:102AC000E860208800050FD5D5F88800E16A20F479
:102AD00040000843C5F88800E06AB0F5800F03D1D4
:102AE000E86840F48010E8602088C0040FD5D5F86D
:102AF0008800216B20F040700843C5F88800206BE7
:102B0000B0F1807F03D1E86840F48010E86020884D
:102B10004FF0006180040ED5D5F88800626B20F07C
:102B200040601043C5F88800606B884203D1E868B4
:102B300040F48010E860208840040ED5D5F8880065
:102B4000A26B20F040601043C5F88800A06B88425B
:102B500003D1E86840F48010E860208800040FD5B5
:102B6000D5F88800E16B20F040500843C5F8880094
:102B7000E06BB0F1805F03D1E86840F48030E8603A
:102B80003046BDE8F88300000010024000700040AD
:102B90002DE9F0470E4605004FF0000725D0DFF87D
:102BA000AC81D8F8000000F00F00B0420CD2D8F889
:102BB000001021F00F013143C8F80010D8F80000D0
:102BC00000F00F00B04210D12968614CC80741F2F3
:102BD000883A5AD06868DFF87C91032808D0022828
:102BE00020682DD0400500282CDB0120BDE8F087AF
:102BF00020688001F9D5E06800F00302E068C0F3C6
:102C00000310401C032A19D0534A00BFB2FBF0F056
:102C1000E268C2F306225043E268C2F34162521CEA
:102C20005200B0FBF2F0484517D9A06810F0F00F41
:102C30000CD0880711D5A86840B10EE0474AE5E7F7
:102C40008003D0E700F0B6F8484506D9A06820F028
:102C5000F00040F08000A0608027A068696820F044
:102C600003000843A060FFF73DFA814606E000BF7D
:102C7000FFF738FAA0EB090151453AD8A068696816
:102C800000F00C00B0EB810FF2D12868810714D559
:102C9000400703D5A06840F4E060A06028780007F2
:102CA00005D5A06820F4605040F4E060A060A06802
:102CB000A96820F0F000084304E0802F03D1A06849
:102CC00020F0F000A060D8F80010404601F00F019D
:102CD000B14216D9016821F00F0131430160FFF7BD
:102CE00001FA074607E000BFFFF7FCF9C11B514599
:102CF00001D903207AE7D8F8000000F00F00B042B5
:102D0000F2D12878400705D5A068E96820F4E06092
:102D10000843A0602878000706D5A068296920F438
:102D2000605040EAC100A06000F044F8A1680C4A7D
:102D3000C1F30311515C01F01F01C840094908604B
:102D400009480068BDE8F047FFF724BC00200240B6
:102D50000010024000B4C4040024F40000127A0001
:102D6000DC7D00081400002008000020054806490A
:102D700000688968054AC1F30221515C01F01F0116
:102D8000C84070471400002000100240EC7D00088D
:102D90000548064900688968054AC1F3C221515CAB
:102DA00001F01F01C84070471400002000100240CD
:102DB000EC7D0008184910B58868C0F381021748F7
:102DC000012A0BD08A684310C2F38102022A06D07E
:102DD0008A68C2F38102032A03D0002010BD18467E
:102DE00010BDCA6802F00304CA68C2F30312521C81
:102DF000032C02D0B0FBF2F001E0B3FBF2F0CA68A2
:102E0000C968C2F306225043C1F34161491C49001D
:102E1000B0FBF1F010BD0000001002400024F400EF
:102E20002DE9F84304007AD02078F84DC00747D048
:102E3000A868E96800F00C0001F003010C2802D03A
:102E4000082817D001E0032914D06068B0F5803F4E
:102E500017D0B0F5A02F286817D020F48030286054
:102E6000286820F4802028606068E0B1FFF73AF914
:102E7000064614E02868800322D560680028D2D076
:102E80001EE0286840F48030EDE740F480202860A0
:102E9000F7E700BFFFF726F9801B642870D8286881
:102EA0008003F7D50CE0FFF71DF9064605E000BFEB
:102EB000FFF718F9801B6428F0D828688003F7D43E
:102EC000207880074CD5A868E96800F00C0001F074
:102ED00003010C2802D004280DD001E002290AD0F9
:102EE000E068002828682BD040F480702860FFF745
:102EF000F9F8064619E02868400502D5E068002880
:102F000091D06868217C20F0FE4040EA0160686052
:102F1000BF480068FFF73EFB002800D120E072E1C7
:102F2000FFF7E0F8801B0228B8D828684005F7D5DD
:102F30006868217C20F0FE4040EA016068600FE094
:102F400020F480702860FFF7CDF8064605E000BF4A
:102F5000FFF7C8F8801B0228A0D828684005F7D4DE
:102F60002078000729D560690028D5F8940013D08F
:102F700040F00100C5F89400FFF7B4F8064606E0FB
:102F800090E000BFFFF7AEF8801B022886D8D5F886
:102F900094008007F6D510E020F00100C5F89400F9
:102FA000FFF7A0F8064604E0FFF79CF8801B022814
:102FB00078D8D5F894008007F6D42078400761D5FA
:102FC000A86D0026C00008D4A86D40F08050A86508
:102FD000A86D012600F0805000908E480168C90558
:102FE00011D40168804641F480710160FFF77AF8DE
:102FF000074604E0FFF776F8C01B022852D8D8F83D
:103000000000C005F6D5A068012815D00528D5F820
:10301000900016D020F00100C5F89000D5F890007F
:1030200020F00400C5F89000A06841F28838B8B1DB
:10303000FFF758F807460EE0D5F8900040F0010081
:10304000F0E740F00400C5F89000F5E7FFF74AF814
:10305000C11B414526D8D5F890008007F6D50CE075
:10306000FFF740F8074604E0FFF73CF8C11B414575
:1030700018D8D5F890008007F6D41EB1A86D20F0BE
:103080008050A8652078800629D5A0690028D5F849
:10309000980013D040F00100C5F89800FFF722F81F
:1030A000064606E075E000BFFFF71CF8801B02280B
:1030B0006FD8D5F898008007F6D510E020F0010011
:1030C000C5F89800FFF70EF8064604E0FFF70AF887
:1030D000801B02285DD8D5F898008007F6D4E069F7
:1030E000F0B3A968C1F3810103295DD002282868E3
:1030F00020F08070286003D0FEF7F4FF04464BE018
:10310000FEF7F0FF064604E0FEF7ECFF801B022806
:103110003FD828688001F7D4F4E908016FF00F0266
:1031200002EB01110843218A5204490802EB415184
:10313000A26841EA02210843217D4FF07E424908FE
:1031400002EB41610843217B40EAC160E968324AF1
:1031500011400843E860286840F08070286000E073
:103160005EE0E86840F08070E860FEF7BBFF044670
:1031700005E000BFFEF7B6FF001B022809D828684B
:103180008001F7D54CE000BFFEF7ACFF001B022822
:1031900002D90320BDE8F88328688001F4D4E868E8
:1031A0001E490840E8603BE00128F3D0E868226A45
:1031B00000F00301914226D1616A00F0F00209019A
:1031C000103991421FD1A26A00F4FE41B1EB022FE7
:1031D00019D194F82C2000F07841B1EBC26F12D1D4
:1031E000218E00F4C00249084905A1F50011914261
:1031F00009D194F8341000F0C06049084906A1F1E3
:10320000007181420CD00120C4E700000010024090
:1032100008000020007000400C809F01FCFFEEFEC3
:103220000020B7E710B5401EB0F1807F01D3012028
:1032300010BD4FF0E02460610F21601703F04FF8DC
:103240000020A06107202061002010BD704770475A
:103250007047000030B590F83C20012A42D001228E
:1032600080F83C20CA688B6822F440721A434B688D
:1032700022F480621A430B6822F400621A430B693D
:1032800022F480521A434B6922F400521A430B6B0A
:1032900022F480421A430B8B22F4702242EA03424A
:1032A000CB6922F080521A430F4D03680024AB42D1
:1032B00002D00E4DAB4210D10D8D22F4700242EAC5
:1032C00005520D6A22F080722A434D6A22F0007284
:1032D0002A43C96A22F000520A435A6480F83C40EB
:1032E000002030BD022030BD002C014000340140E0
:1032F0007047704770B588B00E46040004D094F84B
:103300003D00002518B107E0012008B070BD84F829
:103310003C50204600F05CF8022084F83D00211D5E
:10332000206801F0EDFEB36831680322206802F0E6
:10333000A7F92068816921F00C0181612068816909
:103340007268114381612068416841F080014160E9
:10335000206881681B4A114081602068816841F0C3
:103360004001816020688168174A114081602068AF
:10337000816841F0040181607020059504950695EF
:10338000039502950090F06801906946206801F06D
:1033900093FF206841680D4A1140416020684168F0
:1033A00041F050014160012084F8480084F83E005B
:1033B00084F83F0084F8440084F8450084F83D0018
:1033C0000020A2E78FFFCFFFF8FFFEFF8FFFFFFD7A
:1033D0007047000010B590F83E30044690F83F204A
:1033E00090F8441090F84500012B05D1012A03D133
:1033F000012901D1012801D0012010BD022084F84B
:103400003E0084F83F0084F8440084F845002068BA
:10341000C16841F00201C16001220021206801F071
:10342000CBFE1049206888420ED0B0F1804F0BD0FF
:103430000D49884208D00D49884205D00C49884280
:1034400002D00C49884207D181680B4A11400629F5
:1034500006D0B1F5803F03D0016841F00101016061
:10346000002010BD002C0140000400400008004076
:103470000034014000400140070001007047000097
:10348000F0B590F83C20012A3AD0012580F83C5054
:10349000022280F83D2003685A689C68194E1A4F32
:1034A000B34201D0BB4204D122F4700C4A6842EA14
:1034B0000C02DFF858C002EA0C02D1F800C04CEA56
:1034C000020CC3F804C00268B2420DD0B2F1804FC2
:1034D0000AD00F4B9A4207D00E4B9A4204D0BA4200
:1034E00002D00D4B9A4204D1896824F0800319431D
:1034F000916080F83D50002180F83C100846F0BDF6
:103500000220F0BD002C0140003401408FFFFFFD80
:1035100000040040000800400040014010B504468F
:10352000022249B104290ED0082913D094F847008B
:10353000012816D0012010BD94F844000128F9D1CB
:1035400084F844200FE094F845000128F2D184F873
:10355000452008E094F846000128EBD184F8462085
:1035600001E084F847200422206801F032FE206840
:10357000416C41F4004141641049206888420ED0FA
:10358000B0F1804F0BD00E49884208D00D498842D7
:1035900005D00D49884202D00C49884207D1816884
:1035A0000B4A1140062906D0B1F5803F03D00168CF
:1035B00041F001010160002010BD0000002C01401D
:1035C0000004004000080040003401400040014079
:1035D00007000100704710B5040003D094F83D00C7
:1035E00010B107E0012010BD002084F83C00204607
:1035F00000F022F8022084F83D00211D206801F02F
:103600007FFD012084F8480084F83E0084F83F00E4
:1036100084F8400084F8410084F8420084F84300B4
:1036200084F8440084F8450084F8460084F8470094
:1036300084F83D00002010BD10B586B0044614216A
:103640006846FCF71FFE21681E48B1F1804F29D063
:103650001D4A914224D1816D41F002018165816D45
:1036600001F002010591C16C41F00401C164C06C1C
:10367000002100F0040005904FF4E070009002205B
:10368000CDE90101CDE9031069461048FEF706FCBB
:10369000002201211D20FEF7C5FF1D20FEF7B4FF0B
:1036A00006B010BD816D41F001018165806D002281
:1036B00000F00100059002211C20FEF7B3FF1C2042
:1036C000ECE7000000100240000400400008004841
:1036D00090F83D10012901D001207047022180F8A7
:1036E0003D100168CA6842F00102CA6000681049D2
:1036F00088420ED0B0F1804F0BD00E49884208D0DE
:103700000D49884205D00D49884202D00C498842B3
:1037100007D181680B4A1140062906D0B1F5803FD8
:1037200003D0016841F001010160002070470000F2
:10373000002C01400004004000080040003401401B
:10374000004001400700010070B5044690F83C00BD
:103750000025012814D0012684F83C60022084F85A
:103760003D0022689068364B184020F47F409060FE
:10377000086870282ED010DC10F00F0F03D021E065
:103780004FF0020070BD4FEA2012072A1AD2DFE87C
:1037900002F0525252524A3840002A4BC21A984202
:1037A00049D009DCB0F5805F0DD0B0F5005F1CD0CA
:1037B000B0F1101F06D13EE0102A3CD0202A3AD0AA
:1037C000502A38D0012584F83D60002084F83C0060
:1037D000284670BDCB68D1E90121206801F006FDC3
:1037E0002068816841F0770109E0CB68D1E90121C7
:1037F000206801F0FBFC2068816841F48041816011
:10380000E1E7CA684968206801F00CFF5021206890
:1038100006E0CA684968206801F07EFF60212068E0
:1038200001F0EEFCCFE7CA684968206801F0FAFEB3
:1038300040212068F4E7226801461046F0E70000C6
:1038400088FFCEFF20001000034A0168914201D199
:10385000FDF732BB70470000000400402DE9F04145
:1038600004460068C66805694FF00007A90713D52C
:10387000B10711D5F91E0161012020772068806908
:103880008007204602D0FFF7DFFF04E000F002F9D6
:10389000204600F0E1F92777680716D5700714D5A0
:1038A00021686FF004000861022020772068806999
:1038B00010F4407F204602D0FFF7C6FF04E000F07E
:1038C000E9F8204600F0C8F92777280715D5300712
:1038D00013D521686FF00800086104202077206864
:1038E000C0698007204602D0FFF7AEFF04E000F079
:1038F000D1F8204600F0B0F92777E80616D5F00693
:1039000014D521686FF01000086108202077206826
:10391000C06910F4407F204602D0FFF795FF04E015
:1039200000F0B8F8204600F097F92777E80708D0AC
:10393000F00706D021686FF001000861204600F012
:103940000BFA280601D4A80408D5300606D521684C
:103950006FF4025008612046FFF779FCE80508D5AE
:10396000300606D521686FF4807008612046FFF7A5
:103970006DFC680608D5700606D521686FF040001A
:103980000861204600F09FFAA80608D5B00606D5C3
:1039900021686FF0200008612046FFF759FCE8021B
:1039A00008D5F00206D521686FF480100861204622
:1039B000FFF79FFCA80208D5B00206D521686FF476
:1039C000001008612046FFF793FC680208D57002DA
:1039D00006D521686FF4800008612046FFF74EFD90
:1039E00028020AD5300208D521686FF4000008616A
:1039F0002046BDE8F041FFF7EDBDBDE8F0810000D5
:103A0000F0B587B0044614216846FCF73BFC1E491C
:103A10002068884236D11D48C16C41F00201C16462
:103A2000C16C01F002010591C16C41F00101C1645A
:103A3000C06C022500F0010005904FF4005000908A
:103A40000024CDE901540626114FCDE9034669460D
:103A50003846FEF723FAA8030090CDE9015404206C
:103A6000CDE9034069463846FEF718FA4FF4B850DE
:103A70000090CDE90154CDE9034669464FF09040EE
:103A8000FEF70CFA07B0F0BD002C01400010024018
:103A900000040048704770B5044690F83C000026CA
:103AA0000D4601280BD0012084F83C000C2A4AD096
:103AB00007DC82B1042A20D0082A06D131E0022096
:103AC00070BD102A53D0142A63D00126002084F838
:103AD0003C00304670BD206801F09CFB2068816985
:103AE00041F0080181612068816921F00401816150
:103AF000206881692A69114311E0206801F0DCFB2C
:103B00002068816941F4006181612068816921F444
:103B100080618161206881692A6941EA02218161AD
:103B2000D4E7206801F012FC2068C16941F0080167
:103B3000C1612068C16921F00401C1612068C169C7
:103B40002A69114311E0206801F04AFC2068C1692C
:103B500041F40061C1612068C16921F48061C161E3
:103B60002068C1692A6941EA0221C161AEE7206883
:103B700001F080FC2068016D41F0080101652068BA
:103B8000016D21F0040101652068016D2A6911436E
:103B900011E0206801F0A6FC2068016D41F400618D
:103BA00001652068016D21F4806101652068016D67
:103BB0002A6941EA0221016588E710B5040003D0B3
:103BC00094F83D0010B107E0012010BD002084F8FA
:103BD0003C00204600F022F8022084F83D00211D20
:103BE000206801F08DFA012084F8480084F83E0036
:103BF00084F83F0084F8400084F8410084F84200D3
:103C000084F8430084F8440084F8450084F84600B2
:103C100084F8470084F83D00002010BD08B5006816
:103C20000B49884212D10B48016E41F400610166D4
:103C3000006E002200F40060009011461920FEF78B
:103C4000F1FCBDE808401920FEF7DEBC08BD00000D
:103C5000002C0140001002407047000030B50446BF
:103C6000022269B1042912D0082917D00C291CD0CE
:103C7000102921D094F84300012824D0012030BD20
:103C800094F83E000128F9D184F83E201DE094F814
:103C90003F000128F2D184F83F2016E094F840005C
:103CA0000128EBD184F840200FE094F8410001286E
:103CB000E4D184F8412008E094F842000128DDD1E5
:103CC00084F8422001E084F843200122206801F0BA
:103CD00073FA194B20681949194A984209D0884249
:103CE00007D0904205D0174DA84202D0164DA842E9
:103CF00003D1456C45F400454564206898420CD0DA
:103D0000B0F1804F09D0114B984206D0104B984229
:103D100003D0884201D0904207D181680D4A1140FA
:103D2000062906D0B1F5803F03D0016841F00101BA
:103D30000160002030BD0000002C01400034014033
:103D400000400140004401400048014000040040A0
:103D500000080040070001002DE9F04F006893B013
:103D6000B0F1804F5DD13048007820B12F4890ED00
:103D7000000AFDF7FDF82E480188491C89B2018030
:103D800064294ED30021018010AA0FA90EA8FCF7C8
:103D9000F9FF284A12A911A8D2ED001A0EAA92EC36
:103DA000030AFDF7B7F81298FCF79DFB06460F468D
:103DB0001198FCF798FB04460D461098FCF793FB0E
:103DC000CDE902010F98FCF78EFBCDE900010E98BA
:103DD000FCF789FB824618488B460068FCF783FB9A
:103DE00089468046FDF754F810EE100AFCF77BFB7D
:103DF00041EC100B0AA99FED111B81E8F000DDE9F1
:103E00000201CDE90801DDE90001CDE9060102A9C1
:103E100053EC102B81E8000F8DED001B09A002F080
:103E200023FA13B0BDE8F08F1800002038000020FE
:103E300004000020200000202800002000000000D6
:103E400000000000252E31662C252E32662C252EF2
:103E500033662C252E32662C252E32662C252E32EA
:103E6000662C252E32662C252E32660D0A000000A7
:103E700070B5044690F83C00012812D0012584F862
:103E80003C50022084F83D00204601F063FB010015
:103E90004FF0000007D084F83D5084F83C0001202A
:103EA00070BD022070BD2168CA6822F04002CA605D
:103EB0002168CA6822F48042CA6084F83D5084F8C0
:103EC0003C00002070BD704790F88410012918D084
:103ED000012180F884102421C0F8881001680A6844
:103EE0000B6823F001030B6022F0005100224266B0
:103EF000036819602021C0F8881080F884201046DB
:103F00007047022070477047704770B5044690F8BC
:103F1000840001281DD0012084F884002420C4F8E6
:103F2000880020680568026822F0010202602068AB
:103F3000826822F060620A438260204601F00CFC35
:103F4000206805602020C4F88800002084F88400E0
:103F500070BD022070BD70B5044690F88400012841
:103F60001DD0012084F884002420C4F88800206833
:103F70000568026822F0010202602068826822F06F
:103F800060420A438260204601F0E6FB206805603B
:103F90002020C4F88800002084F8840070BD02202E
:103FA00070BD7047704770472DE9F04103680446C3
:103FB000D86919689A6840F60F0528424FF0000545
:103FC0004FF002060AD187067ED501F0200702F0E5
:103FD000805C57EA0C0777D0616F42E1B64FDFF89B
:103FE000DCC2174001EA0C0C57EA0C0C6CD05FEAFB
:103FF000C07C0CD05FEAC15C09D54FF0010CC3F85E
:1040000020C0D4F8903043F00103C4F89030830707
:1040100009D5D30707D023681E62D4F8903043F047
:104020000403C4F8903043070AD5D30708D02668A4
:1040300004233362D4F8903043F00203C4F8903084
:1040400003070CD501F020033B4308D02668082362
:104050003362D4F8903043F00803C4F8903003057D
:104060000BD54B0109D526684FF400633362D4F8B1
:10407000903043F02003C4F89030D4F89030002BF7
:104080003DD0800609D501F0200002F080510843A0
:1040900003D0616F09B120468847D4F890002168A9
:1040A0008968490602D410F0280F2AD0204601F072
:1040B00035FC2068806840061ED52068083050E82E
:1040C000001F21F0400100E021E040E80012002A3A
:1040D000F3D1D4F8800078B179498163D4F88000B5
:1040E000FDF788FD00280AD0D4F88000816B00E03D
:1040F0002046BDE8F04108472046FFF754FFBDE8E1
:10410000F0812046FFF74FFFC4F89050F7E7D4F84E
:104110006CC02027BCF1010F7ED15FEAC06C7BD55B
:104120005FEAC16C78D5102018622068806840066C
:1041300051D5D4F880100A6850680004000C3ED0B5
:10414000B4F85C3083423AD9A4F85E00086800688D
:1041500080062CD4216851E8000F20F4807041E8DB
:104160000002002AF6D12068083050E8001F21F034
:10417000010140E80012002AF5D12068083050E81B
:10418000001F21F0400140E80012002AF5D1C4F8D8
:104190008C70E566216851E8000F20F0100041E8BE
:1041A0000002002AF6D1D4F88000FDF7EBFC266768
:1041B000B4F85C00B4F85E10401A81B207E0B4F8BD
:1041C0005C1081429BD11068800698D526672046F6
:1041D000FFF799FE93E7B4F85C00B4F85E10401A5C
:1041E00081B2B4F85E00002889D0002987D0226807
:1041F00052E8000F20F4907042E80003002BF6D143
:104200002D4BDB432068083050E8002F1A4040E86F
:10421000002CBCF1000F00E00EE0F3D1C4F88C706C
:10422000E5666567206850E8002F22F0100240E83C
:104230000023002BF6D1C9E7C60209D5560207D5DF
:104240004FF4801018622046BDE8F041FFF7AABE87
:1042500003060AD501F0800302F40002134304D0E0
:10426000A16F00297FF444AF49E7420611D54A0601
:104270000FD52046016851E8002F22F0400241E8A6
:104280000023002BF6D1C0F88870856700F049F94B
:1042900035E7020206D54A0004D52046BDE8F041C4
:1042A000FFF77FBEC00195D5002993DA2046BDE80F
:1042B000F041FFF729BE00000100001020010004BA
:1042C0001159000810B5040003D0D4F8880010B1CB
:1042D00007E0012010BD002084F88400204600F093
:1042E00027F82420C4F888002068016821F0010123
:1042F0000160A06A10B1204601F050FA204601F09A
:104300009FFD0128E6D02068416821F4904141607A
:104310002068816821F02A0181602068016841F0ED
:10432000010101602046BDE8104001F09BBA000089
:1043300030B597B00446142111A8FBF7A3FF442120
:104340006846FBF79FFF1A49206888422DD1022555
:104350000024684600950294FEF7D6FA08B1FCF7EF
:10436000D7FD1448816D41F400318165816D01F400
:1043700000311691C16C41F00201C164C06CCDE9FD
:10438000125400F002001690182011900720CDE979
:10439000144011A90848FDF781FD002203212620C1
:1043A000FEF740F92620FEF72FF917B030BD0000C8
:1043B00000440040001002400004004830B4D0F82F
:1043C0008C30202B02D0022030BC7047A9B1A2B1A2
:1043D0000023C3660A4C0368A3420BD05B681B0230
:1043E00008D5046854E8003F43F0806344E8003592
:1043F000002DF6D130BC01F05DBE0120E4E70000E5
:104400000080004070B500681449884224D1154CE2
:10441000134D2078295C0D290ED00A290CD00F28C5
:1044200001D2401C2070207801222918BDE870407C
:104430000B481030FFF7C2BF00262E540848FBF788
:104440002CFF002806DD00EE100A0748B8EEC00A6F
:1044500080ED000A2670E6E770BD000000440040D1
:10446000E403002006000020240000202DE9F84F7E
:104470000446D0F88800984615460E46202802D0FB
:104480000220BDE8F88F96B38DB30020C4F89000E9
:104490004FF02109C4F888901834FDF723FEA58752
:1044A0008246E58754F8100C183CB0F5805F01D1C6
:1044B000206910B13546002600E000255FF0200796
:1044C000B4F8560053464FF00002CDF80080D8B142
:1044D0008021204601F076FED8B955B115F8010BC0
:1044E00021688862D4F8881039EA010006D00120DA
:1044F000C7E736F8020BC0F30800F1E7B4F856003E
:10450000401EA4F85600DBE74021204601F05AFE89
:1045100018B1C4F888700320B3E7C4F8887000208D
:10452000AFE77047FEE700000148FDF735BE000029
:10453000F801002001688A69D243920701D4002261
:104540008A6200688169C943C90703D0816941F063
:1045500001018161704700002DE9F04704460068C1
:1045600089460026816935461746C9064FF020085E
:1045700041D51021C1612FE0B9F1FF3F2CD0FDF7EB
:10458000B1FDC11B494502D8B9F1000F24D1206803
:10459000416894F8422001F480418369DB431B04A5
:1045A00015D4B1F5804F12D0202A10D0416841F4C3
:1045B00080414160FDF796FD074608E0FDF792FD5A
:1045C000C01B192803D945F02005012604E0206806
:1045D0008069C0438006F1D420688069C0438006AA
:1045E00002D5002EC8D003E016B92168C1F81C809E
:1045F00045F00405012621688869C20505D54FF4F8
:10460000807245F00105CA610126410509D522687D
:104610004FF4806145F00805D1610126800502D480
:104620000AE0800507D521684FF4007045F00205C7
:10463000C861012600E086B12046FFF77BFF54F8F1
:10464000240B4168064A11404160206A28432062D9
:1046500084F81D800020A07720773046BDE8F087E1
:1046600000E800FE10B5C1F3090141EA0241026809
:10467000029C19432143506821F000414FF48063AC
:1046800003EA5453024C234398430843506010BD3F
:10469000FF63FF032DE9F0411D4617460E46044611
:1046A000DDF8188027E0424629462046FFF754FFF0
:1046B00010B10120BDE8F081681C1CD0FDF712FD8F
:1046C000A0EB0800A84200D8ADB92068806936EA9E
:1046D00000000ED00020B8420DD154F8440F40F035
:1046E000200044F80409202060700020A070207091
:1046F000DFE70120EFE72068806936EA000004D098
:104700000020B842CFD00020D4E70120F9E7000014
:104710002DE9F04700259146884604462E4620277D
:104720003DE04A4641462046FFF716FF00B101250D
:1047300020688169C943890619D4C5B9816981692D
:10474000C943C90612D41021C161042060642068E5
:10475000C76120684168174A1140416084F8417080
:1047600084F8426084F84060012500E06664FDF74B
:10477000B9FCA0EB0901414502D8B8F1000F0ED1F8
:104780006DB920688069C043400708D5606C40F06F
:104790002000606484F8417084F84060012520683E
:1047A0008069C043400701D5002DBAD02846BDE836
:1047B000F087000000E800FE70B516460D4604467E
:1047C0001EE0324629462046FFF7C6FE08B101200A
:1047D00070BDFDF787FC801BA84200D885B9206812
:1047E0008069C04380060BD554F8440F40F0200088
:1047F00044F80409202060700020A0702070E6E7D3
:1048000020688069C0438006DBD4002070BD70B58D
:1048100016460D46044620E0324629462046FFF75C
:104820009BFE08B1012070BD681C16D0FDF75AFC34
:10483000801BA84200D885B920688069C0438007E2
:104840000BD554F8440F40F0200044F80409202010
:1048500060700020A0702070E4E720688069C04389
:104860008007D9D4002070BD11B583B000200A2480
:10487000CDE90040012303AA80210748FDF784FD0C
:10488000022301AA802104480094FDF7EBFCBDF847
:10489000040004B040BA10BDF801002070B5274CE8
:1048A00004212046FDF714FC012808D11420FDF74F
:1048B000E3FA04212046FDF70BFC012807D0204C29
:1048C00040212046FDF704FC012808D010E0042117
:1048D0002046FDF7FDFB0128F9D0012070BD142012
:1048E000FDF7CAFA40212046FDF7F2FB012809D066
:1048F000144D4FF4007421462846FDF7E9FB0128CA
:1049000008D010E040212046FDF7E2FB0128F9D055
:10491000022070BD1420FDF7AFFA21462846FDF7AE
:10492000D7FB012801D0002070BD21462846FDF7A5
:10493000CFFB0128F9D0032070BD0000000C004817
:10494000000400480008004800EB8100006E00F001
:10495000F84070478068C0F3C00070478068C0F3BB
:10496000800070478068C0F380007047C06810F412
:10497000406F01D00020704701207047042303EAF4
:10498000D15310B518444369C1F3045107248C4036
:10499000A3438A401343436110BD00EB8100016EC5
:1049A00021F00041114301667047000030B58BB023
:1049B000002408940994202168460A94FBF762FCBD
:1049C00024484FF0A041082201604FF44031C0E973
:1049D0000114C46001210461C0E905120477447721
:1049E0000225056280F824404FF4A462C2628A0264
:1049F000026380F83810C46380F84040FCF79EFEE4
:104A000008B1FCF785FA08A912480894FCF714FCD1
:104A100008B1FCF77DFA104800900620CDE90105A9
:104A20007F2003900420CDE9040469460948FCF77F
:104A30006FFC08B1FCF76CFA084800900C2001905C
:104A400069460448FCF764FC002801D0FCF760FAD2
:104A50000BB030BD600000200800900C00106032E8
:104A600030B589B020216846FBF70CFC1B481A4979
:104A7000002401604FF44031C0E90114C4600425F2
:104A80000461C0E90545047744770121016280F89B
:104A900024404FF4A462C2628A02026380F8381094
:104AA000C46380F84040FCF749FE08B1FCF730FAD7
:104AB0000B48009006200190022002907F20059470
:104AC000CDE9030569460548FCF722FC002801D022
:104AD000FCF71EFA09B030BD00010050CC000020E8
:104AE0000800900C114808B5816C41F00401816404
:104AF000816C01F004010091816C41F0010181643D
:104B0000806C002200F00100009011460B20FDF7A0
:104B100089FD0B20FDF778FD002211460C20FDF7E2
:104B200081FDBDE808400C20FDF76EBD001002407D
:104B3000F0B587B014216846FBF7A4FB3148C16C7F
:104B400041F00401C164C16C01F004010591C16C24
:104B500041F02001C164C16C01F020010591C16CDC
:104B600041F00101C164C16C01F001010591C16C0A
:104B700041F00201C164C16C01F002010591C16CF8
:104B800041F00801C164C06C012200F008001E4E13
:104B90009403059021463046FDF79FFA1B4F0122F2
:104BA00020213846FDF799FA0125CDE9004500247A
:104BB0000294694630460394FDF770F96802CDE926
:104BC0000004694630460294FDF768F90420CDE9F7
:104BD000000469460E480294FDF760F92020009019
:104BE000CDE90154694638460394FDF757F9402052
:104BF000CDE90004694638460294FDF74FF907B045
:104C0000F0BD000000100240000800480004004809
:104C1000000C0048134810B5114901601249416069
:104C200000210122C0E90212016141618161C1617B
:104C30000162FDF7B9FA08B1FCF76AF900210948E9
:104C4000FDF756FA08B1FCF763F900210548FDF7B6
:104C50007AFA002803D0BDE81040FCF759B910BD1E
:104C600000540040F8010020F2A6E1100B4810B5F6
:104C700009490160002141608160C16001610175E5
:104C80008161C162FDF700FD002803D0BDE810403E
:104C9000FCF73EB910BD0000000301404C020020AB
:104CA0000B4810B509490160002141608160C16075
:104CB000016101758161C162FDF7E6FC002803D046
:104CC000BDE81040FCF724B910BD0000040301400A
:104CD000880200200B4810B509490160002141609D
:104CE0008160C160016101758161C162FDF7CCFC29
:104CF000002803D0BDE81040FCF70AB910BD000041
:104D000008030140C402002030B597B00024149479
:104D100015941C210DA81694FBF7B4FA34216846AB
:104D2000FBF7B0FA2D482C49202501602121C0E96C
:104D300001156321C0E903148021C0E90541FEF794
:104D40003CFF08B1FCF7E4F8CDE9145414A923485A
:104D50001694FEF795FB08B1FCF7DAF86020CDE970
:104D60000D040F9410941194129400220DA91B4865
:104D70001394FEF790FE08B1FCF7CAF804220DA9BF
:104D80001648FEF788FE08B1FCF7C2F808220DA904
:104D90001248FEF780FE08B1FCF7BAF80A20CDE908
:104DA000024000944FF40050CDE904400003CDE9E7
:104DB00008400194069407940A940B9469460748A6
:104DC0000C94FEF747FA08B1FCF7A2F80348FEF787
:104DD00017FE17B030BD0000002C0140000300207A
:104DE00010B588B0002417480094019402940394ED
:104DF000049405944FF0804106940160A921C0E914
:104E0000011440F2E731C0E903148461FEF7E3FBCB
:104E100008B1FCF77DF84FF48050009069460948CE
:104E2000FEF792FC08B1FCF773F8049404A9054856
:104E30000694FEF725FB002801D0FCF769F808B0BE
:104E400010BD00004C03002010B590B000240A945F
:104E5000264809940B940C940094039401940294B2
:104E60000D940E9420490F940160A921C0E901140A
:104E70004FF6FF71C0E903148461FEF7ACFB08B183
:104E8000FCF746F84FF48050099009A91748FEF73F
:104E90005BFC08B1FCF73CF800940194029469466D
:104EA00012480394FEF726FA08B1FCF731F85020B7
:104EB0000D900DA90F940D48FEF7E2FA08B1FCF72A
:104EC00027F8142104A8FBF7DDF904200490402002
:104ED000059004A90548FEF7CBFF002801D0FCF798
:104EE00017F810B010BD0000000400409803002027
:104EF000184810B5164901604FF4E13141600021B6
:104F000081600C22C160C0E904128161C16101624B
:104F100041628162FFF7D6F908B1FBF7F9FF002182
:104F20000C48FFF718F808B1FBF7F2FF0021094819
:104F3000FEF7EBFF08B1FBF7EBFF0648FEF7C4FFF7
:104F4000002803D0BDE81040FBF7E2BF10BD000011
:104F500000440040F4030020FEE7FEE780EC020A74
:104F60009FED050A80ED020A80ED031AB1EE410AB9
:104F700080ED040A704700000000000090ED001A68
:104F800090ED022AD0ED031A61EE002A90ED041A8A
:104F900032EE223AF4EEC31AF1EE10FA04DDB4EE6A
:104FA000C31AF1EE10FA06D322EE003AB5EEC03A7B
:104FB000F1EE10FA07D290ED013A23EE000A00EE6E
:104FC000202A80ED022AB4EEE12AF1EE10FA01DD8A
:104FD000C0ED021A90ED020AB4EEC10AF1EE10FA29
:104FE00001D280ED021A90ED020A30EE220AF4EEB0
:104FF000C01AF1EE10FA01D2B0EE610AB4EEC01A96
:10500000F1EE10FA01DDB0EE410A70477047000082
:1050100000EE900A9FED0E1AF8EE600A30EEC00A1C
:10502000DFED090A30EE200ADFED080A60EE200A03
:1050300080EE810ADFED070A9FED071A70EE600A25
:1050400080EE810A70470000000000453333534072
:1050500000F07F453333D33F90C2F53C7047FDF7F6
:1050600081BA10B594B038216846FBF70BF91421CA
:105070000EA8FBF707F90020FDF7E0FB01200090E8
:105080000004019002200324CDE907045521CDE955
:1050900009010B900C900D906846FDF7C1FE08B118
:1050A00072B6FEE70F20CDE90E04002010904FF4F9
:1050B00080601190129004210EA8FDF769FD002870
:1050C00001D072B6FEE714B010BD000002480168BE
:1050D00041F470010160704788ED00E00148FEF77F
:1050E000BDBB0000000300200148FEF7B7BB000075
:1050F0004C0300200148FEF7B1BB000098030020DC
:105100002DE9F0430268254B254D264E264C4FF0E5
:105110008049984207D0484505D0A84203D0B04204
:1051200001D0A04203D122F070074A683A431F4FD2
:10513000DFF87CC0DFF87C8098420DD048450BD06A
:10514000A84209D0B04207D0A04205D0B84203D04F
:10515000604501D0404503D122F44075CA682A4316
:105160004D6922F080022A438D68C5620D68856210
:10517000984207D0A04205D0B84203D0604501D084
:10518000404501D109690163016841F004010160F2
:10519000012141610260BDE8F0830000002C014064
:1051A000000400400008004000340140004001407D
:1051B000004401400048014010B501F01F030121E7
:1051C000046A99408C430462016A9A401143016267
:1051D00010BD10B501F00F030421046A99408C43FF
:1051E0000462016A9A401143016210BD10B58468DF
:1051F00042EA032224F47F440A432243826010BD22
:105200008268034B1A400A4342F0070181607047ED
:105210008FFFCFFF2DE9F043056A026A22F00102F9
:105220000262436882691E4C25F0020522400C6828
:1052300022F0030214438A681B4E2A43194D1B4F68
:10524000DFF86CC0DFF86C90A84207D0B04205D000
:10525000B84203D0604501D048450AD1D0F820803B
:1052600028F00408C0F8208022F00808CA6842EA42
:105270000802A84207D0B04205D0B84203D060452A
:1052800001D0484505D14D6923F440731D438B6916
:105290002B4343608461496841630262BDE8F08347
:1052A0008FFFFEFF002C0140003401400040014010
:1052B0000044014000480140F0B5056A026A22F04E
:1052C00010020262426883691A4C1C4E23400C682B
:1052D00023F4407343EA042425F020038D6843EA55
:1052E0000513154DA84201D0B04208D1076A27F036
:1052F00040070762CF6823F0800343EA0713A84200
:105300000AD0B04208D00E4DA84205D00D4DA8429B
:1053100002D00D4DA84207D14D6922F4406242EA05
:1053200085028D6942EA8502426084614968816331
:105330000362F0BDFF8FFFFE002C014000340140EE
:10534000004001400044014000480140F0B5056ABA
:10535000026A22F4807202624268C3691A4C1C4ECF
:1053600023400C6823F003031C4325F400738D686D
:1053700043EA0523154DA84201D0B04208D1076A7F
:1053800027F480670762CF6823F4006343EA0723AA
:10539000A8420AD0B04208D00E4DA84205D00E4D0A
:1053A000A84202D00D4DA84207D14D6922F44052C7
:1053B00042EA05128D6942EA05124260C4614968F9
:1053C000C1630362F0BD00008FFFFEFF002C0140AF
:1053D00000340140004001400044014000480140C9
:1053E000F0B5056A026A22F4805202624268C3691B
:1053F0001A4C1C4E23400C6823F4407343EA0424E7
:1054000025F400538D6843EA0533154DA84201D0B9
:10541000B04208D1076A27F480470762CF6823F4B7
:10542000004343EA0733A8420AD0B04208D00E4DE9
:10543000A84205D00D4DA84202D00D4DA84207D17B
:105440004D6922F4404242EA85128D6942EA851292
:105450004260C461496801640362F0BDFF8FFFFED2
:10546000002C014000340140004001400044014054
:105470000048014030B5056A026A22F480320262B7
:105480004268036D114C23400C681C4325F4003323
:105490000D8943EA05430E4DA8420BD00D4DA8429D
:1054A00008D00D4DA84205D00C4DA84202D00C4D9D
:1054B000A84204D14D6922F4803242EA05224260BA
:1054C000046549688164036230BD00008FFFFEFF00
:1054D000002C0140003401400040014000440140E4
:1054E0000048014030B5046A026A22F48012026268
:1054F0004268036D114D24F400142B400D6843EAFB
:1055000005230D8944EA05540D4DA8420BD00D4DDD
:10551000A84208D00C4DA84205D00C4DA84202D09C
:105520000B4DA84204D14D6922F4802242EA852223
:10553000426003654968C164046230BDFF8FFFFEAD
:10554000002C014000340140004001400044014073
:105550000048014070B505680024AA682E4B1A4027
:105560004B6813432D4A13400A681A43AA604A68DD
:10557000602A4AD00DDC302A1FD005DCEAB1102A9F
:105580001BD0202A18D118E0402A1FD0502A13D14E
:1055900035E0234D531BAA420FD009DC702A0ED0F0
:1055A000B2F1101F09D0203AB2F5801F04D104E0F7
:1055B000102B02D0402B00D00124204670BD0B6977
:1055C000D1E902210068FFF711FEF6E70A68052A13
:1055D00013D0B2F1011F10D00268136A156A25F0CA
:1055E0000105156202689569096925F0F00545EA2B
:1055F0000111916100680362DFE7012070BD0A6953
:105600008968006800F00EF8D7E70A6989680068C1
:1056100000F082F8D1E700008FFFCFFFF8FFFEFF18
:105620003000100010B5036A046A24F0010404621B
:105630000E4CA0420BD00E4CA04208D00D4CA04204
:1056400005D00D4CA04202D00C4CA04203D1046AFC
:1056500024F004040462846924F0F00444EA02148F
:1056600023F00A020A438461026210BD002C01404B
:105670000034014000400140004401400048014026
:10568000F0B5056A046A24F0010404621B4E1C4F45
:10569000DFF870C0B04209D0B84207D0604505D0ED
:1056A000194CA04202D0194CA04203D1046A24F044
:1056B000040404628469B0420CD0B0F1804F09D078
:1056C000134EB04206D0134EB04203D0B84201D0C0
:1056D000604503D124F00304144301E044F00104C5
:1056E0001A0724F0F00444EA126225F00A0301F0DC
:1056F0000A01194382610162F0BD0000002C0140E3
:105700000034014000400140004401400048014095
:10571000000400400008004010B5036A046A24F049
:10572000100404620A4CA04202D00A4CA04203D1E9
:10573000046A24F040040462846923F0A00324F482
:10574000704444EA023243EA01118261016210BDF1
:10575000002C01400034014030B5416EB9B10268FF
:1057600091689268C1F342610B4B520F9C5CE5005B
:1057700003F10804A25CB5FBF2F2A0F86A205A5CBF
:10578000615CD200B2FBF1F1A0F8681030BD0121DC
:10579000A0F86A10F8E70000CC7D000890F8281007
:1057A000090706D501684A68836B22F400421A4350
:1057B0004A6090F82810C90706D001684A68C36A91
:1057C00022F400321A434A6090F82810890706D55F
:1057D00001684A68036B22F480321A434A6090F8E9
:1057E0002810490706D501684A68436B22F48022D5
:1057F0001A434A6090F82810C90606D501688A68DD
:10580000C36B22F480521A438A6090F828108906EC
:1058100006D501688A68036C22F400521A438A6034
:1058200090F82810490611D501684A68436C22F4A3
:1058300080121A434A60416CB1F5801F06D101689D
:105840004A68836C22F4C0021A434A6090F8281018
:10585000090606D501684A68C06C22F4002202439A
:105860004A6070472DE9F84300260446C0F890606E
:10587000FCF738FC8046206800684FF020050007E0
:105880006FF07E4713D54346002229042046009737
:1058900000F098FC58B1216851E8000F20F080001A
:1058A00041E80002002AF6D1C4F8885021E02068BF
:1058B0000068400722D5434600224FF4800120466D
:1058C000009700F07FFCC8B1216851E8000F20F478
:1058D000907041E80002002AF6D12068083050E8B4
:1058E000001F21F0010140E80012002AF5D1C4F8A0
:1058F0008C5084F884600320BDE8F883C4F8885095
:10590000C4F88C5044F86C6F666026760020F3E78C
:1059100010B5806AFEF747FB10BD000010B50268A5
:1059200052E8001F21F4907142E80013002BF6D1D9
:105930000E4B0268083252E8001F194042E800147A
:10594000002CF6D1C16E012908D1016851E8002F61
:1059500022F0100241E80023002BF6D12021C0F8EC
:105960008C100021C166416710BD0000FEFFFFEFF3
:1059700010B5B0F86020D0F88C300168222B04D02C
:10598000886940F00800886110BD496A836D114044
:105990001980816D891C8165B0F85E10491EA0F8E0
:1059A0005E10B0F85E100029EED1026852E8001FC8
:1059B00021F4907142E80013002BF6D10168083100
:1059C00051E8002F22F0010241E80023002BF5D11D
:1059D0002021C0F88C10002141670167154B026837
:1059E0009A420BD05268120208D5036853E8002F80
:1059F00022F0806243E80024002CF6D1C26E012A16
:105A000002D0FEF7FFFC10BDC166026852E8001F1D
:105A100021F0100142E80013002BF6D10168CA6999
:105A2000D243D20601D410220A62B0F85C10FEF70D
:105A30006AFA10BD008000402DE9F0470446B0F836
:105A400060600068C569D0F800A0D0F80890D4F86C
:105A50008C10222905D0816941F008018161BDE8DF
:105A6000F087B4F868704FF0000844E02068406A9E
:105A7000A16D30400880A06D801CA065B4F85E0068
:105A8000401EA4F85E002068C569690730D0E907A8
:105A90000AD05FEACA5107D501210162D4F890000B
:105AA00040F00100C4F89000A8070BD55FEAC97068
:105AB00008D0216802200862D4F8900040F0040069
:105AC000C4F8900068070BD55FEAC97008D0216858
:105AD00004200862D4F8900040F00200C4F890005E
