:020000040800F2
:10000000B8050020F1010008D32F0008992C000842
:10001000D12F0008B3090008FD3B000800000000D4
:10002000000000000000000000000000D72F0008C2
:10003000B509000800000000D52F0008D92F0008DE
:100040000B0200080B0200080B0200080B0200085C
:100050000B0200080B0200080B0200080B0200084C
:100060000B0200080B0200080B0200080B0200083C
:100070000B0200080B0200080B0200080B0200082C
:100080000B020008000000000B0200080B02000831
:100090000B0200080B0200080B0200080B0200080C
:1000A0000B020008553000080B0200080B02000884
:1000B000613000086D3000080B0200080B020008D8
:1000C0000B0200080B0200080B0200080B020008DC
:1000D0000B0200080B020008F13B00080B020008AD
:1000E0000B0200080B0200080B0200080B020008BC
:1000F0000B0200080B0200080B02000800000000C1
:10010000000000000B020008000000000B020008C5
:100110000B020008000000000B0200080B020008A0
:100120000B0200080B0200080B0200080B0200087B
:100130000B02000800000000000000000B02000895
:100140000B0200080B020008000000000000000085
:10015000000000000000000000000000000000009F
:100160000000000000000000000000000B0200087A
:100170000B0200080000000000000000000000006A
:10018000000000000B02000800000000000000005A
:10019000000000000000000000000000000000005F
:1001A00000000000000000000B0200080B02000825
:1001B0000B0200080B0200080B0200080000000000
:1001C000000000000B02000800000000000000001A
:1001D0000B0200080B020008DFF810D000F09AFBB9
:1001E00000480047F9510008AFF30080B80500202F
:1001F0000648804706480047FEE7FEE7FEE7FEE7C1
:10020000FEE7FEE7FEE7FEE7FEE7FEE74530000813
:10021000D90100082DE9F05F0546002092469B4673
:1002200088460646814640241BE02846414647460C
:10023000224600F09FF953465A46C01A914110D306
:1002400011461846224600F086F92D1A67EB010880
:100250004F4622460120002100F07DF917EB0009EE
:100260004E41201EA4F10104DFDC484631462A46F7
:100270004346BDE8F09FD2B201E000F8012B491ED1
:10028000FBD270470022F6E710B513460A46044633
:100290001946FFF7F0FF204610BD2DE9FE4F8046BE
:1002A00081EA0300C00F0C46009021F0004123F0CA
:1002B0000045B8EB0200A94105D2404621469046D0
:1002C0001C460B46024623F00040104347D0270D42
:1002D000C7F30A00C3F30A510290401A0190402864
:1002E0006BDAC3F3130040F4801B0098924620B1F0
:1002F0000023D2EB030A63EB0B0B01985946C0F1C4
:100300004002504600F027F906460D465046594631
:10031000019A00F03FF910EB08006141002487EAE0
:10032000115284EAE7731A4340D0009A62B3019AEB
:10033000012A4FEA075215DC001B61EB02014FF066
:10034000004202EA0752CDE90042001C41F580114B
:1003500032462B4600F09FF903B0BDE8F08F4046CF
:100360002146F9E7001B61EB0201001C41F58013F7
:1003700000185B412018A2F5001747EB030140EA83
:10038000D570B6196D4111E06D084FEA360645EAA1
:10039000C0754FEA0752001B61EB0201001C41F5DA
:1003A000801149084FEA30000019514132462B466E
:1003B00003B0BDE8F04F00F05FB9009801224000A3
:1003C0000023D0EB020263EBE073009821464FEA72
:1003D000E074B8EB000061EB0401E9E783F000434F
:1003E0005BE781F0004158E72DE9FE4F81EA030405
:1003F00004F0004421F0004100944FF0000B23F082
:10040000004350EA01045ED052EA03045BD0C3F318
:100410000A54C1F30A552C44A4F2F3340194A0FB0E
:100420000254C1F3130141F48011C3F3130343F4E5
:10043000801301FB024400FB034E840A970A44EA3E
:10044000815447EA8357A4FB076802958D0A05FB90
:1004500007854FEA932C04FB0C542705029D4FEAB5
:10046000065847EA1637B5EB08056EEB070C870E02
:10047000920E47EA811742EA8312A7FB0201B6EB0C
:100480000B0164EB00042B0D43EA0C335E1844EBC4
:100490001C50DA465146E7FB0201C5F313044FEA4C
:1004A0000B3343EA14534FEA0432019C43EA060338
:1004B000A4F10C040294009CCDE900B400F0EBF828
:1004C00003B0BDE8F08F00200146F9E700F00042DC
:1004D00030F000400AD0C10D01F56071C0F3160084
:1004E00042EA0151C208400711437047002001460B
:1004F000704701F0004330B421F0004150EA01029E
:1005000006D00A0DA2F56072C1F31301002A02DCC5
:1005100030BC00207047440F44EAC104C100E01819
:1005200030BC00EBC25000F047B830B50B46014676
:1005300000202022012409E021FA02F59D4205D382
:1005400003FA02F5491B04FA02F52844151EA2F12C
:100550000102F1DC30BD202A04DB203A00FA02F16E
:10056000002070479140C2F1200320FA03F31943A1
:1005700090407047202A04DB203A21FA02F0002143
:10058000704721FA02F3D040C2F1200291400843A3
:1005900019467047202A06DBCB17203A41FA02F0B1
:1005A00043EAE07306E041FA02F3D040C2F12002D0
:1005B00091400843194670470029A8BF7047401C66
:1005C000490008BF20F00100704710B4B0FA80FC69
:1005D00000FA0CF050EA010404BF10BC704749B1A6
:1005E000CCF1200421FA04F411FA0CF118BF012116
:1005F00021430843A3EB0C01CB1D4FEA00614FEAF6
:10060000102042BF002010BC704700EBC3501044C4
:100610000029A4BF10BC7047401C490008BF20F04F
:10062000010010BC7047F0B400F0004221F000411E
:1006300020F00040CE0DC30DC1F3160141F40001BE
:10064000C0F316004C42154640F40000761E09E047
:1006500010EB440002D582F0004240428842F7D8B5
:1006600040005B1EB342F9DA18B1F0BC0021FFF77D
:10067000ACBF2846F0BC704710B5141E73F10004DF
:1006800008DA401C41F1000192185B411A4301D184
:1006900020F0010010BD2DE9F04D92469B4611B1AE
:1006A000B1FA81F202E0B0FA80F220329046FFF710
:1006B00052FF04460F4640EA0A0041EA0B01534646
:1006C0005A46084313D0114653EA010019D0C8F125
:1006D00040025046FFF74EFF05460E46504659462B
:1006E0004246FFF738FF084305D0012004E02046CA
:1006F0003946BDE8F08D0020054346EAE0762C43FC
:1007000037430A986305E40AA0EB08000022FD0ABB
:1007100044EA47540A3002D500200146E9E70105C2
:1007200010196941DDE9084500196941BDE8F04D3E
:10073000A2E72DE9F04D81EA030404F0004B21F01B
:10074000004514464FF0000A23F0004150EA05022C
:1007500020D054EA01021DD0C5F30A570246C5F362
:100760001303C1F31300C1F30A5640F4801543F498
:100770008013A7EB0608101BD64608F2FD3873EB72
:10078000050002D308F1010801E092185B41B8F1BD
:10079000000F03DA00200146BDE8F08D00204FF481
:1007A0008011064684460EE0171B73EB050705D340
:1007B000121B63EB050306434CEA010C49084FEAA0
:1007C000300092185B4150EA0107EDD152EA030074
:1007D00012D082EA040083EA0501084305D0101B09
:1007E000AB4106D20122002306E000224FF0004375
:1007F00002E06FF0010253101AEB06004CEB0851B7
:1008000010EB0A0041EB0B01BDE8F04DFFF734BFE0
:100810002DE9F04D00231A461B1A8A4103DB002004
:100820000146BDE8F08DC1F30A52C1F3130141F452
:1008300080154FF0000BD10702D100186D41521EF8
:100840000027044640F2FF11384601EB620A3E469B
:100850008046024600204FF48011FFF78BFEC2193C
:100860007141BB1846EB0100B4EB030C75EB000CB7
:1008700004D3E41A65EB000517460E46241908F167
:1008800001006D4180463428E3DDF91946EB06008E
:10089000091BA84103D24FF0FF32134601E00022AA
:1008A00013461BEB070046EB0A51BDE8F04DFFF77E
:1008B000E3BEC1F30A52C1F3130140F2FF3341F426
:1008C00080119A4202DA00200146704740F2334319
:1008D0009A42A2F2334202DC5242FFF74BBEFFF7CC
:1008E0003ABE000030B5041E71F1000404DB4FF085
:1008F0000044404264EB0101141E73F1000405DB67
:100900001C464FF00043524263EB0403994208BF78
:10091000904230BD064C074D06E0E06840F0010310
:1009200094E8070098471034AC42F6D3FFF758FC20
:10093000E0530008005400080EB5C10F80EAE070D3
:100940000844CA07002140F233438DE80E000A46EE
:100950000B46FFF7A0FE03B000BD0EB540F23341D9
:1009600002910021CDE900110A460B46FFF793FEE4
:1009700003B000BD70B5C1F30A5201F00045002478
:10098000C1F3130140F2FF3341F480119A4201DABE
:10099000002070BD40F233439A42A2F2334203DC9E
:1009A0005242FFF7E7FD00E090402C43F1D0404277
:1009B00070BDFEE7704700000148007970470000F5
:1009C000A8010020014890ED000A7047A80100200E
:1009D00030B50068426B002A30D0194800681949C8
:1009E000C0F38210095C002928D0174883685B1C7B
:1009F000836043796BB18B420BD0124CE41FE55CF2
:100A00008D4201D1012303E0645C9C4201D1FF23AC
:100A1000837100EE102ADFED0D0A0A4AB8EE400A93
:100A2000093202EB810280EE801A80ED001A92ED0D
:100A3000000A80ED030A02794271017130BD0000A5
:100A4000100800489B520008A80100208096984A90
:100A50000B489FED0A0A002180ED000A8171816038
:100A6000084980ED030A0968074AC1F38211515C05
:100A700001714171054801F005B900000000000056
:100A8000A8010020100800489B520008C800002060
:100A900072B6FEE710B500210C4801F037FD0421C5
:100AA0000A4801F033FD0821084801F02FFD00211C
:100AB000064801F08BF90421044801F087F9BDE8EC
:100AC00010400821014801F081B9000030000020E9
:100AD0002E484FF07E5190ED012AC0EE021A80EEB2
:100AE000820A11EE900A8842C1EE020A9FED281A8E
:100AF00002DDF7EE001A06E0F5EEC01AF1EE10FA8C
:100B000001D2F0EE411A10EE100A884202DDB7EE73
:100B1000000A06E0B5EEC00AF1EE10FA01D2B0EE1E
:100B2000410A10EE900A884202DDF7EE000A06E064
:100B3000F5EEC00AF1EE10FA01D2F0EE410A1549C5
:100B40000A68D06A01EE100AB8EE411A21EE811A45
:100B5000BCEEC11A11EE103A536301EE100A0B6895
:100B6000B8EE411A20EE010ABCEEC00A10EE102ABF
:100B70009A6300EE100A0968B8EE400A20EE800A77
:100B8000BCEEC00A10EE100AC86370471C000020BB
:100B9000000000003000002000B52DED028BF0EECB
:100BA000408A85B0B0EE608AB0EE410A04F03CFBAA
:100BB000B0EE401A04A903A8F0EE480AB0EE680AA5
:100BC00004F0AAFA02AA01A96846DDED040A9DED27
:100BD000030A04F03DFA1048F6EE000A90ED010A0F
:100BE00020EE200ADDED000A70EE801ACDED001A2D
:100BF000DDED010A70EE800ACDED010A9DED021ACD
:100C000031EE001AB0EE610A8DED021AFFF760FFB7
:100C100005B0BDEC028B00BD1C00002010B5DFED5F
:100C2000191A1A4C9FED161A2DED028BB0EE608A40
:100C3000C0EE210A9FED140A60EE801A94ED000ABE
:100C400001EE810A84ED000A04F0EEFA04F10800D6
:100C500084ED000AD0ED000A20EE800A84ED010A3E
:100C600004F0E2FA84ED010AB0EE401AB0EE480A50
:100C7000BDEC028BDFED060ABDE81040FFF78CBF2C
:100C800017B7D13800007042C3F5C84014000020E7
:100C90000000000010B5002140B190F8253001227D
:100CA000022B05D00421C163012124E0012010BDE5
:100CB00003681C6824F001041C6003681C6824F0AD
:100CC0000E041C60836C1C6824F480741C6090F813
:100CD0004430046C03F01F0302FA03F36360D0E9AD
:100CE00013345C60436D33B11C6824F480741C6061
:100CF000D0E916345C6080F82520002280F824209A
:100D0000084610BD70B590F8252000240121234627
:100D1000022A07D00422C26380F8251080F824300C
:100D2000012429E00268156825F0010515600268B4
:100D3000156825F00E051560826C156825F4807520
:100D4000156090F84420056C02F01F0201FA02F2CF
:100D50006A60D0E913255560426D32B1156825F4FB
:100D600080751560D0E91625556080F8251080F84B
:100D70002430816B01B18847204670BD2DE9F04FCA
:100D8000DFF80C92002301260325A9F1040B85B09E
:100D90000F2709F1040AABF1040EF1E006FA03FC97
:100DA00012EA0C027ED00C7904F00304012C01D06D
:100DB000022C20D1846800945C0005FA04F80494A5
:100DC000009C24EA08040094D1F80C80049C08FAE2
:100DD00004F8009C48EA0408C0F80880446824EA43
:100DE0000C0491F804C0CCF3001C0CFA03FC4CEA90
:100DF000040CC0F804C00C79E443A40702D18C6849
:100E0000012C0ED0C4684FEA430805FA08FC24EA16
:100E10000C04D1F808C00CFA08FC4CEA040CC0F829
:100E20000CC00C7904F00304022C16D1DC0800EB92
:100E3000840CCDF808C0DCF820C05C074FEAD46809
:100E400007FA08F42CEA040C0C6904FA08F444EAE2
:100E50000C04DDF808C0CCF8204004684FEA4308D1
:100E600005FA08FC24EA0C0491F804C00CF0030C09
:100E70000CFA08FC4CEA040CC0F800C04C6814F4EE
:100E8000403F7CD0434CD4F860C04CF0010CC4F817
:100E900060C0246E23F0030C04F0010400943E4C67
:100EA000644400E06BE00294A4684FEA837C4FEA5C
:100EB0001C7807FA08FC24EA0C04B0F1904F06D025
:100EC000DFF8D8C0604505D14FF0010C20E04FF0AD
:100ED000000C1DE0DFF8C8C0604502D14FF0020CE5
:100EE00016E0DFF8C0C0604502D14FF0030C0FE000
:100EF000DFF8B4C0604502D14FF0040C08E0DFF821
:100F0000ACC0604502D14FF0050C01E04FF0060C7B
:100F10000CFA08FC4CEA040C029CC4F808C0D9F88E
:100F20000040CC46D1F8048094435FEAC82800D53D
:100F30001443CCF80040DAF80040D446D1F80480DD
:100F400094435FEA882800D51443CCF80040DBF8CE
:100F50000040DC46D1F8048094435FEA883800D52D
:100F60001443CCF80040DEF80040F446D1F8048089
:100F700094435FEAC83800D51443CCF800405B1CAA
:100F80000C682246DC407FF409AF05B0BDE8F08F65
:100F90000804014000100240000001400004004825
:100FA00000080048000C00480010004800140048E9
:100FB0000AB1816170478162704700000148806812
:100FC0007047000004000020024881684268114414
:100FD000816070470400002010B50024032000F059
:100FE00073F80F2000F008F808B1012401E000F0C8
:100FF00025F8204610BD000070B50E4E05460024B1
:10100000706898B14FF47A71B1FBF0F00A49096841
:10101000B1FBF0F000F05EFD40B9102D06D20022C9
:101020002946501E00F030F8356000E001242046CB
:1010300070BD000004000020100000200A4882B0AB
:10104000016E41F001010166016E01F001010091A4
:10105000816D41F080518165806D00F0805000907D
:1010600002B000F0A1B8000000100240002809DB27
:1010700000F01F02012191404009800000F1E020B2
:10108000C0F8001170470000F0B40E4B1B680C460E
:10109000C3F30223C3F10705042D00D90425191D4C
:1010A000072901D2002300E0DB1E012606FA05F124
:1010B000491E214099409E40761E16403143F0BCA7
:1010C00002F0C6BD0CED00E0064900F0070208681A
:1010D0004FF6FF03184040EA0220034A104308601D
:1010E000704700000CED00E00000FA052B492C4B86
:1010F0000A6832214A432B4940B1B0F5007F0868A5
:1011000029D020F4C06040F480602CE00868C0F36F
:101110004120022804D051F8800F20F4807022E092
:10112000D1F8800020F48070C1F88000086820F4B5
:10113000C06040F400700860B2FBF3F0401C00E0B7
:10114000401E4A69520501D50028F9D14869400579
:101150000AD503207047C0F34120022806D051F879
:10116000800F40F48070086000207047D1F8800044
:1011700040F48070C1F88000086820F4C06040F43A
:1011800000700860B2FBF3F0401C00E0401E4A69AA
:101190005205DBD50028F9D1D8E700001000002067
:1011A00040420F00007000400248816841F48041D5
:1011B00081607047007000402DE9F84304460068E4
:1011C00000269D4D00035ED5A86D0027C00008D401
:1011D000A86D40F08050A865A86D012700F08050F0
:1011E0000090DFF85892D9F8001041F48071C9F8E6
:1011F0000010FFF7E3FE804606E000BFFFF7DEFECB
:10120000A0EB080002282BD8D9F80000C005F5D5BE
:10121000D5F8900010F4407014D0216C814211D0A8
:10122000D5F89000D5F8901020F4407041F480314A
:10123000C5F89010D5F8901021F48031C5F89010C1
:10124000C5F89000C00711D0FFF7B8FE804641F204
:10125000883907E0FFF7B2FEA0EB0801494501D944
:1012600003260BE0D5F890008007F3D5D5F8900061
:10127000216C20F440700843C5F890001FB1A86DA0
:1012800020F08050A8652078C00707D0D5F88800E6
:10129000616820F003000843C5F8880020788007C3
:1012A00007D5D5F88800A16820F00C000843C5F8E0
:1012B00088002078400707D5D5F88800E16820F03D
:1012C00030000843C5F888002078000707D5D5F816
:1012D0008800216920F0C0000843C5F88800207804
:1012E000800607D5D5F88800616920F4406008437E
:1012F000C5F888002078400607D5D5F88800A16990
:1013000020F440500843C5F888002078000607D52F
:10131000D5F88800E16920F440400843C5F888000A
:101320002088C00507D5D5F88800216A20F4403010
:101330000843C5F888002088800507D5D5F88800BF
:10134000616A20F440200843C5F8880020884005E1
:101350000FD5D5F88800A16A20F440100843C5F8DD
:101360008800A06AB0F5801F03D1E86840F48010BF
:10137000E860208800050FD5D5F88800E16A20F4E0
:1013800040000843C5F88800E06AB0F5800F03D13B
:10139000E86840F48010E8602088C0040FD5D5F8D4
:1013A0008800216B20F040700843C5F88800206B4E
:1013B000B0F1807F03D1E86840F48010E8602088B5
:1013C0004FF0006180040ED5D5F88800626B20F0E4
:1013D00040601043C5F88800606B884203D1E8681C
:1013E00040F48010E860208840040ED5D5F88800CD
:1013F000A26B20F040601043C5F88800A06B8842C3
:1014000003D1E86840F48010E860208800040FD51C
:10141000D5F88800E16B20F040500843C5F88800FB
:10142000E06BB0F1805F03D1E86840F48030E860A1
:101430003046BDE8F8830000001002400070004014
:101440002DE9F0470E4605004FF0000725D0DFF8E4
:10145000AC81D8F8000000F00F00B0420CD2D8F8F0
:10146000001021F00F013143C8F80010D8F8000037
:1014700000F00F00B04210D12968614CC80741F25A
:10148000883A5AD06868DFF87C91032808D002288F
:1014900020682DD0400500282CDB0120BDE8F08716
:1014A00020688001F9D5E06800F00302E068C0F32D
:1014B0000310401C032A19D0534A00BFB2FBF0F0BE
:1014C000E268C2F306225043E268C2F34162521C52
:1014D0005200B0FBF2F0484517D9A06810F0F00FA9
:1014E0000CD0880711D5A86840B10EE0474AE5E75F
:1014F0008003D0E700F0B6F8484506D9A06820F090
:10150000F00040F08000A0608027A068696820F0AB
:1015100003000843A060FFF751FD814606E000BFCD
:10152000FFF74CFDA0EB090151453AD8A068696866
:1015300000F00C00B0EB810FF2D12868810714D5C0
:10154000400703D5A06840F4E060A0602878000759
:1015500005D5A06820F4605040F4E060A060A06869
:10156000A96820F0F000084304E0802F03D1A068B0
:1015700020F0F000A060D8F80010404601F00F0104
:10158000B14216D9016821F00F0131430160FFF724
:1015900015FD074607E000BFFFF710FDC11B5145D1
:1015A00001D903207AE7D8F8000000F00F00B0421C
:1015B000F2D12878400705D5A068E96820F4E060FA
:1015C0000843A0602878000706D5A068296920F4A0
:1015D000605040EAC100A06000F044F8A1680C4AE5
:1015E000C1F30311515C01F01F01C84009490860B3
:1015F00009480068BDE8F047FFF7FEBC0020024044
:101600000010024000B4C4040024F40000127A0068
:101610007C52000810000020040000200548064904
:1016200000688968054AC1F30221515C01F01F017D
:10163000C840704710000020001002408C52000883
:101640000548064900688968054AC1F3C221515C12
:1016500001F01F01C8407047100000200010024038
:101660008C520008184910B58868C0F381021748E9
:10167000012A0BD08A684310C2F38102022A06D0E5
:101680008A68C2F38102032A03D0002010BD1846E5
:1016900010BDCA6802F00304CA68C2F30312521CE8
:1016A000032C02D0B0FBF2F001E0B3FBF2F0CA6809
:1016B000C968C2F306225043C1F34161491C490085
:1016C000B0FBF1F010BD0000001002400024F40057
:1016D0002DE9F84304007AD02078F84DC00747D0B0
:1016E000A868E96800F00C0001F003010C2802D0A2
:1016F000082817D001E0032914D06068B0F5803FB6
:1017000017D0B0F5A02F286817D020F480302860BB
:10171000286820F4802028606068E0B1FFF74EFC64
:10172000064614E02868800322D560680028D2D0DD
:101730001EE0286840F48030EDE740F48020286007
:10174000F7E700BFFFF73AFC801B642870D82868D1
:101750008003F7D50CE0FFF731FC064605E000BF3B
:10176000FFF72CFC801B6428F0D828688003F7D48E
:10177000207880074CD5A868E96800F00C0001F0DB
:1017800003010C2802D004280DD001E002290AD060
:10179000E068002828682BD040F480702860FFF7AC
:1017A0000DFC064619E02868400502D5E0680028CF
:1017B00091D06868217C20F0FE4040EA01606860BA
:1017C000BF480068FFF718FC002800D120E072E154
:1017D000FFF7F4FB801B0228B8D828684005F7D52E
:1017E0006868217C20F0FE4040EA016068600FE0FC
:1017F00020F480702860FFF7E1FB064605E000BF9B
:10180000FFF7DCFB801B0228A0D828684005F7D42E
:101810002078000729D560690028D5F8940013D0F6
:1018200040F00100C5F89400FFF7C8FB064606E04B
:1018300090E000BFFFF7C2FB801B022886D8D5F8D6
:1018400094008007F6D510E020F00100C5F8940060
:10185000FFF7B4FB064604E0FFF7B0FB801B02284D
:1018600078D8D5F894008007F6D42078400761D561
:10187000A86D0026C00008D4A86D40F08050A8656F
:10188000A86D012600F0805000908E480168C905BF
:1018900011D40168804641F480710160FFF78EFB2E
:1018A000074604E0FFF78AFBC01B022852D8D8F88D
:1018B0000000C005F6D5A068012815D00528D5F888
:1018C000900016D020F00100C5F89000D5F89000E7
:1018D00020F00400C5F89000A06841F28838B8B143
:1018E000FFF76CFB07460EE0D5F8900040F00100D2
:1018F000F0E740F00400C5F89000F5E7FFF75EFB65
:10190000C11B414526D8D5F890008007F6D50CE0DC
:10191000FFF754FB074604E0FFF750FBC11B4145AE
:1019200018D8D5F890008007F6D41EB1A86D20F025
:101930008050A8652078800629D5A0690028D5F8B0
:10194000980013D040F00100C5F89800FFF736FB6F
:10195000064606E075E000BFFFF730FB801B02285B
:101960006FD8D5F898008007F6D510E020F0010078
:10197000C5F89800FFF722FB064604E0FFF71EFBC0
:10198000801B02285DD8D5F898008007F6D4E0695E
:10199000F0B3A968C1F3810103295DD0022828684A
:1019A00020F08070286003D0FFF708FB04464BE06E
:1019B000FFF704FB064604E0FFF700FB801B02284C
:1019C0003FD828688001F7D4F4E908016FF00F02CE
:1019D00002EB01110843218A5204490802EB4151EC
:1019E000A26841EA02210843217D4FF07E42490866
:1019F00002EB41610843217B40EAC160E968324A59
:101A000011400843E860286840F08070286000E0DA
:101A10005EE0E86840F08070E860FFF7CFFA0446C7
:101A200005E000BFFFF7CAFA001B022809D82868A2
:101A30008001F7D54CE000BFFFF7C0FA001B022879
:101A400002D90320BDE8F88328688001F4D4E8684F
:101A50001E490840E8603BE00128F3D0E868226AAC
:101A600000F00301914226D1616A00F0F002090101
:101A7000103991421FD1A26A00F4FE41B1EB022F4E
:101A800019D194F82C2000F07841B1EBC26F12D13B
:101A9000218E00F4C00249084905A1F500119142C8
:101AA00009D194F8341000F0C06049084906A1F14A
:101AB000007181420CD00120C4E7000000100240F8
:101AC00004000020007000400C809F01FCFFEEFE2F
:101AD0000020B7E710B5401EB0F1807F01D3012090
:101AE00010BD4FF0E02460610F21601702F0B0F8E4
:101AF0000020A06107202061002010BD70477047C2
:101B00007047000030B590F83C20012A42D00122F5
:101B100080F83C20CA688B6822F440721A434B68F4
:101B200022F480621A430B6822F400621A430B69A4
:101B300022F480521A434B6922F400521A430B6B71
:101B400022F480421A430B8B22F4702242EA0342B1
:101B5000CB6922F080521A430F4D03680024AB4238
:101B600002D00E4DAB4210D10D8D22F4700242EA2C
:101B700005520D6A22F080722A434D6A22F00072EB
:101B80002A43C96A22F000520A435A6480F83C4052
:101B9000002030BD022030BD002C01400034014047
:101BA0007047704770B588B00E46040004D094F8B2
:101BB0003D00002518B107E0012008B070BD84F891
:101BC0003C50204600F05CF8022084F83D00211DC6
:101BD000206801F051FAB36831680322206801F0EF
:101BE0000BFD2068816921F00C0181612068816909
:101BF0007268114381612068416841F08001416051
:101C0000206881681B4A114081602068816841F02A
:101C10004001816020688168174A11408160206816
:101C2000816841F004018160702005950495069556
:101C3000039502950090F06801906946206801F0D4
:101C4000F7FA206841680D4A1140416020684168F8
:101C500041F050014160012084F8480084F83E00C2
:101C600084F83F0084F8440084F8450084F83D007F
:101C70000020A2E78FFFCFFFF8FFFEFF8FFFFFFDE1
:101C80007047000010B590F83E30044690F83F20B1
:101C900090F8441090F84500012B05D1012A03D19A
:101CA000012901D1012801D0012010BD022084F8B2
:101CB0003E0084F83F0084F8440084F84500206822
:101CC000C16841F00201C16001220021206801F0D9
:101CD0002FFA1049206888420ED0B0F1804F0BD007
:101CE0000D49884208D00D49884205D00C498842E8
:101CF00002D00C49884207D181680B4A114006295D
:101D000006D0B1F5803F03D0016841F001010160C8
:101D1000002010BD002C01400004004000080040DD
:101D200000340140004001400700010070470000FE
:101D3000F0B590F83C20012A3AD0012580F83C50BB
:101D4000022280F83D2003685A689C68194E1A4F99
:101D5000B34201D0BB4204D122F4700C4A6842EA7B
:101D60000C02DFF858C002EA0C02D1F800C04CEABD
:101D7000020CC3F804C00268B2420DD0B2F1804F29
:101D80000AD00F4B9A4207D00E4B9A4204D0BA4267
:101D900002D00D4B9A4204D1896824F08003194384
:101DA000916080F83D50002180F83C100846F0BD5D
:101DB0000220F0BD002C0140003401408FFFFFFDE8
:101DC00000040040000800400040014010B50446F7
:101DD000022249B104290ED0082913D094F84700F3
:101DE000012816D0012010BD94F844000128F9D133
:101DF00084F844200FE094F845000128F2D184F8DB
:101E0000452008E094F846000128EBD184F84620EC
:101E100001E084F847200422206801F096F9206848
:101E2000416C41F4004141641049206888420ED061
:101E3000B0F1804F0BD00E49884208D00D4988423E
:101E400005D00D49884202D00C49884207D18168EB
:101E50000B4A1140062906D0B1F5803F03D0016836
:101E600041F001010160002010BD0000002C014084
:101E700000040040000800400034014000400140E0
:101E800007000100704710B5040003D094F83D002E
:101E900010B107E0012010BD002084F83C0020466E
:101EA00000F022F8022084F83D00211D206801F096
:101EB000E3F8012084F8480084F83E0084F83F00ED
:101EC00084F8400084F8410084F8420084F843001C
:101ED00084F8440084F8450084F8460084F84700FC
:101EE00084F83D00002010BD10B586B004461421D2
:101EF0006846FEF7C7F921681E48B1F1804F29D026
:101F00001D4A914224D1816D41F002018165816DAC
:101F100001F002010591C16C41F00401C164C06C83
:101F2000002100F0040005904FF4E07000900220C2
:101F3000CDE90101CDE9031069461048FEF71EFF07
:101F4000002201211D20FFF79FF81D20FFF78EF8CA
:101F500006B010BD816D41F001018165806D0022E8
:101F600000F00100059002211C20FFF78DF81C20D5
:101F7000ECE70000001002400004004000080048A8
:101F800090F83D10012901D001207047022180F80E
:101F90003D100168CA6842F00102CA600068104939
:101FA00088420ED0B0F1804F0BD00E49884208D045
:101FB0000D49884205D00D49884202D00C4988421B
:101FC00007D181680B4A1140062906D0B1F5803F40
:101FD00003D0016841F0010101600020704700005A
:101FE000002C014000040040000800400034014083
:101FF000004001400700010070B5044690F83C0025
:102000000025012814D0012684F83C60022084F8C1
:102010003D0022689068364B184020F47F40906065
:10202000086870282ED010DC10F00F0F03D021E0CC
:102030004FF0020070BD4FEA2012072A1AD2DFE8E3
:1020400002F0525252524A3840002A4BC21A984269
:1020500049D009DCB0F5805F0DD0B0F5005F1CD031
:10206000B0F1101F06D13EE0102A3CD0202A3AD011
:10207000502A38D0012584F83D60002084F83C00C7
:10208000284670BDCB68D1E90121206801F06AF8CB
:102090002068816841F0770109E0CB68D1E901212E
:1020A000206801F05FF82068816841F48041816018
:1020B000E1E7CA684968206801F070FA5021206899
:1020C00006E0CA684968206801F0E2FA60212068E9
:1020D00001F052F8CFE7CA684968206801F05EFA5B
:1020E00040212068F4E7226801461046F0E700002E
:1020F00088FFCEFF20001000034A0168914201D101
:10210000FEF766BC70470000000400402DE9F04176
:1021100004460068C66805694FF00007A90713D593
:10212000B10711D5F91E016101202077206880696F
:102130008007204602D0FFF7DFFF04E000F002F93D
:10214000204600F0E1F92777680716D5700714D507
:1021500021686FF004000861022020772068806900
:1021600010F4407F204602D0FFF7C6FF04E000F0E5
:10217000E9F8204600F0C8F92777280715D5300779
:1021800013D521686FF008000861042020772068CB
:10219000C0698007204602D0FFF7AEFF04E000F0E0
:1021A000D1F8204600F0B0F92777E80616D5F006FA
:1021B00014D521686FF0100008610820207720688E
:1021C000C06910F4407F204602D0FFF795FF04E07D
:1021D00000F0B8F8204600F097F92777E80708D014
:1021E000F00706D021686FF001000861204600F07A
:1021F0000BFA280601D4A80408D5300606D52168B4
:102200006FF4025008612046FFF779FCE80508D515
:10221000300606D521686FF4807008612046FFF70C
:102220006DFC680608D5700606D521686FF0400081
:102230000861204600F059FAA80608D5B00606D570
:1022400021686FF0200008612046FFF759FCE80282
:1022500008D5F00206D521686FF480100861204689
:10226000FFF79FFCA80208D5B00206D521686FF4DD
:10227000001008612046FFF793FC680208D5700241
:1022800006D521686FF4800008612046FFF74EFDF7
:1022900028020AD5300208D521686FF400000861D1
:1022A0002046BDE8F041FFF7EDBDBDE8F08100003C
:1022B000F0B587B0044614216846FDF7E3FF1E49D8
:1022C0002068884236D11D48C16C41F00201C164CA
:1022D000C16C01F002010591C16C41F00101C164C2
:1022E000C06C022500F0010005904FF400500090F2
:1022F0000024CDE901540626114FCDE90346694675
:102300003846FEF73BFDA8030090CDE901540420B8
:10231000CDE9034069463846FEF730FD4FF4B8502A
:102320000090CDE90154CDE9034669464FF0904055
:10233000FEF724FD07B0F0BD002C01400010024064
:1023400000040048704770B5044690F83C00002631
:102350000D4601280BD0012084F83C000C2A4AD0FD
:1023600007DC82B1042A20D0082A06D131E00220FD
:1023700070BD102A53D0142A63D00126002084F89F
:102380003C00304670BD206800F000FF2068816985
:1023900041F0080181612068816921F004018161B7
:1023A000206881692A69114311E0206800F040FF2C
:1023B0002068816941F4006181612068816921F4AC
:1023C00080618161206881692A6941EA0221816115
:1023D000D4E7206800F076FF2068C16941F0080169
:1023E000C1612068C16921F00401C1612068C1692F
:1023F0002A69114311E0206800F0AEFF2068C1692E
:1024000041F40061C1612068C16921F48061C1614A
:102410002068C1692A6941EA0221C161AEE72068EA
:1024200000F0E4FF2068016D41F0080101652068BB
:10243000016D21F0040101652068016D2A691143D5
:1024400011E0206801F00AF82068016D41F4006194
:1024500001652068016D21F4806101652068016DCE
:102460002A6941EA0221016588E710B5040003D01A
:1024700094F83D0010B107E0012010BD002084F861
:102480003C00204600F022F8022084F83D00211D87
:10249000206800F0F1FD012084F8480084F83E0037
:1024A00084F83F0084F8400084F8410084F842003A
:1024B00084F8430084F8440084F8450084F846001A
:1024C00084F8470084F83D00002010BD08B500687E
:1024D0000B49884212D10B48016E41F4006101663C
:1024E000006E002200F40060009011461920FEF7F3
:1024F000CBFDBDE808401920FEF7B8BD08BD0000BF
:10250000002C0140001002407047000030B5044626
:10251000022269B1042912D0082917D00C291CD035
:10252000102921D094F84300012824D0012030BD87
:1025300094F83E000128F9D184F83E201DE094F87B
:102540003F000128F2D184F83F2016E094F84000C3
:102550000128EBD184F840200FE094F841000128D5
:10256000E4D184F8412008E094F842000128DDD14C
:1025700084F8422001E084F843200122206800F022
:10258000D7FD194B20681949194A984209D0884249
:1025900007D0904205D0174DA84202D0164DA84250
:1025A00003D1456C45F400454564206898420CD041
:1025B000B0F1804F09D0114B984206D0104B984291
:1025C00003D0884201D0904207D181680D4A114062
:1025D000062906D0B1F5803F03D0016841F0010122
:1025E0000160002030BD0000002C0140003401409B
:1025F0000040014000440140004801400004004008
:1026000000080040070001001CB50068B0F1804FD1
:1026100024D1F0EE000A9FED120AFEF7FFFA1148EE
:102620000188491C89B20180B1F57A7F16D3002157
:102630000180FEF7C1F90446FEF7C4F910EE100A56
:10264000FDF744FF41EC100B074853EC102B90F9B9
:102650000600CDE9004005A001F0D2FA1CBD000043
:1026600000007A4400000020A80100205370656536
:10267000643A20252E31662052504D2C2048616C42
:102680006C3A2025642C204469723A2025640D0A96
:102690000000000070B5044690F83C00012812D0FC
:1026A000012584F83C50022084F83D00204600F0CB
:1026B0000DFF01004FF0000007D084F83D5084F872
:1026C0003C00012070BD022070BD2168CA6822F064
:1026D0004002CA602168CA6822F48042CA6084F855
:1026E0003D5084F83C00002070BD704790F8841085
:1026F000012918D0012180F884102421C0F8881005
:1027000001680A680B6823F001030B6022F0005196
:1027100000224266036819602021C0F8881080F802
:10272000842010467047022070477047704770B58C
:10273000044690F8840001281DD0012084F884000C
:102740002420C4F8880020680568026822F001028D
:1027500002602068826822F060620A43826020463C
:1027600000F0B6FF206805602020C4F88800002033
:1027700084F8840070BD022070BD70B5044690F8E6
:10278000840001281DD0012084F884002420C4F88E
:10279000880020680568026822F001020260206853
:1027A000826822F060420A438260204600F090FF77
:1027B000206805602020C4F88800002084F8840088
:1027C00070BD022070BD7047704770472DE9F04121
:1027D00003680446D86919689A6840F60F052842CC
:1027E0004FF000054FF002060AD187067ED501F0B2
:1027F000200702F0805C57EA0C0777D0616F42E156
:10280000B64FDFF8DCC2174001EA0C0C57EA0C0C9B
:102810006CD05FEAC07C0CD05FEAC15C09D54FF098
:10282000010CC3F820C0D4F8903043F00103C4F881
:102830009030830709D5D30707D023681E62D4F8E8
:10284000903043F00403C4F8903043070AD5D3070F
:1028500008D0266804233362D4F8903043F0020392
:10286000C4F8903003070CD501F020033B4308D097
:10287000266808233362D4F8903043F00803C4F884
:10288000903003050BD54B0109D526684FF4006342
:102890003362D4F8903043F02003C4F89030D4F879
:1028A0009030002B3DD0800609D501F0200002F0C9
:1028B0008051084303D0616F09B120468847D4F89E
:1028C000900021688968490602D410F0280F2AD0A8
:1028D000204600F0DFFF2068806840061ED5206893
:1028E000083050E8001F21F0400100E021E040E8FE
:1028F0000012002AF3D1D4F8800078B179498163BD
:10290000D4F88000FEF7FEF900280AD0D4F8800041
:10291000816B00E02046BDE8F04108472046FFF704
:1029200054FFBDE8F0812046FFF74FFFC4F89050F8
:10293000F7E7D4F86CC02027BCF1010F7ED15FEA25
:10294000C06C7BD55FEAC16C78D510201862206816
:102950008068400651D5D4F880100A685068000499
:10296000000C3ED0B4F85C3083423AD9A4F85E0043
:102970000868006880062CD4216851E8000F20F414
:10298000807041E80002002AF6D12068083050E843
:10299000001F21F0010140E80012002AF5D1206853
:1029A000083050E8001F21F0400140E80012002AE2
:1029B000F5D1C4F88C70E566216851E8000F20F06D
:1029C000100041E80002002AF6D1D4F88000FEF79A
:1029D00061F92667B4F85C00B4F85E10401A81B261
:1029E00007E0B4F85C1081429BD11068800698D54E
:1029F00026672046FFF799FE93E7B4F85C00B4F829
:102A00005E10401A81B2B4F85E00002889D0002917
:102A100087D0226852E8000F20F4907042E800034B
:102A2000002BF6D12D4BDB432068083050E8002FF7
:102A30001A4040E8002CBCF1000F00E00EE0F3D19A
:102A4000C4F88C70E5666567206850E8002F22F0B6
:102A5000100240E80023002BF6D1C9E7C60209D5D1
:102A6000560207D54FF4801018622046BDE8F041A9
:102A7000FFF7AABE03060AD501F0800302F40002A4
:102A8000134304D0A16F00297FF444AF49E7420605
:102A900011D54A060FD52046016851E8002F22F0D3
:102AA000400241E80023002BF6D1C0F8887085670A
:102AB00000F0F1F835E7020206D54A0004D52046B9
:102AC000BDE8F041FFF77FBEC00195D5002993DA3C
:102AD0002046BDE8F041FFF729BE000001000010CC
:102AE000200100048938000810B5040003D0D4F890
:102AF000880010B107E0012010BD002084F8840098
:102B0000204600F027F82420C4F8880020680168D7
:102B100021F001010160A06A10B1204600F0FAFD29
:102B2000204600F0E1FE0128E6D02068416821F44B
:102B3000904141602068816821F02A01816020680D
:102B4000016841F0010101602046BDE8104000F03D
:102B500045BE000030B597B00446142111A8FDF71A
:102B600091FB44216846FDF78DFB1A492068884295
:102B70002DD102250024684600950294FEF71CFB27
:102B800008B1FDF785FF1448816D41F4003181657E
:102B9000816D01F400311691C16C41F00201C164F4
:102BA000C06CCDE9125400F002001690182011906C
:102BB0000720CDE9144011A90848FEF7DFF80022EC
:102BC00003212620FEF760FA2620FEF74FFA17B001
:102BD00030BD0000004400400010024000040048E6
:102BE0002DE9F84F0446D0F88800984615460E4661
:102BF000202802D00220BDE8F88F96B38DB30020C4
:102C0000C4F890004FF02109C4F888901834FEF7FA
:102C1000D5F9A5878246E58754F8100C183CB0F525
:102C2000805F01D1206910B13546002600E0002503
:102C30005FF02007B4F8560053464FF00002CDF87D
:102C40000080D8B18021204600F088FFD8B955B166
:102C500015F8010B21688862D4F8881039EA010060
:102C600006D00120C7E736F8020BC0F30800F1E7F1
:102C7000B4F85600401EA4F85600DBE74021204679
:102C800000F06CFF18B1C4F888700320B3E7C4F8F3
:102C900088700020AFE77047FEE70000F0B587B00E
:102CA00014216846FDF7EEFA3148C16C41F0040189
:102CB000C164C16C01F004010591C16C41F02001B7
:102CC000C164C16C01F020010591C16C41F00201A9
:102CD000C164C16C01F002010591C16C41F00101B8
:102CE000C164C16C01F001010591C16C41F00801A2
:102CF000C164C06C012200F008001E4E94030590D0
:102D000021463046FEF754F91B4F01222021384658
:102D1000FEF74EF90125CDE90045002402946946ED
:102D200030460394FEF72AF86802CDE900046946AC
:102D300030460294FEF722F80420CDE900046946EB
:102D40000E480294FEF71AF820200090CDE90154B5
:102D5000694638460394FEF711F84020CDE9000497
:102D6000694638460294FEF709F807B0F0BD000046
:102D7000001002400008004800040048000C004811
:102D800010B598B00024149415941C210DA8169425
:102D9000FDF778FA34216846FDF774FA2D482C497E
:102DA000016021214160202181606321C0E9031479
:102DB0008021C0E90541FFF758FB08B1FDF768FE27
:102DC0001494159414A923481694FEF7B1FF08B182
:102DD000FDF75EFE6020CDE90D040F941094119470
:102DE000129400220DA91B481394FFF7ACFA08B106
:102DF000FDF74EFE04220DA91648FFF7A4FA08B10C
:102E0000FDF746FE08220DA91248FFF79CFA08B10B
:102E1000FDF73EFE0A20CDE9024000944FF4005039
:102E2000CDE904400003CDE90840019406940794DD
:102E30000A940B94694607480C94FEF763FE08B1A8
:102E4000FDF726FE0348FFF733FA18B010BD000067
:102E5000002C01403000002010B588B00024174835
:102E60000094019402940394049405944FF08041DB
:102E700006940160A921C0E9011440F2E731C0E9DC
:102E800003148461FEF7FFFF08B1FDF701FE4FF464
:102E90008050009069460948FFF7AEF808B1FDF789
:102EA000F7FD049404A905480694FEF741FF0028A5
:102EB00001D0FDF7EDFD08B010BD00007C00002042
:102EC00010B590B000240A94264809940B940C94F1
:102ED00000940394019402940D940E9420490F944D
:102EE0000160A921C0E901144FF6FF71C0E9031484
:102EF0008461FEF7C8FF08B1FDF7CAFD4FF48050AA
:102F0000099009A91748FFF777F808B1FDF7C0FD48
:102F1000009401940294694612480394FEF742FE1D
:102F200008B1FDF7B5FD50200D900DA90F940D4887
:102F3000FEF7FEFE08B1FDF7ABFD142104A8FDF776
:102F4000A1F9042004904020059004A90548FFF74A
:102F5000A1FB002801D0FDF79BFD10B010BD0000C3
:102F600000040040C8000020184810B51649016050
:102F70004FF4E1314160002181600C22C160C0E961
:102F800004128161C161016241628162FFF7ACFD9F
:102F900008B1FDF77DFD00210C48FFF7EEFB08B1FD
:102FA000FDF776FD00210948FFF7C1FB08B1FDF7E9
:102FB0006FFD0648FFF79AFB002803D0BDE81040DC
:102FC000FDF766BD10BD0000004400401401002064
:102FD000FEE7FEE770477047FDF7F6BF10B594B007
:102FE00038216846FDF74EF914210EA8FDF74AF97D
:102FF0000020FEF77BF801200090000401900220E1
:103000000324CDE907045521CDE909010B900C906B
:103010000D906846FEF75CFB08B172B6FEE70F2024
:10302000CDE90E04002010904FF4806011901290B2
:1030300004210EA8FEF704FA002801D072B6FEE7BC
:1030400014B010BD0248016841F47001016070477E
:1030500088ED00E00148FFF759B80000300000207B
:103060000148FFF753B800007C0000200148FFF73B
:103070004DB80000C80000202DE9F0430268254B40
:10308000254D264E264C4FF08049984207D04845A2
:1030900005D0A84203D0B04201D0A04203D122F013
:1030A00070074A683A431F4FDFF87CC0DFF87C8026
:1030B00098420DD048450BD0A84209D0B04207D065
:1030C000A04205D0B84203D0604501D0404503D1AD
:1030D00022F44075CA682A434D6922F080022A43CF
:1030E0008D68C5620D688562984207D0A04205D000
:1030F000B84203D0604501D0404501D10969016360
:10310000016841F004010160012141610260BDE8F4
:10311000F0830000002C0140000400400008004043
:10312000003401400040014000440140004801409B
:1031300010B501F01F030121046A99408C43046219
:10314000016A9A401143016210BD10B501F00F03EE
:103150000421046A99408C430462016A9A40114335
:10316000016210BD10B5846842EA032224F47F4452
:103170000A432243826010BD8268034B1A400A430F
:1031800042F00701816070478FFFCFFF2DE9F043C8
:10319000056A026A22F001020262436882691E4CDB
:1031A00025F0020522400C6822F0030214438A68CD
:1031B0001B4E2A43194D1B4FDFF86CC0DFF86C9093
:1031C000A84207D0B04205D0B84203D0604501D034
:1031D00048450AD1D0F8208028F00408C0F82080A3
:1031E00022F00808CA6842EA0802A84207D0B042A2
:1031F00005D0B84203D0604501D0484505D14D699E
:1032000023F440731D438B692B43436084614968F9
:1032100041630262BDE8F0838FFFFEFF002C014096
:10322000003401400040014000440140004801409A
:10323000F0B5056A026A22F01002026242688369F0
:103240001A4C1C4E23400C6823F4407343EA0424B8
:1032500025F020038D6843EA0513154DA84201D0DF
:10326000B04208D1076A27F040070762CF6823F011
:10327000800343EA0713A8420AD0B04208D00E4D9B
:10328000A84205D00D4DA84202D00D4DA84207D14D
:103290004D6922F4406242EA85028D6942EA850264
:1032A00042608461496881630362F0BDFF8FFFFE65
:1032B000002C014000340140004001400044014026
:1032C00000480140F0B5056A026A22F48072026289
:1032D0004268C3691A4C1C4E23400C6823F0030358
:1032E0001C4325F400738D6843EA0523154DA8425D
:1032F00001D0B04208D1076A27F480670762CF681F
:1033000023F4006343EA0723A8420AD0B04208D05E
:103310000E4DA84205D00E4DA84202D00D4DA84238
:1033200007D14D6922F4405242EA05128D6942EA02
:1033300005124260C4614968C1630362F0BD0000C8
:103340008FFFFEFF002C014000340140004001408F
:103350000044014000480140F0B5056A026A22F4C9
:10336000805202624268C3691A4C1C4E23400C68AA
:1033700023F4407343EA042425F400538D6843EAA0
:103380000533154DA84201D0B04208D1076A27F491
:1033900080470762CF6823F4004343EA0733A8421B
:1033A0000AD0B04208D00E4DA84205D00D4DA8421B
:1033B00002D00D4DA84207D14D6922F4404242EAA5
:1033C00085128D6942EA85124260C46149680164D0
:1033D0000362F0BDFF8FFFFE002C0140003401406E
:1033E00000400140004401400048014030B5056AFA
:1033F000026A22F4803202624268036D114C23405B
:103400000C681C4325F400330D8943EA05430E4D37
:10341000A8420BD00D4DA84208D00D4DA84205D0B2
:103420000C4DA84202D00C4DA84204D14D6922F4A3
:10343000803242EA05224260046549688164036281
:1034400030BD00008FFFFEFF002C01400034014022
:1034500000400140004401400048014030B5046A8A
:10346000026A22F4801202624268036D114D24F454
:1034700000142B400D6843EA05230D8944EA0554E6
:103480000D4DA8420BD00D4DA84208D00C4DA842BE
:1034900005D00C4DA84202D00B4DA84204D14D6975
:1034A00022F4802242EA8522426003654968C164B1
:1034B000046230BDFF8FFFFE002C0140003401404C
:1034C00000400140004401400048014070B50568DB
:1034D0000024AA682E4B1A404B6813432D4A134010
:1034E0000A681A43AA604A68602A4AD00DDC302A6A
:1034F0001FD005DCEAB1102A1BD0202A18D118E011
:10350000402A1FD0502A13D135E0234D531BAA4225
:103510000FD009DC702A0ED0B2F1101F09D0203A6A
:10352000B2F5801F04D104E0102B02D0402B00D054
:103530000124204670BD0B69D1E902210068FFF724
:1035400011FEF6E70A68052A13D0B2F1011F10D068
:103550000268136A156A25F001051562026895690B
:10356000096925F0F00545EA0111916100680362DF
:10357000DFE7012070BD0A698968006800F00EF875
:10358000D7E70A698968006800F082F8D1E700008F
:103590008FFFCFFFF8FFFEFF3000100010B5036A69
:1035A000046A24F0010404620E4CA0420BD00E4CBD
:1035B000A04208D00D4CA04205D00D4CA04202D034
:1035C0000C4CA04203D1046A24F004040462846910
:1035D00024F0F00444EA021423F00A020A4384614E
:1035E000026210BD002C0140003401400040014047
:1035F0000044014000480140F0B5056A046A24F027
:10360000010404621B4E1C4FDFF870C0B04209D0A9
:10361000B84207D0604505D0194CA04202D0194CE1
:10362000A04203D1046A24F0040404628469B04215
:103630000CD0B0F1804F09D0134EB04206D0134EDB
:10364000B04203D0B84201D0604503D124F0030456
:10365000144301E044F001041A0724F0F00444EAA2
:10366000126225F00A0301F00A0119438261016226
:10367000F0BD0000002C014000340140004001403A
:1036800000440140004801400004004000080040A0
:1036900010B5036A046A24F0100404620A4CA042C4
:1036A00002D00A4CA04203D1046A24F04004046210
:1036B000846923F0A00324F4704444EA023243EA0C
:1036C00001118261016210BD002C014000340140F3
:1036D00030B5416EB9B1026891689268C1F3426138
:1036E0000B4B520F9C5CE50003F10804A25CB5FB98
:1036F000F2F2A0F86A205A5C615CD200B2FBF1F1F0
:10370000A0F8681030BD0121A0F86A10F8E70000A9
:103710006C52000890F82810090706D501684A681D
:10372000836B22F400421A434A6090F82810C907BC
:1037300006D001684A68C36A22F400321A434A601C
:1037400090F82810890706D501684A68036B22F4AF
:1037500080321A434A6090F82810490706D501685C
:103760004A68436B22F480221A434A6090F828107A
:10377000C90606D501688A68C36B22F480521A43D1
:103780008A6090F82810890606D501688A68036C5B
:1037900022F400521A438A6090F82810490611D585
:1037A00001684A68436C22F480121A434A60416CF3
:1037B000B1F5801F06D101684A68836C22F4C0020B
:1037C0001A434A6090F82810090606D501684A682D
:1037D000C06C22F4002202434A6070472DE9F8438E
:1037E00000260446C0F89060FDF7E8FB804620689C
:1037F00000684FF0200500076FF07E4713D5434661
:10380000002229042046009700F0A8F958B1216849
:1038100051E8000F20F0800041E80002002AF6D1B4
:10382000C4F8885021E020680068400722D543464C
:1038300000224FF480012046009700F08FF9C8B1B4
:10384000216851E8000F20F4907041E80002002A3E
:10385000F6D12068083050E8001F21F0010140E84F
:103860000012002AF5D1C4F88C5084F8846003203B
:10387000BDE8F883C4F88850C4F88C5044F86C6FE5
:10388000666026760020F3E710B5806AFEF79DFF9C
:1038900010BD000010B5026852E8001F21F49071BD
:1038A00042E80013002BF6D10E4B0268083252E8B2
:1038B000001F194042E80014002CF6D1C16E012906
:1038C00008D1016851E8002F22F0100241E80023DE
:1038D000002BF6D12021C0F88C100021C166416771
:1038E00010BD0000FEFFFFEF2DE9F0410446016826
:1038F00080682269E3691043626900251A43104316
:10390000DFF82CC20A688B4B1A4002430A60206819
:103910004168E26821F44051114341602168A06987
:10392000614501D0226A10438A68834B1A400243E2
:103930008A602068C16A626A21F00F011143C16286
:103940007E4923687E488B420DD1D0F8880010F064
:10395000030006D0012855D0022842D003283FD1C9
:1039600052E001203DE077498B420BD1D0F888002E
:1039700010F00C0035D0042833D0082840D00C2893
:103980002ED141E070498B420BD1D0F8880010F065
:10399000300026D0102835D0202831D030281FD133
:1039A00032E06A498B420BD1D0F8880010F0C00099
:1039B00017D0402826D0802822D0C02810D123E05C
:1039C00063450DD1D0F8880010F4406009D0B0F5FF
:1039D000806F17D0B0F5006F12D0B0F5406F13D0E4
:1039E00010205B495B4F00264FF4004263453BD1FA
:1039F00060B1022813D004280BD0082872D10DE042
:103A00000220EEE70420ECE70820EAE7FDF706FED7
:103A100001E0FDF727FE010001D17CE01146606A5C
:103A200037F810206768B1FBF2F007EB47038342D9
:103A300070D8B0EB073F6DD8002308461946FCF755
:103A4000E9FB090241EA106102027808101871418D
:103A50003A460023FCF7DEFB3F4AA0F54071914255
:103A600058D82168C86056E0E3694FF6EF78934272
:103A70002CD109284ED2DFE800F00508114D0D4D7C
:103A80004D4D1000FDF7CAFD01E0FDF7D9FD010025
:103A900004D140E0FDF7E6FDF9E71146606A37F82A
:103AA0001000B1FBF0F04100606801EB5001B1FB88
:103AB000F0F0A0F1100141452CD84FF6F071014013
:103AC000C0F3420001432068C16024E0092821D2EC
:103AD000DFE800F0050912200E2020201100FDF77C
:103AE0009DFD02E016E0FDF7ABFD010004D112E000
:103AF000FDF7B8FDF9E71146606A37F81000B1FB31
:103B0000F0F1606801EB5001B1FBF0F0A0F11001A1
:103B100041450AD901250120A4F86A0024F8680F5C
:103B20002846E6602661BDE8F08180B299E7000092
:103B300000800040F369FFCFFFF4FF11003801401F
:103B4000001002400044004000480040004C00408B
:103B50000024F40054520008FFFC0F002DE9F04748
:103B6000994617460D4604464FF00008089E33E07C
:103B7000701C31D0FDF722FAA0EB0900B04218D832
:103B8000BEB120680168490726D5802D24D0402D7C
:103B900022D0C169C94309070DD408250562204612
:103BA000FFF778FEC4F8905084F884800120BDE8C7
:103BB000F0870320FBE7C069C04300050CD42168EF
:103BC0004FF4006008622046FFF764FE2020C4F82E
:103BD000900084F88480ECE72068C06935EA000032
:103BE00004D00020B842C3D00020E0E70120F9E76C
:103BF0000148FEF7EBBD000014010020FEE70000C5
:103C00000FB4054B10B503A9044A029800F084FED6
:103C100010BC5DF814FB000039500008280000209B
:103C200003B401984100009850EAC12018BF042055
:103C30004A0D18BF40F0010040F2FF72B2EB515F35
:103C400008BF40F00200012808BF052002B07047FD
:103C50000907090E002804DB00F1E02080F80014B9
:103C6000704700F00F0000F1E02080F8141D70474D
:103C700010B52F499FED2C1B2DED020B84B005983C
:103C800020F000408842D8BF9DED040B2DDD29496E
:103C9000884209D1049840B94FF0010000F074FD4A
:103CA00000F03AFD06B010BD05DB9DED040B00F001
:103CB00027FD06B010BD68469DED040B00F038F9F5
:103CC00010F0030004BF9DED021B9DED000B0CD016
:103CD00001280ED09DED021B9DED000B022817D090
:103CE000012000F075FC06B010BD00F03DFB06B0F1
:103CF00010BD9DED021B9DED000B012000F068FC46
:103D000051EC100B81F0004106B041EC100B10BDDE
:103D100000F02AFB51EC100B81F0004106B041ECA1
:103D2000100B10BD000000000000000000000000AB
:103D3000FB21E93F0000F07F10B52DED028BF0EE86
:103D4000408A18EE900AB0EE608A20F00040C0F180
:103D5000FF40C00F07D118EE100A20F00040C0F15C
:103D6000FF40C00F2BD018EE101A18EE900AFCF787
:103D70005AFC00EE100A10EE100A6FEAD05010F054
:103D8000FF0F04BFBDEC028B10BD18EE900A00F0CF
:103D9000004110EE100A00F00040814204BFBDEC6B
:103DA000028B10BD18EE101A10EE100ABDEC028B3B
:103DB00061F31E0000EE900A30EE600A10BD18EEAE
:103DC000900A4FF07F41B1EB400F1CBF18EE100A74
:103DD0005FEA4000C7D1012000F0D6FCBDEC028BA9
:103DE000BDE8104000F0B8BC10B52F499FED2C1B6A
:103DF0002DED020B84B0059820F000408842DCBF16
:103E000000209DED040B32DD2849884209D1049839
:103E100040B94FF0010000F0B7FC00F07DFC06B0A7
:103E200010BD05DB9DED040B00F06AFC06B010BD73
:103E300068469DED040B00F07BF810F0030011D0F4
:103E4000012818D09DED021B9DED000B02281AD011
:103E500000F08AFA51EC100B81F0004106B041EC01
:103E6000100B10BD9DED021B9DED000B012000F01D
:103E7000AFFB06B010BD9DED021B9DED000B00F0E9
:103E800073FA06B010BD012000F0A2FB51EC100B3C
:103E900081F0004106B041EC100B10BD00000000A5
:103EA0000000000000000000FB21E93F0000F07F5F
:103EB00000B52DED048BB0EE409AF0EE609A83B021
:103EC00051EC190BFCF7A4FC41EC180B18EE100A8E
:103ED00018EE901A8DED008B002818BF01200843C2
:103EE00020F00040C0F17F6000F1E040C00F14D02E
:103EF00019EE101A19EE900A8DED009B002918BFDB
:103F00000121084320F00040C0F17F6000F1E04053
:103F1000C00F04BF012000F037FCB0EE480A03B028
:103F2000F0EE680ABDEC048B00BD0000000000004C
:103F30002DE9F14F04462DED020B2DED088B8AB0D3
:103F40009FEDE70B80ED020B139EE74826F000453E
:103F500085420ADC9DED120B002084ED000B0AB0B7
:103F6000BDEC088B03B0BDE8F08FE0489FEDE0ABFF
:103F70009FEDE1BBA84247DDE14F9FEDE39B9FED45
:103F8000E48B9DED120B53EC1A2B51EC100B002E11
:103F90001CDDFCF723FA41EC100BBD4208D053ECBA
:103FA0001B2B51EC100BFCF719FAC4E900010BE0D4
:103FB00053EC192B51EC100BFCF710FA53EC182BA7
:103FC000FCF70CFAC4E900010120C8E7FCF765F929
:103FD00041EC100BBD4208D053EC1B2B51EC100BE5
:103FE000FCF75BF9C4E900010BE053EC192B51EC31
:103FF000100BFCF752F953EC182BFCF74EF9C4E9FF
:1040000000014FF0FF30AAE7C348A84279DB9DEDDD
:10401000120B51EC100B01F002F841EC180B9FED64
:10402000C00B53EC102BFCF7DFF99FEDBF1B53ECDB
:10403000112BFCF732F9FCF79DFC0746FCF77CFCE2
:1040400041EC190B53EC1A2BFCF7CEF953EC182B5F
:10405000FCF7C7F941EC180B53EC1B2B51EC190B77
:10406000FCF7C2F9DFF8C8A241EC100B4FEA155873
:104070000125FA4453EC102B51EC180BFCF7AEF968
:10408000032DC4E900013DD0C1F30A5005EB4511F1
:10409000A8EB00001139814234DA0AEB051BB0EEBF
:1040A00048AA9BED000BF0EE68AA53EC102B51ECE4
:1040B000190BFCF799F941EC1B0B51EC1A0B53EC63
:1040C0001B2BFCF78BF941EC180B51EC1A0B53EC42
:1040D000182BFCF783F953EC1B2BFCF77FF99BEDB6
:1040E000020B41EC1A0B53EC102B51EC190BFCF7A3
:1040F0007BF953EC1A2BFCF771F941EC100B6D1C9A
:10410000B8E70EE0002EA8BF3846BFF628AF94ED02
:10411000000B51EC100B81F00041C4E90001784222
:104120001DE7C6F3130040F4801EC6F30A50A0F248
:10413000F530471100F01F05C5F12000DDF848B04B
:1041400008900020069007900520EC467949002D44
:1041500007EB0002794408BF51F8221009D051F84A
:10416000223001EB8201AB404A68089922FA01F142
:104170001943A1FB0E26A1FB0B131A449A4234BF2C
:104180000123002303EB06080CEB8003D3E901A60F
:104190000E448E4234BF0121002192448A4411B161
:1041A000924502D903E0924501D2012100E00021AD
:1041B000C3E901A641444CF82010011EA0F1010002
:1041C000C4DC029800F10050850F0298DDE9036716
:1041D0008000DDF81480FCF7AFFB41EC1A0B304691
:1041E000FCF7BBFB9FED541B53EC112BFCF7FCF8C9
:1041F00041EC1B0B3846FCF7B0FB9FED511B53EC19
:10420000112BFCF7F1F841EC180B4046FCF7A5FB2D
:104210009FED4D1B53EC112BFCF7E6F841EC190B0D
:1042200051EC180B53EC192BFCF737F853EC1B2B04
:10423000FCF733F853EC1A2BFCF72FF8CDE9080103
:10424000002008909DED080B53EC1A2B51EC100B3D
:10425000FCF7C4F853EC1B2BFCF7C0F853EC182BFD
:10426000FCF7BCF853EC192BFCF7BBF89FED381B9F
:1042700053EC112BFCF7B8F89FED370B41EC180B02
:1042800053EC102B9DED080B51EC100BFCF7ACF828
:1042900053EC182BFCF701F89FED310B41EC180B98
:1042A00053EC102B9DED080B51EC100BFCF79CF818
:1042B00053EC182BFBF7F1FF41EC100B139810F0A7
:1042C000004F06D06D4251EC100B81F0004141ECE3
:1042D000100B284684ED000B41E6000000000000B2
:1042E0000000000000000000FB21E93F7CD90240F3
:1042F00000004054FB21F93F3163621A61B4D03DA4
:10430000FB21F93F000000000000601A61B4D03DBD
:104310007370032E8A19A33BFB2139410000000072
:1043200083C8C96D305FE43F000000000000E03F3B
:104330007A120000C8110000000000000000103ECA
:10434000000000000000103C000000000000103AD7
:10435000182D4454FB21F93D3326A611460B113C80
:1043600000000054FB21F93D10B52DED040B2DED9F
:10437000088B82B0B0EE419AF0EE619A0B9820F073
:1043800000449FED4BABB4F1795F11DA9DED0A0B60
:1043900051EC100BFCF7EEFA002801BFB0EE4A0A10
:1043A000F0EE6A0A02B0BDEC088B04BF04B010BD89
:1043B0009DED0A0B53EC102B51EC100BFCF714F88D
:1043C00041EC180B3C480621B0EE480AF0EE680AB2
:1043D000784400F081F853EC182B51EC100BFCF7EB
:1043E00003F89DED0A0B41EC1B0B53EC192B51EC20
:1043F000100BFBF7F9FF41EC190B53EC1B2B51ECA5
:10440000180BFBF7F1FF53EC192BFBF7E7FF9FEDC0
:104410002C0B41EC190B53EC102B51EC180BFBF748
:10442000E3FF41EC100B2848844210DA53EC192BBF
:1044300051EC100BFBF7D2FF53EC1A2BFBF7D1FF1B
:1044400041EC100B02B0BDEC088B04B010BD1F484E
:10445000A042BCBF9FED1E1B8DED001B06DBA4F52B
:1044600000100190002000909DED001B51EC100BFE
:1044700053EC112BFBF7B2FF9DED000B41EC180B39
:1044800053EC102B51EC1A0BFBF7A8FF41EC1A0B65
:1044900053EC192B51EC180BFBF7A0FF53EC1A2B24
:1044A000FBF79FFF41EC100BCCE700000000000081
:1044B000000000000000F03FEC0E000000000000D3
:1044C000000000000000E03F3333D33F0000E93F2D
:1044D000000000000000D23F70B504462DED028BB5
:1044E0004D1E00EBC500B0EE408AF0EE608A90ED04
:1044F000000B35F0060017D053EC182B51EC100BC5
:10450000FBF772FF41EC100B6D1E04EBC50090ED44
:10451000001B51EC100B53EC112BFBF7BEFE41ECD2
:10452000100B35F00600E7D1022D36D0042D1CD03B
:10453000062D1CBFBDEC028B70BD53EC182B51EC4B
:10454000100BFBF751FF94ED0A1B53EC112BFBF7FB
:10455000A4FE53EC182BFBF747FF94ED081B53EC1C
:10456000112BFBF79AFE41EC100B53EC182B51EC7E
:10457000100BFBF739FF94ED061B53EC112BFBF7E7
:104580008CFE53EC182BFBF72FFF94ED040B53EC30
:10459000102BFBF782FE41EC100B53EC182B51EC67
:1045A000100BFBF721FF94ED021B53EC112BFBF7D3
:1045B00074FE53EC182BFBF717FF94ED001B53EC24
:1045C000112BFBF76AFEBDEC028B41EC100B70BDAA
:1045D00031B504462DED040B2DED0A8BB0EE41BA3A
:1045E000F0EE61BA0B989DED0A0B20F00040B0F19F
:1045F000795F0DDA51EC100BFFF712FB042808BFAE
:1046000000F09AF89DED0A0BBDEC0A8B05B030BDA9
:1046100053EC102B51EC100BFBF7E6FE41EC180BA2
:104620009DED0A0B53EC182B51EC100BFBF7DCFE45
:1046300041EC190B2C48B0EE480AF0EE680A05214F
:104640007844FFF749FF9FED2ACBB0EE40AAF0EE89
:1046500060AA9CB353EC1C2B51EC190BFBF7C4FE66
:1046600041EC1C0B53EC1A2B51EC190BFBF7BCFE65
:104670009FED210B41EC190B53EC102B51EC1B0B54
:10468000FBF7B2FE53EC192BFBF7A8FE53EC182BEB
:10469000FBF7AAFE53EC1B2BFBF7A0FE53EC1C2BE5
:1046A000FBF79CFE9DED0A1B53EC112BFBF799FECB
:1046B000BDEC0A8B05B041EC100B30BDFFE753ECAD
:1046C0001A2B51EC180BFBF78FFE53EC1C2BFBF74E
:1046D000E4FD53EC192BFBF787FE9DED0A1B53EC11
:1046E000112BFBF7DAFDE3E7740D0000000000007A
:1046F000495555555555C5BF000000000000E03F25
:1047000010B553EC102B51EC100BFBF7C6FD41EC30
:10471000100B10BD000000009FED050B10B553EC11
:10472000102B51EC100BFCF704F841EC100B10BDF2
:1047300000000000000000009FED050B10B553ECD9
:10474000102B51EC100BFBF74FFE41EC100B10BD82
:104750000000000000000010DFED020A80EEA00A59
:10476000704700000000000002E008C8121F08C1E6
:10477000002AFAD170477047002001E001C1121FE2
:10478000002AFBD170470000014908607047000013
:104790002C0000202DE9FF5F82B00021DDE904300C
:1047A000020DDDF840B0034318D044F61050A2F2D9
:1047B000FF3242431514119801281FD0A5EB0B00BE
:1047C000401C5FEA000A4FF000064E4FDFF83891B8
:1047D000B046504615D5CAF1000413E011980124E3
:1047E0004AA3012801D16FEA0B010298119AC0E98E
:1047F0000031C0E9024206B0BDE8F09FCBF10000F5
:10480000DFE704460021404A491842EB0450CDE955
:10481000001012E0E00707D032463B4640464946CA
:10482000FBF7E2FD8046894632463B461046194674
:10483000FBF7DAFD06460F466410002CEAD1DDE9ED
:104840000401DDE90023BAF1000F06DAFBF7CCFD25
:1048500042464B46FBF7C8FD05E0FBF76AFF4246C0
:104860004B46FBF766FF04460E460022284BFCF73A
:1048700039F803D84FF0FF30014607E00022254BFE
:1048800020463146FBF709FDFCF713F8102409E038
:10489000002C0ADB0A220023FBF7BCFC039B30320E
:1048A0001A55641E50EA0102F2D1641C039AC4F145
:1048B00011031444119A012A03D0012208430DD197
:1048C0000AE0084304D000204FF0110B119072E76A
:1048D000A3EB0B056D1E0DE05B4504DD4FF0000200
:1048E00005F1010504E003DA4FF00002A5F101052E
:1048F000002AECD002981199C0E90231C0E90045C4
:1049000079E70000000014400000F03F3000000094
:104910000000F0430000E03F2DE9FF4F95B09A46BC
:10492000884606460025EEE1252877D10024274653
:10493000F94A0121039400E0044316F8013F203BAB
:1049400001FA03F01042F7D130782A2811D06FF025
:104950002F033078A0F13002092A16D8039A44F0C8
:10496000020402EB820203EB42021044761C039025
:10497000EFE758F8042B0392002A03DA504244F47C
:104980000054039044F00204761C30782E2816D18F
:1049900016F8010F44F004042A280DD06FF02F02FE
:1049A0003078A0F13003092B09D807EB870302EB1D
:1049B0004303C718761CF3E758F8047B761C30785D
:1049C0006C280FD006DC4C2817D068280DD06A2838
:1049D00014D104E0742810D07A280FD10DE044F4EB
:1049E00000140AE044F4801401E044F440147278A6
:1049F000824202D104F58014761C761C3078662839
:104A00000BD013DC582877D009DC002875D0452856
:104A1000F6D04628F4D047281AD193E118E063284D
:104A200035D0642879D0652812D18BE1702873D0F5
:104A300008DC6728F1D069286FD06E280DD06F2868
:104A400006D1ACE073282CD0752874D0782853D0C8
:104A50005246179990476D1C54E1C4F30250022846
:104A600009D003280DD0D8F8001004280DD00D600F
:104A700008F1040846E1D8F80010EA17C1E900522D
:104A8000F6E7D8F800100D80F2E70D70F0E718F89F
:104A9000041B8DF8001000208DF80100EB4601206A
:104AA00003E058F804BB4FF0FF3061074FF00001FE
:104AB00002D40DE009F101018946B9420FDA8145BE
:104AC000F8DB1BF809100029F4D108E009F1010115
:104AD00089468142FADB1BF809100029F6D10398B8
:104AE0005346A0EB090721463846179A00F080FA92
:104AF000284400EB090507E044E008E10DE01BF85D
:104B0000010B524617999047B9F10109F7D2534664
:104B100021463846179AF2E039E00A21C4F30252DE
:104B20004FF0000B0091022A06D058F8040BC11771
:104B3000032A09D00AE023E008F1070020F0070269
:104B4000F2E80201904605E000B2C117042A01D143
:104B500040B2C117002906DA0A460021404261EB43
:104B600002012D2202E0220504D52B228DF804201B
:104B7000012203E0E20701D02022F7E7914657E047
:104B80000A2100E010214FF0000B00910BE01021F2
:104B90004FF0000B44F004040827009103E00820C4
:104BA0004FF0000B0090C4F30252022A05D058F8CF
:104BB000040B0021032A08D008E008F1070020F0C8
:104BC0000702F2E80201904603E080B2042A00D115
:104BD000C0B24FF0000922072AD53278702A07D0D8
:104BE000DDF800C08CF0100C5CEA0B0C05D00EE078
:104BF00040228DF80420012208E050EA010306D08B
:104C000030238DF804308DF8052002229146009B58
:104C100083F0080353EA0B030AD150EA010201D1E1
:104C2000620705D530228DF804204FF001097F1E60
:104C30003278582A04D039A20C920CAA02920BE0C6
:104C40003BA2F9E75B46009AFBF7E4FA0C9B9B5CFE
:104C5000029A521E0292137050EA0102F2D1029897
:104C600004A9081A00F1200B600702D524F480344F
:104C700000E001275F4502DDA7EB0B0000E000200C
:104C800000EB0B01009003984944401A0390E003A5
:104C900006D453462146179A039800F0A9F9054413
:104CA000002706E001A85246C05D179990476D1C89
:104CB0007F1C4F45F6DBE0030CD553462146179A7F
:104CC000039800F095F9054404E030205246179906
:104CD00090476D1C0099481E00900029F5DC08E003
:104CE0000298029952460078491C02911799904700
:104CF0006D1CBBF10001ABF1010BF1DC5BE100F0DD
:104D000065F90544761C307800287FF40DAE19B0A3
:104D10002846BDE8F08F0000092801003031323309
:104D200034353637383961626364656600000000E7
:104D300030313233343536373839414243444546D1
:104D400000000000600700D4062708F1070020F0EB
:104D50000700F0E80223804603F0004C5FEA0C00F5
:104D600001D097A009E0200501D596A005E0E00755
:104D700001D095A001E0AFF24C001390307823F001
:104D8000004365280CD006DC452809D046281DD0F4
:104D900047287FD13BE0662818D067287AD136E0D3
:104DA0000021112F01DB112000E0781CCDE900016A
:104DB00004A90CA8FFF7EEFCDDE90D010C9A4FF0F9
:104DC000000B07F10109109200914EE04FF00040F6
:104DD0000097CDE9011004A90CA8FFF7DBFCDDE981
:104DE0000D020C9B0F994FF0000B9146109300920F
:104DF00011B9791C00EB0109B7EB090003D4C0F12C
:104E0000FF3B07F10109A9EB0700019042E0012FE8
:104E100000DA01270021112F01DD112000E03846C2
:104E2000CDE9000104A90CA8FFF7B4FCDDE90D01F0
:104E30000C9A00914FF0000BB946109221070FD445
:104E4000009A4A4503DA914601E0A9F10109B9F156
:104E5000010F05DD109AA9F10101515C3029F4D050
:104E6000B84202DA10F1040F03DA0121CDE9011092
:104E700010E0002803DC8344A9EB000102E0411CA0
:104E8000494500DD8946A0EB0B00401C01904FF026
:104E900000400290200705D40198484502DB4FF0FE
:104EA000FF30019000208DF84B0002980DF14B0768
:104EB000B0F1004F25D002200C902B200D900298CD
:104EC00000280CDA404202902D200D9007E00A21C4
:104ED0000298FBF72AFB3031029007F8011D0C996C
:104EE000481E0C900029F2DC02980028EFD1791EB0
:104EF0000D980870307800F0200040F0450007F869
:104F0000020D11A8C01BC01D02901398007800B1BB
:104F1000012000EB0901019801EBE07102980144C6
:104F20000398401A401E0390E00306D453462146DE
:104F3000179A039800F05CF805441398007818B1AC
:104F40005246179990476D1CE00323D553462146DE
:104F5000179A039800F04CF805441BE0BBF1000FD2
:104F600007DB0098584504DD1098179910F80B00DE
:104F700001E0179930205246904701980BF1010B40
:104F8000401E05F10105019004D12E2052461799CB
:104F900090476D1CB9F10001A9F10109DEDC05E0C3
:104FA00017F8010B5246179990476D1C0299481E3D
:104FB00002900029F4DC53462146179A03989EE696
:104FC0002D0000002B000000200000002DE9F04122
:104FD000044600251E461746880404D405E03946D9
:104FE0002020B0476D1C641EF9D52846BDE8F0812D
:104FF0002DE9F041044600251E469046C80301D520
:10500000302700E02027880404D505E041463846D3
:10501000B0476D1C641EF9D52846BDE8F08182B00A
:10502000CDE9000121F0004001909DED000B02B0A0
:1050300051EC100B7047000013B54FF0FF33012205
:1050400069460248FDF7CCFD00981CBD1401002004
:1050500070B514462DED088BB0EE408AF0EE608AF4
:105060000D4680ED008A18EE900AFBF72FFA9FEDAF
:1050700026BB41EC190BB0EE4B0AF0EE6B0AFEF7C3
:1050800017FF9FED23AB51EC100B53EC1A2BFBF7E2
:10509000ABF953EC192BFBF7A7F9BEEE000A41EC74
:1050A000190B28EE008A18EE100AFBF70FFA53ECE2
:1050B000192BFBF7F2F8FBF71CFA286018EE900AA0
:1050C000FBF704FA41EC190BB0EE4B0AF0EE6B0A59
:1050D000FEF7EEFE53EC1A2B51EC100BFBF784F9A4
:1050E00053EC192BFBF780F941EC190B18EE100A61
:1050F000FBF7ECF953EC192BFBF770F9FBF7F9F917
:105100002060BDEC088B70BD00000000000008406E
:10511000000000000000E03F70B505462DED088B53
:10512000B0EE418A0C46F0EE608AB0EE409A18EE7E
:10513000100AFBF7CBF941EC100BFEF755FEB0EE71
:1051400040AAF0EE60AA19EE100AFBF7BFF953EC83
:105150001A2BFBF749F941EC1A0B18EE100AFBF772
:10516000B5F941EC100BFEF783FDB0EE40BAF0EE5E
:1051700060BA18EE900AFBF7A9F953EC1B2BFBF76A
:1051800033F953EC1A2BFBF729F9FBF7B2F9286036
:1051900018EE100AFBF79AF941EC100BFEF768FDC8
:1051A000B0EE40AAF0EE60AA19EE100AFBF78EF9F5
:1051B00053EC1A2BFBF718F941EC190B18EE100AF7
:1051C000FBF784F941EC100BFEF70EFEB0EE40AA9F
:1051D000F0EE60AA18EE900AFBF778F953EC1A2B60
:1051E000FBF702F953EC192BFBF757F8FBF781F9A2
:1051F0002060BDEC088B70BDFBF7EEFEFDF7EEFE08
:10520000FDF74CFDFDF7B0FEFDF7BAFDFDF724FEFE
:10521000FDF756FE0348FCF7B3FEFBF73BFCFBF73C
:1052200017FCFEE77C00002010B52DED028B9FEDF2
:10523000088AF0EE480AFEF77FFDB5EEC00AF1EEEF
:1052400010FA01D230EE080ABDEC028B10BD00004E
:10525000DB0FC940010002000400060008000A003C
:105260000C0010002000400080000001010101033B
:105270000701000008040204080101010000000009
:1052800000000000010203040607080900000000F6
:1052900001020304000503010604020004010502E3
:1052A000060300000000000000000000910A864094
:1052B000358DA740910A0640910A863FDA0F494092
:1052C0004C5555555555A53F7751C1166CC156BF24
:1052D0009015CB19A001FA3EAD529C804F7E92BE34
:1052E000C4B1B4BD9EEE213ED43888BEE9FAA8BD53
:1052F00000004054FB21F93F3163621A61B4D03D94
:105300000000601A61B4D03D7370032E8A19A33B6C
:105310000000002E8A19A33BC14920259A837B39BE
:1053200000000000000000006E83F9A22915444E21
:10533000D15727FCC0DD34F5999562DB4190433CA1
:10534000AB6351FE61C5BBDE3A6E24B7E0D24D427D
:10535000EA2E49061C92D1091CEB1DFE3EA729B17D
:10536000F53582E88444BB2E26709CE9417E5FB40B
:1053700039D69139F43953838B5F849C3B28F9BD2E
:10538000FF97F81F0F9805DE8B112FEF1F6D0A5A3C
:10539000CF7E366DB709CB27663F464F2DEA5F9E1D
:1053A000C7BA27757BF1E5EBF739073DEA92528AD8
:1053B000B15FFB6B085D8D1FA6F810111111813FC5
:1053C000D561C119A0012ABF7DFEB157E31DC73EBB
:1053D000EB9C2B8AE6E55ABE7CD5CF5A3AD9E53DFF
:1053E000005400080000002030000000684700085A
:1053F000305400083000002088050000784700087D
:10540000000000001000000001000000000000008B
:105410000024F40000000000000000000000E04054
:10542000000040410000404000000000000000007B
:04000005080001D915
:00000001FF
