:020000040800F2
:10000000080700207902000823140008891300085B
:10001000211400086F040008B9190008000000004E
:10002000000000000000000000000000271400088D
:1000300071040008000000002514000829140008BD
:10004000930200089302000893020008930200083C
:10005000930200089302000893020008930200082C
:10006000930200089302000893020008930200081C
:10007000930200089302000893020008930200080C
:100080009302000800000000930200089302000899
:1000900093020008930200089302000893020008EC
:1000A00093020008930200089302000893020008DC
:1000B00093020008930200089302000893020008CC
:1000C00093020008930200089302000893020008BC
:1000D00093020008930200089302000893020008AC
:1000E000930200089302000893020008930200089C
:1000F0009302000893020008930200080000000029
:1001000000000000930200080000000093020008B5
:100110009302000800000000930200089302000808
:10012000930200089302000893020008930200085B
:100130009302000800000000000000009302000885
:100140009302000893020008000000000000000075
:10015000000000000000000000000000000000009F
:1001600000000000000000000000000093020008F2
:1001700093020008000000000000000000000000E2
:1001800000000000930200080000000000000000D2
:10019000000000000000000000000000000000005F
:1001A0000000000000000000930200089302000815
:1001B0009302000893020008930200080000000068
:1001C0000000000093020008000000000000000092
:1001D000930200089302000800F002F800F03CF8D7
:1001E0000AA090E8000C82448344AAF10107DA4592
:1001F00001D100F031F8AFF2090EBAE80F0013F0A8
:10020000010F18BFFB1A43F0010318472C18000018
:100210004C180000103A24BF78C878C1FAD85207A9
:1002200024BF30C830C144BF04680C607047000070
:100230000023002400250026103A28BF78C1FBD8EF
:10024000520728BF30C148BF0B6070471FB501F08F
:10025000CDFB1FBD10B510BD00F0CFF81146FFF764
:10026000F5FF01F0BAFB00F0EDF803B4FFF7F2FF81
:1002700003BC00F0F5F80000094880470948004732
:10028000FEE7FEE7FEE7FEE7FEE7FEE7FEE7FEE746
:10029000FEE7FEE704480549054A064B70470000A3
:1002A00095140008D9010008080100200807002063
:1002B000080300200803002053EA020C00F06980C4
:1002C0002DE9F04B4FF00006002B1FBFB3FA83F56A
:1002D00003FA05F424FA05F65E4012BF1643B2FA9B
:1002E00082F502FA05F4C5F120051EBF22FA05FCCD
:1002F00044EA0C04203556EA044C4FEA144418BF73
:10030000641C4FF000084FF00009904271EB030CA1
:1003100039D3002919BFB1FA81F701FA07F6B0FA0B
:1003200080F700FA07F6C7F120071EBF20FA07FC86
:1003300046EA0C062037B6FBF4FCA7EB0507103F96
:1003400007F01F0BCBF120060CFA0BFB2CFA06F67C
:1003500044BFB3460026202FA4BF5E464FF0000BDB
:100360005BEA060C08BF4FF0010B19EB0B09ABFB66
:10037000027C48EB0608C01B06FB02CC0BFB03CC3F
:1003800071EB0C01C1E70B46024641464846BDE809
:10039000F08B13B54FF000004FF00001AFF3008079
:1003A000BDE81C4070474FF0000200B5134694466C
:1003B0009646203922BFA0E80C50A0E80C50B1F1BD
:1003C0002001BFF4F7AF090728BFA0E80C5048BFD1
:1003D0000CC05DF804EB890028BF40F8042B08BF6F
:1003E000704748BF20F8022B11F0804F18BF00F86B
:1003F000012B7047704770477047754600F02CF826
:10040000AE4605006946534620F00700854618B001
:1004100020B5FFF73FFFBDE820404FF000064FF04A
:1004200000074FF000084FF0000B21F00701AC4629
:10043000ACE8C009ACE8C009ACE8C009ACE8C00948
:100440008D46704710B50446AFF300802046BDE8E6
:100450001040FFF70ABF000000487047A4000020CA
:1004600001491820ABBEFEE7260002007047FEE7F8
:10047000704772B6FEE700002DE9F04FDFF80C92EE
:10048000002301260325A9F1040B85B00F2709F1EC
:10049000040AABF1040EF1E006FA03FC12EA0C02C6
:1004A0007ED00C7904F00304012C01D0022C20D161
:1004B000846800945C0005FA04F80494009C24EA23
:1004C00008040094D1F80C80049C08FA04F8009CFD
:1004D00048EA0408C0F80880446824EA0C0491F84B
:1004E00004C0CCF3001C0CFA03FC4CEA040CC0F86A
:1004F00004C00C79E443A40702D18C68012C0ED00F
:10050000C4684FEA430805FA08FC24EA0C04D1F851
:1005100008C00CFA08FC4CEA040CC0F80CC00C79BA
:1005200004F00304022C16D1DC0800EB840CCDF897
:1005300008C0DCF820C05C074FEAD46807FA08F46A
:100540002CEA040C0C6904FA08F444EA0C04DDF803
:1005500008C0CCF8204004684FEA430805FA08FCBC
:1005600024EA0C0491F804C00CF0030C0CFA08FC0B
:100570004CEA040CC0F800C04C6814F4403F7CD036
:10058000434CD4F860C04CF0010CC4F860C0246E39
:1005900023F0030C04F0010400943E4C644400E09A
:1005A0006BE00294A4684FEA837C4FEA1C7807FA58
:1005B00008FC24EA0C04B0F1904F06D0DFF8D8C054
:1005C000604505D14FF0010C20E04FF0000C1DE01C
:1005D000DFF8C8C0604502D14FF0020C16E0DFF82A
:1005E000C0C0604502D14FF0030C0FE0DFF8B4C08B
:1005F000604502D14FF0040C08E0DFF8ACC0604564
:1006000002D14FF0050C01E04FF0060C0CFA08FC8B
:100610004CEA040C029CC4F808C0D9F80040CC464F
:10062000D1F8048094435FEAC82800D51443CCF87D
:100630000040DAF80040D446D1F8048094435FEAE1
:10064000882800D51443CCF80040DBF80040DC4695
:10065000D1F8048094435FEA883800D51443CCF87D
:100660000040DEF80040F446D1F8048094435FEA8D
:10067000C83800D51443CCF800405B1C0C682246F7
:10068000DC407FF409AF05B0BDE8F08F08040140FD
:10069000001002400000014000040048000800482B
:1006A000000C004800100048001400480148806811
:1006B0007047000000000020024881684268114431
:1006C000816070470000002010B50024032000F076
:1006D00065F80F2000F008F808B1012401E000F0EF
:1006E00025F8204610BD000070B50E4E05460024CA
:1006F000706898B14FF47A71B1FBF0F00A4909685B
:10070000B1FBF0F000F050FD40B9102D06D20022F0
:100710002946501E00F022F8356000E001242046F2
:1007200070BD0000000000200C0000200A4882B0CC
:10073000016E41F001010166016E01F001010091BD
:10074000816D41F080518165806D00F08050009096
:1007500002B000F093B8000000100240F0B40E4B5D
:100760001B680C46C3F30223C3F10705042D00D90F
:100770000425191D072901D2002300E0DB1E0126F4
:1007800006FA05F1491E214099409E40761E16400A
:100790003143F0BC01F011B90CED00E0064900F066
:1007A000070208684FF6FF03184040EA0220034A98
:1007B00010430860704700000CED00E00000FA05EF
:1007C0002B492C4B0A6832214A432B4940B1B0F5E2
:1007D000007F086829D020F4C06040F480602CE0DD
:1007E0000868C0F34120022804D051F8800F20F49B
:1007F000807022E0D1F8800020F48070C1F8800081
:10080000086820F4C06040F400700860B2FBF3F0A8
:10081000401C00E0401E4A69520501D50028F9D16C
:10082000486940050AD503207047C0F341200228DB
:1008300006D051F8800F40F48070086000207047A7
:10084000D1F8800040F48070C1F88000086820F47E
:10085000C06040F400700860B2FBF3F0401C00E0A0
:10086000401E4A695205DBD50028F9D1D8E70000BF
:100870000C00002040420F000070004002488168D8
:1008800041F4804181607047007000402DE9F843D9
:100890000446006800269D4D00035ED5A86D002724
:1008A000C00008D4A86D40F08050A865A86D01274D
:1008B00000F080500090DFF85892D9F8001041F411
:1008C0008071C9F80010FFF7F1FE804606E000BF16
:1008D000FFF7ECFEA0EB080002282BD8D9F80000A7
:1008E000C005F5D5D5F8900010F4407014D0216CF7
:1008F000814211D0D5F89000D5F8901020F44070C6
:1009000041F48031C5F89010D5F8901021F4803171
:10091000C5F89010C5F89000C00711D0FFF7C6FECB
:10092000804641F2883907E0FFF7C0FEA0EB0801DE
:10093000494501D903260BE0D5F890008007F3D58F
:10094000D5F89000216C20F440700843C5F8900061
:100950001FB1A86D20F08050A8652078C00707D08F
:10096000D5F88800616820F003000843C5F88800C6
:100970002078800707D5D5F88800A16820F00C0002
:100980000843C5F888002078400707D5D5F88800C7
:10099000E16820F030000843C5F88800207800079F
:1009A00007D5D5F88800216920F0C0000843C5F8B4
:1009B00088002078800607D5D5F88800616920F482
:1009C00040600843C5F888002078400607D5D5F870
:1009D0008800A16920F440500843C5F888002078B9
:1009E000000607D5D5F88800E16920F440400843A7
:1009F000C5F888002088C00507D5D5F88800216A89
:100A000020F440300843C5F888002088800507D5C9
:100A1000D5F88800616A20F440200843C5F88800B2
:100A2000208840050FD5D5F88800A16A20F4401031
:100A30000843C5F88800A06AB0F5801F03D1E868B4
:100A400040F48010E860208800050FD5D5F88800B4
:100A5000E16A20F440000843C5F88800E06AB0F578
:100A6000800F03D1E86840F48010E8602088C0045B
:100A70000FD5D5F88800216B20F040700843C5F8E9
:100A80008800206BB0F1807F03D1E86840F48010CB
:100A9000E86020884FF0006180040ED5D5F888000A
:100AA000626B20F040601043C5F88800606B88429C
:100AB00003D1E86840F48010E860208840040ED537
:100AC000D5F88800A26B20F040601043C5F888007C
:100AD000A06B884203D1E86840F48010E860208869
:100AE00000040FD5D5F88800E16B20F04050084392
:100AF000C5F88800E06BB0F1805F03D1E86840F48E
:100B00008030E8603046BDE8F88300000010024005
:100B1000007000402DE9F0470E4605004FF0000739
:100B200025D0DFF8AC81D8F8000000F00F00B0420B
:100B30000CD2D8F8001021F00F013143C8F8001092
:100B4000D8F8000000F00F00B04210D12968614CC5
:100B5000C80741F2883A5AD06868DFF87C910328C8
:100B600008D0022820682DD0400500282CDB012069
:100B7000BDE8F08720688001F9D5E06800F0030245
:100B8000E068C0F30310401C032A19D0534A00BF89
:100B9000B2FBF0F0E268C2F306225043E268C2F30F
:100BA0004162521C5200B0FBF2F0484517D9A068D0
:100BB00010F0F00F0CD0880711D5A86840B10EE0F6
:100BC000474AE5E78003D0E700F0B6F8484506D984
:100BD000A06820F0F00040F08000A0608027A068AE
:100BE000696820F003000843A060FFF75FFD8146BD
:100BF00006E000BFFFF75AFDA0EB090151453AD8C6
:100C0000A068696800F00C00B0EB810FF2D1286891
:100C1000810714D5400703D5A06840F4E060A060C8
:100C20002878000705D5A06820F4605040F4E06003
:100C3000A060A068A96820F0F000084304E0802FBD
:100C400003D1A06820F0F000A060D8F80010404662
:100C500001F00F01B14216D9016821F00F013143B3
:100C60000160FFF723FD074607E000BFFFF71EFD09
:100C7000C11B514501D903207AE7D8F8000000F0E4
:100C80000F00B042F2D12878400705D5A068E96886
:100C900020F4E0600843A0602878000706D5A0682B
:100CA000296920F4605040EAC100A06000F044F8D7
:100CB000A1680C4AC1F30311515C01F01F01C84047
:100CC0000949086009480068BDE8F047FFF70CBD16
:100CD000002002400010024000B4C4040024F400CC
:100CE00000127A001E1A00080C00002000000020EC
:100CF0000548064900688968054AC1F30221515C2C
:100D000001F01F01C84070470C0000200010024095
:100D10002E1A00080548064900688968054AC1F38B
:100D2000C221515C01F01F01C84070470C00002037
:100D3000001002402E1A0008184910B58868C0F348
:100D400081021748012A0BD08A684310C2F381023E
:100D5000022A06D08A68C2F38102032A03D0002047
:100D600010BD184610BDCA6802F00304CA68C2F379
:100D70000312521C032C02D0B0FBF2F001E0B3FBD3
:100D8000F2F0CA68C968C2F306225043C1F3416158
:100D9000491C4900B0FBF1F010BD000000100240FA
:100DA0000024F4002DE9F84304007AD02078F84DAF
:100DB000C00747D0A868E96800F00C0001F0030103
:100DC0000C2802D0082817D001E0032914D060684D
:100DD000B0F5803F17D0B0F5A02F286817D020F4C9
:100DE00080302860286820F4802028606068E0B1A6
:100DF000FFF75CFC064614E02868800322D5606893
:100E00000028D2D01EE0286840F48030EDE740F49E
:100E100080202860F7E700BFFFF748FC801B6428AC
:100E200070D828688003F7D50CE0FFF73FFC064632
:100E300005E000BFFFF73AFC801B6428F0D8286863
:100E40008003F7D4207880074CD5A868E96800F0C3
:100E50000C0001F003010C2802D004280DD001E0A1
:100E600002290AD0E068002828682BD040F480705E
:100E70002860FFF71BFC064619E02868400502D5EC
:100E8000E068002891D06868217C20F0FE4040EAAC
:100E900001606860BF480068FFF726FC002800D1A9
:100EA00020E072E1FFF702FC801B0228B8D8286816
:100EB0004005F7D56868217C20F0FE4040EA0160DB
:100EC00068600FE020F480702860FFF7EFFB0646B3
:100ED00005E000BFFFF7EAFB801B0228A0D82868C6
:100EE0004005F7D42078000729D560690028D5F897
:100EF000940013D040F00100C5F89400FFF7D6FB32
:100F0000064606E090E000BFFFF7D0FB801B0228FA
:100F100086D8D5F894008007F6D510E020F00100BF
:100F2000C5F89400FFF7C2FB064604E0FFF7BEFBDE
:100F3000801B022878D8D5F894008007F6D4207852
:100F4000400761D5A86D0026C00008D4A86D40F008
:100F50008050A865A86D012600F0805000908E4852
:100F60000168C90511D40168804641F480710160AF
:100F7000FFF79CFB074604E0FFF798FBC01B022825
:100F800052D8D8F80000C005F6D5A068012815D0C1
:100F90000528D5F8900016D020F00100C5F8900083
:100FA000D5F8900020F00400C5F89000A06841F248
:100FB0008838B8B1FFF77AFB07460EE0D5F8900005
:100FC00040F00100F0E740F00400C5F89000F5E7BC
:100FD000FFF76CFBC11B414526D8D5F89000800770
:100FE000F6D50CE0FFF762FB074604E0FFF75EFB77
:100FF000C11B414518D8D5F890008007F6D41EB122
:10100000A86D20F08050A8652078800629D5A069B9
:101010000028D5F8980013D040F00100C5F89800DA
:10102000FFF744FB064606E075E000BFFFF73EFB16
:10103000801B02286FD8D5F898008007F6D510E0FD
:1010400020F00100C5F89800FFF730FB064604E0E9
:10105000FFF72CFB801B02285DD8D5F8980080078D
:10106000F6D4E069F0B3A968C1F3810103295DD02A
:101070000228286820F08070286003D0FFF716FB54
:1010800004464BE0FFF712FB064604E0FFF70EFBB9
:10109000801B02283FD828688001F7D4F4E90801B2
:1010A0006FF00F0202EB01110843218A5204490834
:1010B00002EB4151A26841EA02210843217D4FF031
:1010C0007E42490802EB41610843217B40EAC1604E
:1010D000E968324A11400843E860286840F08070AF
:1010E000286000E05EE0E86840F08070E860FFF7AC
:1010F000DDFA044605E000BFFFF7D8FA001B02281E
:1011000009D828688001F7D54CE000BFFFF7CEFA78
:10111000001B022802D90320BDE8F883286880015B
:10112000F4D4E8681E490840E8603BE00128F3D0A9
:10113000E868226A00F00301914226D1616A00F05A
:10114000F0020901103991421FD1A26A00F4FE4158
:10115000B1EB022F19D194F82C2000F07841B1EBBB
:10116000C26F12D1218E00F4C00249084905A1F5D1
:101170000011914209D194F8341000F0C060490880
:101180004906A1F1007181420CD00120C4E70000A2
:101190000010024000000020007000400C809F0101
:1011A000FCFFEEFE0020B7E710B5401EB0F1807FD7
:1011B00001D3012010BD4FF0E02460610F216017C2
:1011C00000F0FBFB0020A06107202061002010BD83
:1011D00090F88410012918D0012180F8841024216E
:1011E000C0F8881001680A680B6823F001030B60DF
:1011F00022F0005100224266036819602021C0F8E5
:10120000881080F88420104670470220704770B51F
:10121000044690F8840001281DD0012084F8840041
:101220002420C4F8880020680568026822F00102C2
:1012300002602068826822F060620A438260204671
:1012400000F030F9206805602020C4F888000020F4
:1012500084F8840070BD022070BD70B5044690F81B
:10126000840001281DD0012084F884002420C4F8C3
:10127000880020680568026822F001020260206888
:10128000826822F060420A438260204600F00AF938
:10129000206805602020C4F88800002084F88400BD
:1012A00070BD022070BD10B5040003D0D4F88800D2
:1012B00010B107E0012010BD002084F88400204612
:1012C00000F026F82420C4F888002068016821F086
:1012D00001010160A06A10B1204600F005F9204626
:1012E00000F0E6F90128E6D02068416821F4904139
:1012F00041602068816821F02A01816020680168CE
:1013000041F0010101602046BDE8104000F050B9F5
:1013100030B597B00446142111A8FFF744F84421D2
:101320006846FFF740F816492068884226D1022512
:101330000024684600950294FFF7A8FA08B1FFF769
:1013400098F81048816D41F400318165816D01F498
:1013500000311691C16C41F00101C164C06CCDE94E
:10136000125400F0010016900C2011900720CDE9D6
:10137000144011A94FF09040FFF77EF817B030BD30
:101380000044004000100240FEE70000094808B594
:10139000C16C41F02001C164C16C01F020010091D9
:1013A000C16C41F00101C164C06C00F0010000900B
:1013B00008BD000000100240184810B51649016031
:1013C0004FF4E1314160002181600C22C160C0E92D
:1013D00004128161C161016241628162FFF763FFB2
:1013E00008B1FFF746F800210C48FFF736FF08B1B7
:1013F000FFF73FF800210948FFF709FF08B1FFF7A1
:1014000038F80648FFF7E4FE002803D0BDE8104096
:10141000FFF72FB810BD000000440040100000206E
:10142000FEE7FEE770477047FFF746B910B594B086
:1014300038216846FEF7B7FF14210EA8FEF7B3FF68
:101440000020FFF7BDF90120009000040190022068
:101450000324CDE907045521CDE909010B900C9037
:101460000D906846FFF79EFC08B172B6FEE70F20AC
:10147000CDE90E04002010904FF48060119012907E
:1014800004210EA8FFF746FB002801D072B6FEE744
:1014900014B010BD0248016841F47001016070474A
:1014A00088ED00E030B5416EB9B10268916892688C
:1014B000C1F342610B4B520F9C5CE50003F1080441
:1014C000A25CB5FBF2F2A0F86A205A5C615CD20023
:1014D000B2FBF1F1A0F8681030BD0121A0F86A104C
:1014E000F8E700000E1A000890F82810090706D542
:1014F00001684A68836B22F400421A434A6090F8FC
:101500002810C90706D001684A68C36A22F400326D
:101510001A434A6090F82810890706D501684A687E
:10152000036B22F480321A434A6090F8281049076E
:1015300006D501684A68436B22F480221A434A6048
:1015400090F82810C90606D501688A68C36B22F492
:1015500080521A438A6090F82810890606D50168DF
:101560008A68036C22F400521A438A6090F82810AB
:10157000490611D501684A68436C22F480121A4367
:101580004A60416CB1F5801F06D101684A68836CDE
:1015900022F4C0021A434A6090F82810090606D5C2
:1015A00001684A68C06C22F4002202434A60704716
:1015B0002DE9F84300260446C0F89060FFF776F85E
:1015C0008046206800684FF0200500076FF07E47D6
:1015D00013D54346002229042046009700F0A2F9C3
:1015E00058B1216851E8000F20F0800041E8000266
:1015F000002AF6D1C4F8885021E02068006840072E
:1016000022D5434600224FF480012046009700F087
:1016100089F9C8B1216851E8000F20F4907041E8C1
:101620000002002AF6D12068083050E8001F21F09F
:10163000010140E80012002AF5D1C4F88C5084F86A
:1016400084600320BDE8F883C4F88850C4F88C5047
:1016500044F86C6F666026760020F3E710B50268E8
:1016600052E8001F21F4907142E80013002BF6D1DC
:101670000E4B0268083252E8001F194042E800147D
:10168000002CF6D1C16E012908D1016851E8002F64
:1016900022F0100241E80023002BF6D12021C0F8EF
:1016A0008C100021C166416710BD0000FEFFFFEFF6
:1016B0002DE9F0410446016880682269E36910431E
:1016C000626900251A431043DFF82CC20A688B4B6D
:1016D0001A4002430A6020684168E26821F44051E0
:1016E000114341602168A069614501D0226A10431D
:1016F0008A68834B1A4002438A602068C16A626A22
:1017000021F00F011143C1627E4923687E488B425C
:101710000DD1D0F8880010F0030006D0012855D074
:10172000022842D003283FD152E001203DE0774912
:101730008B420BD1D0F8880010F00C0035D0042873
:1017400033D0082840D00C282ED141E070498B427C
:101750000BD1D0F8880010F0300026D0102835D0FA
:10176000202831D030281FD132E06A498B420BD17A
:10177000D0F8880010F0C00017D0402826D080286C
:1017800022D0C02810D123E063450DD1D0F88800C5
:1017900010F4406009D0B0F5806F17D0B0F5006F3D
:1017A00012D0B0F5406F13D010205B495B4F00267C
:1017B0004FF4004263453BD160B1022813D00428A6
:1017C0000BD0082872D10DE00220EEE70420ECE7F0
:1017D0000820EAE7FFF78CFA01E0FFF7ADFA010015
:1017E00001D17CE01146606A37F810206768B1FBD0
:1017F000F2F007EB4703834270D8B0EB073F6DD898
:10180000002308461946FEF757FD090241EA106118
:1018100002027808101871413A460023FEF74CFD89
:101820003F4AA0F54071914258D82168C86056E0FF
:10183000E3694FF6EF7893422CD109284ED2DFE8C6
:1018400000F00508114D0D4D4D4D1000FFF750FAF9
:1018500001E0FFF75FFA010004D140E0FFF76CFA06
:10186000F9E71146606A37F81000B1FBF0F041006B
:10187000606801EB5001B1FBF0F0A0F110014145AF
:101880002CD84FF6F0710140C0F3420001432068AC
:10189000C16024E0092821D2DFE800F00509122008
:1018A0000E2020201100FFF723FA02E016E0FFF7D8
:1018B00031FA010004D112E0FFF73EFAF9E71146D0
:1018C000606A37F81000B1FBF0F1606801EB50017D
:1018D000B1FBF0F0A0F1100141450AD9012501202A
:1018E000A4F86A0024F8680F2846E6602661BDE87F
:1018F000F08180B299E7000000800040F369FFCFDB
:10190000FFF4FF1100380140001002400044004085
:1019100000480040004C00400024F400F619000884
:10192000FFFC0F002DE9F047994617460D46044687
:101930004FF00008089E33E0701C31D0FEF7B6FE71
:10194000A0EB0900B04218D8BEB120680168490771
:1019500026D5802D24D0402D22D0C169C943090746
:101960000DD4082505622046FFF778FEC4F8905094
:1019700084F884800120BDE8F0870320FBE7C0697C
:10198000C04300050CD421684FF400600862204673
:10199000FFF764FE2020C4F8900084F88480ECE710
:1019A0002068C06935EA000004D00020B842C3D0E6
:1019B0000020E0E70120F9E7FEE70907090E00280B
:1019C00004DB00F1E02080F80014704700F00F0005
:1019D00000F1E02080F8141D7047FEF775FEFFF758
:1019E00025FDFFF7D3FCFFF7E7FCFEE74FF0407063
:1019F000E1EE100A70470100020004000600080032
:101A00000A000C00100020004000800000010101CD
:101A1000010307010000080402040801010100009D
:101A2000000000000000010203040607080900008E
:101A30000000010203040000581A00080000002002
:101A40001000000014020008681A000810000020AE
:101A5000F80600003002000810000000010000003D
:081A6000000000000024F40066
:04000005080001D915
:00000001FF
